{
  "contractName": "BloodD",
  "abi": [
    {
      "inputs": [],
      "stateMutability": "nonpayable",
      "type": "constructor"
    },
    {
      "anonymous": false,
      "inputs": [
        {
          "indexed": true,
          "internalType": "bytes32",
          "name": "role",
          "type": "bytes32"
        },
        {
          "indexed": true,
          "internalType": "bytes32",
          "name": "previousAdminRole",
          "type": "bytes32"
        },
        {
          "indexed": true,
          "internalType": "bytes32",
          "name": "newAdminRole",
          "type": "bytes32"
        }
      ],
      "name": "RoleAdminChanged",
      "type": "event"
    },
    {
      "anonymous": false,
      "inputs": [
        {
          "indexed": true,
          "internalType": "bytes32",
          "name": "role",
          "type": "bytes32"
        },
        {
          "indexed": true,
          "internalType": "address",
          "name": "account",
          "type": "address"
        },
        {
          "indexed": true,
          "internalType": "address",
          "name": "sender",
          "type": "address"
        }
      ],
      "name": "RoleGranted",
      "type": "event"
    },
    {
      "anonymous": false,
      "inputs": [
        {
          "indexed": true,
          "internalType": "bytes32",
          "name": "role",
          "type": "bytes32"
        },
        {
          "indexed": true,
          "internalType": "address",
          "name": "account",
          "type": "address"
        },
        {
          "indexed": true,
          "internalType": "address",
          "name": "sender",
          "type": "address"
        }
      ],
      "name": "RoleRevoked",
      "type": "event"
    },
    {
      "inputs": [],
      "name": "APPROVER_ROLE",
      "outputs": [
        {
          "internalType": "bytes32",
          "name": "",
          "type": "bytes32"
        }
      ],
      "stateMutability": "view",
      "type": "function"
    },
    {
      "inputs": [
        {
          "internalType": "bytes32",
          "name": "",
          "type": "bytes32"
        }
      ],
      "name": "AllDataHash2Id",
      "outputs": [
        {
          "internalType": "uint256",
          "name": "",
          "type": "uint256"
        }
      ],
      "stateMutability": "view",
      "type": "function"
    },
    {
      "inputs": [],
      "name": "COLLECTOR_ROLE",
      "outputs": [
        {
          "internalType": "bytes32",
          "name": "",
          "type": "bytes32"
        }
      ],
      "stateMutability": "view",
      "type": "function"
    },
    {
      "inputs": [],
      "name": "DEFAULT_ADMIN_ROLE",
      "outputs": [
        {
          "internalType": "bytes32",
          "name": "",
          "type": "bytes32"
        }
      ],
      "stateMutability": "view",
      "type": "function"
    },
    {
      "inputs": [],
      "name": "PHYSICAL_VERIFIER_ROLE",
      "outputs": [
        {
          "internalType": "bytes32",
          "name": "",
          "type": "bytes32"
        }
      ],
      "stateMutability": "view",
      "type": "function"
    },
    {
      "inputs": [],
      "name": "SCREENER_ROLE",
      "outputs": [
        {
          "internalType": "bytes32",
          "name": "",
          "type": "bytes32"
        }
      ],
      "stateMutability": "view",
      "type": "function"
    },
    {
      "inputs": [
        {
          "internalType": "uint256",
          "name": "",
          "type": "uint256"
        }
      ],
      "name": "appId2Data",
      "outputs": [
        {
          "internalType": "uint256",
          "name": "_donorId",
          "type": "uint256"
        },
        {
          "internalType": "string",
          "name": "_formURL",
          "type": "string"
        },
        {
          "internalType": "string",
          "name": "_bloodGroup",
          "type": "string"
        },
        {
          "internalType": "uint256",
          "name": "_appliedTime",
          "type": "uint256"
        },
        {
          "internalType": "uint256",
          "name": "_collectionTime",
          "type": "uint256"
        },
        {
          "internalType": "uint256",
          "name": "_closedTime",
          "type": "uint256"
        },
        {
          "internalType": "uint256",
          "name": "_bloodDonated",
          "type": "uint256"
        },
        {
          "internalType": "enum BloodD.Status",
          "name": "_status",
          "type": "uint8"
        }
      ],
      "stateMutability": "view",
      "type": "function"
    },
    {
      "inputs": [
        {
          "internalType": "uint256",
          "name": "",
          "type": "uint256"
        }
      ],
      "name": "donorId2Data",
      "outputs": [
        {
          "internalType": "bytes32",
          "name": "_donorDataHash",
          "type": "bytes32"
        },
        {
          "internalType": "uint256",
          "name": "_enrolledTimestamp",
          "type": "uint256"
        },
        {
          "internalType": "string",
          "name": "_bloodGroup",
          "type": "string"
        },
        {
          "internalType": "uint256",
          "name": "_totalBloodDonatedInMl",
          "type": "uint256"
        },
        {
          "internalType": "address",
          "name": "_walletAddress",
          "type": "address"
        },
        {
          "internalType": "bool",
          "name": "_isVerified",
          "type": "bool"
        }
      ],
      "stateMutability": "view",
      "type": "function"
    },
    {
      "inputs": [
        {
          "internalType": "uint256",
          "name": "",
          "type": "uint256"
        }
      ],
      "name": "donorId2activeAppId",
      "outputs": [
        {
          "internalType": "uint256",
          "name": "",
          "type": "uint256"
        }
      ],
      "stateMutability": "view",
      "type": "function"
    },
    {
      "inputs": [
        {
          "internalType": "bytes32",
          "name": "role",
          "type": "bytes32"
        }
      ],
      "name": "getRoleAdmin",
      "outputs": [
        {
          "internalType": "bytes32",
          "name": "",
          "type": "bytes32"
        }
      ],
      "stateMutability": "view",
      "type": "function"
    },
    {
      "inputs": [
        {
          "internalType": "bytes32",
          "name": "role",
          "type": "bytes32"
        },
        {
          "internalType": "address",
          "name": "account",
          "type": "address"
        }
      ],
      "name": "grantRole",
      "outputs": [],
      "stateMutability": "nonpayable",
      "type": "function"
    },
    {
      "inputs": [
        {
          "internalType": "bytes32",
          "name": "role",
          "type": "bytes32"
        },
        {
          "internalType": "address",
          "name": "account",
          "type": "address"
        }
      ],
      "name": "hasRole",
      "outputs": [
        {
          "internalType": "bool",
          "name": "",
          "type": "bool"
        }
      ],
      "stateMutability": "view",
      "type": "function"
    },
    {
      "inputs": [],
      "name": "owner",
      "outputs": [
        {
          "internalType": "address",
          "name": "",
          "type": "address"
        }
      ],
      "stateMutability": "view",
      "type": "function"
    },
    {
      "inputs": [
        {
          "internalType": "bytes32",
          "name": "role",
          "type": "bytes32"
        },
        {
          "internalType": "address",
          "name": "account",
          "type": "address"
        }
      ],
      "name": "renounceRole",
      "outputs": [],
      "stateMutability": "nonpayable",
      "type": "function"
    },
    {
      "inputs": [
        {
          "internalType": "bytes32",
          "name": "role",
          "type": "bytes32"
        },
        {
          "internalType": "address",
          "name": "account",
          "type": "address"
        }
      ],
      "name": "revokeRole",
      "outputs": [],
      "stateMutability": "nonpayable",
      "type": "function"
    },
    {
      "inputs": [
        {
          "internalType": "bytes4",
          "name": "interfaceId",
          "type": "bytes4"
        }
      ],
      "name": "supportsInterface",
      "outputs": [
        {
          "internalType": "bool",
          "name": "",
          "type": "bool"
        }
      ],
      "stateMutability": "view",
      "type": "function"
    },
    {
      "inputs": [],
      "name": "totalBloodDonatedInMl",
      "outputs": [
        {
          "internalType": "uint256",
          "name": "",
          "type": "uint256"
        }
      ],
      "stateMutability": "view",
      "type": "function"
    },
    {
      "inputs": [
        {
          "internalType": "bytes32",
          "name": "",
          "type": "bytes32"
        }
      ],
      "name": "verifiedDataHash2Id",
      "outputs": [
        {
          "internalType": "uint256",
          "name": "",
          "type": "uint256"
        }
      ],
      "stateMutability": "view",
      "type": "function"
    },
    {
      "inputs": [
        {
          "internalType": "bytes32",
          "name": "_donorDataHash",
          "type": "bytes32"
        },
        {
          "internalType": "string",
          "name": "_bloodGroup",
          "type": "string"
        },
        {
          "internalType": "address",
          "name": "wallet",
          "type": "address"
        }
      ],
      "name": "enrollDonor",
      "outputs": [
        {
          "internalType": "uint256",
          "name": "",
          "type": "uint256"
        }
      ],
      "stateMutability": "nonpayable",
      "type": "function"
    },
    {
      "inputs": [
        {
          "internalType": "uint256",
          "name": "_donorId",
          "type": "uint256"
        },
        {
          "internalType": "string",
          "name": "_formURL",
          "type": "string"
        }
      ],
      "name": "applyforBloodDonation",
      "outputs": [
        {
          "internalType": "uint256",
          "name": "",
          "type": "uint256"
        }
      ],
      "stateMutability": "nonpayable",
      "type": "function"
    },
    {
      "inputs": [
        {
          "internalType": "uint256",
          "name": "_appId",
          "type": "uint256"
        },
        {
          "internalType": "bool",
          "name": "_status",
          "type": "bool"
        }
      ],
      "name": "validateApplication",
      "outputs": [],
      "stateMutability": "nonpayable",
      "type": "function"
    },
    {
      "inputs": [
        {
          "internalType": "uint256",
          "name": "_appId",
          "type": "uint256"
        },
        {
          "internalType": "bytes32",
          "name": "_physicalHash",
          "type": "bytes32"
        }
      ],
      "name": "validateHashOfUser",
      "outputs": [
        {
          "internalType": "bool",
          "name": "",
          "type": "bool"
        }
      ],
      "stateMutability": "view",
      "type": "function"
    },
    {
      "inputs": [
        {
          "internalType": "uint256",
          "name": "_appId",
          "type": "uint256"
        },
        {
          "internalType": "bool",
          "name": "_status",
          "type": "bool"
        }
      ],
      "name": "validatePhysicalUserData",
      "outputs": [],
      "stateMutability": "nonpayable",
      "type": "function"
    },
    {
      "inputs": [
        {
          "internalType": "uint256",
          "name": "_appId",
          "type": "uint256"
        },
        {
          "internalType": "uint256",
          "name": "_bloodDonated",
          "type": "uint256"
        }
      ],
      "name": "collectBloodSample",
      "outputs": [],
      "stateMutability": "nonpayable",
      "type": "function"
    },
    {
      "inputs": [
        {
          "internalType": "uint256",
          "name": "_appId",
          "type": "uint256"
        },
        {
          "internalType": "bool",
          "name": "_status",
          "type": "bool"
        }
      ],
      "name": "validateScreeningTest",
      "outputs": [],
      "stateMutability": "nonpayable",
      "type": "function"
    }
  ],
  "bytecode": "0x6080604052600160035560016004553480156200001b57600080fd5b506200003b6000600102336200016e640100000000026401000000009004565b620000767f408a36151f841709116a4e8aca4e0202874f7f54687dcb863b1ea4672dc9d8cf336200016e640100000000026401000000009004565b620000b17f9b2911d13db5bdde8d587a1771fcdc537b782da47486c2d29b84a6733b5b2faf336200016e640100000000026401000000009004565b620000ec7f14cf45180c3fcf249a5a305e9657ea05c14fd4f4e1800ee0216a8213091711d2336200016e640100000000026401000000009004565b620001277fe2826fa762ef7ec7e6e85f07dbceb31d45902f119da8b0c6eb56b21cc29d90f3336200016e640100000000026401000000009004565b33600160006101000a81548173ffffffffffffffffffffffffffffffffffffffff021916908373ffffffffffffffffffffffffffffffffffffffff160217905550620002e3565b62000189828262000271640100000000026401000000009004565b6200026d57600160008084815260200190815260200160002060000160008373ffffffffffffffffffffffffffffffffffffffff1673ffffffffffffffffffffffffffffffffffffffff16815260200190815260200160002060006101000a81548160ff02191690831515021790555062000212620002db640100000000026401000000009004565b73ffffffffffffffffffffffffffffffffffffffff168173ffffffffffffffffffffffffffffffffffffffff16837f2f8788117e7eff1d82e926ec794901d17c78024a50270940304540a733656f0d60405160405180910390a45b5050565b600080600084815260200190815260200160002060000160008373ffffffffffffffffffffffffffffffffffffffff1673ffffffffffffffffffffffffffffffffffffffff16815260200190815260200160002060009054906101000a900460ff16905092915050565b600033905090565b612d8880620002f36000396000f3fe608060405234801561001057600080fd5b5060043610610190576000357c0100000000000000000000000000000000000000000000000000000000900480638da5cb5b116100fb578063a217fddf116100b4578063be55dc5f1161008e578063be55dc5f146104a3578063c57b47fc146104da578063d547741f146104f6578063eec5f16a1461051257610190565b8063a217fddf14610437578063a3fbf07a14610455578063a5ca33d51461048557610190565b80638da5cb5b1461033b57806391d14854146103595780639338e33e1461038957806399831c7c146103b95780639ca39ae9146103e9578063a1a1409b1461040757610190565b806336568abe1161014d57806336568abe1461028f57806338369655146102ab5780634245962b146102c757806361910e8e146102e557806361f38a301461030157806375d9d3d61461031f57610190565b806301ffc9a714610195578063248a9ca3146101c557806325ba8bfc146101f55780632f2ff15d1461022557806330ef266c14610241578063312c4c271461025f575b600080fd5b6101af60048036038101906101aa9190611ce3565b610547565b6040516101bc9190611d2b565b60405180910390f35b6101df60048036038101906101da9190611d7c565b6105c1565b6040516101ec9190611db8565b60405180910390f35b61020f600480360381019061020a9190611e6e565b6105e0565b60405161021c9190611edd565b60405180910390f35b61023f600480360381019061023a9190611f56565b6109b3565b005b6102496109d4565b6040516102569190611db8565b60405180910390f35b61027960048036038101906102749190611d7c565b6109f8565b6040516102869190611edd565b60405180910390f35b6102a960048036038101906102a49190611f56565b610a10565b005b6102c560048036038101906102c09190611fc2565b610a93565b005b6102cf610c25565b6040516102dc9190611db8565b60405180910390f35b6102ff60048036038101906102fa9190612002565b610c49565b005b610309610e16565b6040516103169190611db8565b60405180910390f35b61033960048036038101906103349190611fc2565b610e3a565b005b610343610f7d565b6040516103509190612051565b60405180910390f35b610373600480360381019061036e9190611f56565b610fa3565b6040516103809190611d2b565b60405180910390f35b6103a3600480360381019061039e9190611d7c565b61100d565b6040516103b09190611edd565b60405180910390f35b6103d360048036038101906103ce91906121ad565b611025565b6040516103e09190611edd565b60405180910390f35b6103f16111bc565b6040516103fe9190611db8565b60405180910390f35b610421600480360381019061041c919061221c565b6111e0565b60405161042e9190611edd565b60405180910390f35b61043f6111f8565b60405161044c9190611db8565b60405180910390f35b61046f600480360381019061046a9190612249565b611200565b60405161047c9190611d2b565b60405180910390f35b61048d6112db565b60405161049a9190611edd565b60405180910390f35b6104bd60048036038101906104b8919061221c565b6112e1565b6040516104d198979695949392919061237f565b60405180910390f35b6104f460048036038101906104ef9190611fc2565b611446565b005b610510600480360381019061050b9190611f56565b611608565b005b61052c6004803603810190610527919061221c565b611629565b60405161053e9695949392919061240b565b60405180910390f35b60007f7965db0b000000000000000000000000000000000000000000000000000000007bffffffffffffffffffffffffffffffffffffffffffffffffffffffff1916827bffffffffffffffffffffffffffffffffffffffffffffffffffffffff191614806105ba57506105b98261171a565b5b9050919050565b6000806000838152602001908152602001600020600101549050919050565b60008060010260056000868152602001908152602001600020600001540361063d576040517f08c379a0000000000000000000000000000000000000000000000000000000008152600401610634906124bf565b60405180910390fd5b6000600960008681526020019081526020016000205414610693576040517f08c379a000000000000000000000000000000000000000000000000000000000815260040161068a9061252b565b60405180910390fd5b6005600085815260200190815260200160002060040160009054906101000a900473ffffffffffffffffffffffffffffffffffffffff1673ffffffffffffffffffffffffffffffffffffffff163373ffffffffffffffffffffffffffffffffffffffff1614806107505750600160009054906101000a900473ffffffffffffffffffffffffffffffffffffffff1673ffffffffffffffffffffffffffffffffffffffff163373ffffffffffffffffffffffffffffffffffffffff16145b61078f576040517f08c379a000000000000000000000000000000000000000000000000000000000815260040161078690612597565b60405180910390fd5b60006005600086815260200190815260200160002060020180546107b2906125e6565b80601f01602080910402602001604051908101604052809291908181526020018280546107de906125e6565b801561082b5780601f106108005761010080835404028352916020019161082b565b820191906000526020600020905b81548152906001019060200180831161080e57829003601f168201915b5050505050905060006004549050600060405180610100016040528088815260200187878080601f016020809104026020016040519081016040528093929190818152602001838380828437600081840152601f19601f820116905080830192505050505050508152602001848152602001428152602001600081526020016000815260200160008152602001600060088111156108cc576108cb612308565b5b8152509050806008600084815260200190815260200160002060008201518160000155602082015181600101908161090491906127c9565b50604082015181600201908161091a91906127c9565b50606082015181600301556080820151816004015560a0820151816005015560c0820151816006015560e08201518160070160006101000a81548160ff0219169083600881111561096e5761096d612308565b5b0217905550905050816009600089815260200190815260200160002081905550600460008154809291906109a1906128ca565b91905055508193505050509392505050565b6109bc826105c1565b6109c581611784565b6109cf8383611798565b505050565b7fe2826fa762ef7ec7e6e85f07dbceb31d45902f119da8b0c6eb56b21cc29d90f381565b60066020528060005260406000206000915090505481565b610a18611878565b73ffffffffffffffffffffffffffffffffffffffff168173ffffffffffffffffffffffffffffffffffffffff1614610a85576040517f08c379a0000000000000000000000000000000000000000000000000000000008152600401610a7c90612984565b60405180910390fd5b610a8f8282611880565b5050565b7f14cf45180c3fcf249a5a305e9657ea05c14fd4f4e1800ee0216a8213091711d2610abd81611784565b60066008811115610ad157610ad0612308565b5b6008600085815260200190815260200160002060070160009054906101000a900460ff166008811115610b0757610b06612308565b5b14610b47576040517f08c379a0000000000000000000000000000000000000000000000000000000008152600401610b3e906129f0565b60405180910390fd5b8115610bc557600880600085815260200190815260200160002060070160006101000a81548160ff02191690836008811115610b8657610b85612308565b5b02179055506000600860008581526020019081526020016000206000015490506000600960008381526020019081526020016000208190555050610c05565b60076008600085815260200190815260200160002060070160006101000a81548160ff02191690836008811115610bff57610bfe612308565b5b02179055505b426008600085815260200190815260200160002060050181905550505050565b7f408a36151f841709116a4e8aca4e0202874f7f54687dcb863b1ea4672dc9d8cf81565b7f14cf45180c3fcf249a5a305e9657ea05c14fd4f4e1800ee0216a8213091711d2610c7381611784565b60046008811115610c8757610c86612308565b5b6008600085815260200190815260200160002060070160009054906101000a900460ff166008811115610cbd57610cbc612308565b5b14610cfd576040517f08c379a0000000000000000000000000000000000000000000000000000000008152600401610cf4906129f0565b60405180910390fd5b60008211610d40576040517f08c379a0000000000000000000000000000000000000000000000000000000008152600401610d3790612a5c565b60405180910390fd5b8160056000600860008781526020019081526020016000206000015481526020019081526020016000206003016000828254610d7c9190612a7c565b925050819055508160026000828254610d959190612a7c565b9250508190555081600860008581526020019081526020016000206006018190555042600860008581526020019081526020016000206004018190555060066008600085815260200190815260200160002060070160006101000a81548160ff02191690836008811115610e0c57610e0b612308565b5b0217905550505050565b7f9b2911d13db5bdde8d587a1771fcdc537b782da47486c2d29b84a6733b5b2faf81565b7f408a36151f841709116a4e8aca4e0202874f7f54687dcb863b1ea4672dc9d8cf610e6481611784565b60006008811115610e7857610e77612308565b5b6008600085815260200190815260200160002060070160009054906101000a900460ff166008811115610eae57610ead612308565b5b14610eee576040517f08c379a0000000000000000000000000000000000000000000000000000000008152600401610ee5906129f0565b60405180910390fd5b8115610f385760026008600085815260200190815260200160002060070160006101000a81548160ff02191690836008811115610f2e57610f2d612308565b5b0217905550610f78565b60036008600085815260200190815260200160002060070160006101000a81548160ff02191690836008811115610f7257610f71612308565b5b02179055505b505050565b600160009054906101000a900473ffffffffffffffffffffffffffffffffffffffff1681565b600080600084815260200190815260200160002060000160008373ffffffffffffffffffffffffffffffffffffffff1673ffffffffffffffffffffffffffffffffffffffff16815260200190815260200160002060009054906101000a900460ff16905092915050565b60076020528060005260406000206000915090505481565b60008060066000868152602001908152602001600020541461107c576040517f08c379a000000000000000000000000000000000000000000000000000000000815260040161107390612afc565b60405180910390fd5b6000600354905060006040518060c00160405280878152602001428152602001868152602001600081526020018573ffffffffffffffffffffffffffffffffffffffff16815260200160001515815250905080600560008481526020019081526020016000206000820151816000015560208201518160010155604082015181600201908161110b91906127c9565b506060820151816003015560808201518160040160006101000a81548173ffffffffffffffffffffffffffffffffffffffff021916908373ffffffffffffffffffffffffffffffffffffffff16021790555060a08201518160040160146101000a81548160ff021916908315150217905550905050816007600088815260200190815260200160002081905550600360008154809291906111ab906128ca565b919050555081925050509392505050565b7f14cf45180c3fcf249a5a305e9657ea05c14fd4f4e1800ee0216a8213091711d281565b60096020528060005260406000206000915090505481565b600060010281565b60007f9b2911d13db5bdde8d587a1771fcdc537b782da47486c2d29b84a6733b5b2faf61122c81611784565b6000600860008681526020019081526020016000206000015403611285576040517f08c379a000000000000000000000000000000000000000000000000000000000815260040161127c906129f0565b60405180910390fd5b6000600860008681526020019081526020016000206000015490506000600560008381526020019081526020016000206000015490508481036112cd576001935050506112d4565b6000935050505b5092915050565b60025481565b600860205280600052604060002060009150905080600001549080600101805461130a906125e6565b80601f0160208091040260200160405190810160405280929190818152602001828054611336906125e6565b80156113835780601f1061135857610100808354040283529160200191611383565b820191906000526020600020905b81548152906001019060200180831161136657829003601f168201915b505050505090806002018054611398906125e6565b80601f01602080910402602001604051908101604052809291908181526020018280546113c4906125e6565b80156114115780601f106113e657610100808354040283529160200191611411565b820191906000526020600020905b8154815290600101906020018083116113f457829003601f168201915b5050505050908060030154908060040154908060050154908060060154908060070160009054906101000a900460ff16905088565b7f9b2911d13db5bdde8d587a1771fcdc537b782da47486c2d29b84a6733b5b2faf61147081611784565b6002600881111561148457611483612308565b5b6008600085815260200190815260200160002060070160009054906101000a900460ff1660088111156114ba576114b9612308565b5b146114fa576040517f08c379a00000000000000000000000000000000000000000000000000000000081526004016114f1906129f0565b60405180910390fd5b81156115445760046008600085815260200190815260200160002060070160006101000a81548160ff0219169083600881111561153a57611539612308565b5b0217905550611584565b60056008600085815260200190815260200160002060070160006101000a81548160ff0219169083600881111561157e5761157d612308565b5b02179055505b600060086000858152602001908152602001600020600001549050600060056000838152602001908152602001600020600001549050600060066000838152602001908152602001600020540361160157600760008281526020019081526020016000205460066000838152602001908152602001600020819055505b5050505050565b611611826105c1565b61161a81611784565b6116248383611880565b505050565b6005602052806000526040600020600091509050806000015490806001015490806002018054611658906125e6565b80601f0160208091040260200160405190810160405280929190818152602001828054611684906125e6565b80156116d15780601f106116a6576101008083540402835291602001916116d1565b820191906000526020600020905b8154815290600101906020018083116116b457829003601f168201915b5050505050908060030154908060040160009054906101000a900473ffffffffffffffffffffffffffffffffffffffff16908060040160149054906101000a900460ff16905086565b60007f01ffc9a7000000000000000000000000000000000000000000000000000000007bffffffffffffffffffffffffffffffffffffffffffffffffffffffff1916827bffffffffffffffffffffffffffffffffffffffffffffffffffffffff1916149050919050565b61179581611790611878565b611961565b50565b6117a28282610fa3565b61187457600160008084815260200190815260200160002060000160008373ffffffffffffffffffffffffffffffffffffffff1673ffffffffffffffffffffffffffffffffffffffff16815260200190815260200160002060006101000a81548160ff021916908315150217905550611819611878565b73ffffffffffffffffffffffffffffffffffffffff168173ffffffffffffffffffffffffffffffffffffffff16837f2f8788117e7eff1d82e926ec794901d17c78024a50270940304540a733656f0d60405160405180910390a45b5050565b600033905090565b61188a8282610fa3565b1561195d57600080600084815260200190815260200160002060000160008373ffffffffffffffffffffffffffffffffffffffff1673ffffffffffffffffffffffffffffffffffffffff16815260200190815260200160002060006101000a81548160ff021916908315150217905550611902611878565b73ffffffffffffffffffffffffffffffffffffffff168173ffffffffffffffffffffffffffffffffffffffff16837ff6391f5c32d9c69d2a47ea670b442974b53935d1edc7fd64eb21e047a839171b60405160405180910390a45b5050565b61196b8282610fa3565b6119e357611978816119e7565b61198783600190046020611a14565b604051602001611998929190612bf0565b6040516020818303038152906040526040517f08c379a00000000000000000000000000000000000000000000000000000000081526004016119da9190612c2a565b60405180910390fd5b5050565b6060611a0d8273ffffffffffffffffffffffffffffffffffffffff16601460ff16611a14565b9050919050565b606060006002836002611a279190612c4c565b611a319190612a7c565b67ffffffffffffffff811115611a4a57611a49612082565b5b6040519080825280601f01601f191660200182016040528015611a7c5781602001600182028036833780820191505090505b5090507f300000000000000000000000000000000000000000000000000000000000000081600081518110611ab457611ab3612c8e565b5b60200101907effffffffffffffffffffffffffffffffffffffffffffffffffffffffffffff1916908160001a9053507f780000000000000000000000000000000000000000000000000000000000000081600181518110611b1857611b17612c8e565b5b60200101907effffffffffffffffffffffffffffffffffffffffffffffffffffffffffffff1916908160001a90535060006001846002611b589190612c4c565b611b629190612a7c565b90505b6001811115611c29577f3031323334353637383961626364656600000000000000000000000000000000600f861660108110611ba457611ba3612c8e565b5b1a7f010000000000000000000000000000000000000000000000000000000000000002828281518110611bda57611bd9612c8e565b5b60200101907effffffffffffffffffffffffffffffffffffffffffffffffffffffffffffff1916908160001a905350600485908060020a8204915050945080611c2290612cbd565b9050611b65565b5060008414611c6d576040517f08c379a0000000000000000000000000000000000000000000000000000000008152600401611c6490612d32565b60405180910390fd5b8091505092915050565b6000604051905090565b600080fd5b600080fd5b60007fffffffff0000000000000000000000000000000000000000000000000000000082169050919050565b611cc081611c8b565b8114611ccb57600080fd5b50565b600081359050611cdd81611cb7565b92915050565b600060208284031215611cf957611cf8611c81565b5b6000611d0784828501611cce565b91505092915050565b60008115159050919050565b611d2581611d10565b82525050565b6000602082019050611d406000830184611d1c565b92915050565b6000819050919050565b611d5981611d46565b8114611d6457600080fd5b50565b600081359050611d7681611d50565b92915050565b600060208284031215611d9257611d91611c81565b5b6000611da084828501611d67565b91505092915050565b611db281611d46565b82525050565b6000602082019050611dcd6000830184611da9565b92915050565b6000819050919050565b611de681611dd3565b8114611df157600080fd5b50565b600081359050611e0381611ddd565b92915050565b600080fd5b600080fd5b600080fd5b60008083601f840112611e2e57611e2d611e09565b5b8235905067ffffffffffffffff811115611e4b57611e4a611e0e565b5b602083019150836001820283011115611e6757611e66611e13565b5b9250929050565b600080600060408486031215611e8757611e86611c81565b5b6000611e9586828701611df4565b935050602084013567ffffffffffffffff811115611eb657611eb5611c86565b5b611ec286828701611e18565b92509250509250925092565b611ed781611dd3565b82525050565b6000602082019050611ef26000830184611ece565b92915050565b600073ffffffffffffffffffffffffffffffffffffffff82169050919050565b6000611f2382611ef8565b9050919050565b611f3381611f18565b8114611f3e57600080fd5b50565b600081359050611f5081611f2a565b92915050565b60008060408385031215611f6d57611f6c611c81565b5b6000611f7b85828601611d67565b9250506020611f8c85828601611f41565b9150509250929050565b611f9f81611d10565b8114611faa57600080fd5b50565b600081359050611fbc81611f96565b92915050565b60008060408385031215611fd957611fd8611c81565b5b6000611fe785828601611df4565b9250506020611ff885828601611fad565b9150509250929050565b6000806040838503121561201957612018611c81565b5b600061202785828601611df4565b925050602061203885828601611df4565b9150509250929050565b61204b81611f18565b82525050565b60006020820190506120666000830184612042565b92915050565b600080fd5b6000601f19601f8301169050919050565b7f4e487b7100000000000000000000000000000000000000000000000000000000600052604160045260246000fd5b6120ba82612071565b810181811067ffffffffffffffff821117156120d9576120d8612082565b5b80604052505050565b60006120ec611c77565b90506120f882826120b1565b919050565b600067ffffffffffffffff82111561211857612117612082565b5b61212182612071565b9050602081019050919050565b82818337600083830152505050565b600061215061214b846120fd565b6120e2565b90508281526020810184848401111561216c5761216b61206c565b5b61217784828561212e565b509392505050565b600082601f83011261219457612193611e09565b5b81356121a484826020860161213d565b91505092915050565b6000806000606084860312156121c6576121c5611c81565b5b60006121d486828701611d67565b935050602084013567ffffffffffffffff8111156121f5576121f4611c86565b5b6122018682870161217f565b925050604061221286828701611f41565b9150509250925092565b60006020828403121561223257612231611c81565b5b600061224084828501611df4565b91505092915050565b600080604083850312156122605761225f611c81565b5b600061226e85828601611df4565b925050602061227f85828601611d67565b9150509250929050565b600081519050919050565b600082825260208201905092915050565b60005b838110156122c35780820151818401526020810190506122a8565b60008484015250505050565b60006122da82612289565b6122e48185612294565b93506122f48185602086016122a5565b6122fd81612071565b840191505092915050565b7f4e487b7100000000000000000000000000000000000000000000000000000000600052602160045260246000fd5b6009811061234857612347612308565b5b50565b600081905061235982612337565b919050565b60006123698261234b565b9050919050565b6123798161235e565b82525050565b600061010082019050612395600083018b611ece565b81810360208301526123a7818a6122cf565b905081810360408301526123bb81896122cf565b90506123ca6060830188611ece565b6123d76080830187611ece565b6123e460a0830186611ece565b6123f160c0830185611ece565b6123fe60e0830184612370565b9998505050505050505050565b600060c0820190506124206000830189611da9565b61242d6020830188611ece565b818103604083015261243f81876122cf565b905061244e6060830186611ece565b61245b6080830185612042565b61246860a0830184611d1c565b979650505050505050565b7f506c6561736520456e726f6c6c206265666f7265206170706c79696e67210000600082015250565b60006124a9601e83612294565b91506124b482612473565b602082019050919050565b600060208201905081810360008301526124d88161249c565b9050919050565b7f4170706c69636174696f6e20616c726561647920696e2070726f677265737300600082015250565b6000612515601f83612294565b9150612520826124df565b602082019050919050565b6000602082019050818103600083015261254481612508565b9050919050565b7f556e617574686f72697a65642061636365737300000000000000000000000000600082015250565b6000612581601383612294565b915061258c8261254b565b602082019050919050565b600060208201905081810360008301526125b081612574565b9050919050565b7f4e487b7100000000000000000000000000000000000000000000000000000000600052602260045260246000fd5b600060028204905060018216806125fe57607f821691505b602082108103612611576126106125b7565b5b50919050565b60008190508160005260206000209050919050565b60006020601f8301049050919050565b60008160020a8302905092915050565b60006008830261267c7fffffffffffffffffffffffffffffffffffffffffffffffffffffffffffffffff8261263c565b612686868361263c565b95508019841693508086168417925050509392505050565b6000819050919050565b60006126c36126be6126b984611dd3565b61269e565b611dd3565b9050919050565b6000819050919050565b6126dd836126a8565b6126f16126e9826126ca565b84845461264c565b825550505050565b600090565b6127066126f9565b6127118184846126d4565b505050565b5b818110156127355761272a6000826126fe565b600181019050612717565b5050565b601f82111561277a5761274b81612617565b6127548461262c565b81016020851015612763578190505b61277761276f8561262c565b830182612716565b50505b505050565b60008160020a8304905092915050565b60006127a06000198460080261277f565b1980831691505092915050565b60006127b9838361278f565b9150826002028217905092915050565b6127d282612289565b67ffffffffffffffff8111156127eb576127ea612082565b5b6127f582546125e6565b612800828285612739565b600060209050601f8311600181146128335760008415612821578287015190505b61282b85826127ad565b865550612893565b601f19841661284186612617565b60005b8281101561286957848901518255600182019150602085019450602081019050612844565b868310156128865784890151612882601f89168261278f565b8355505b6001600288020188555050505b505050505050565b7f4e487b7100000000000000000000000000000000000000000000000000000000600052601160045260246000fd5b60006128d582611dd3565b91507fffffffffffffffffffffffffffffffffffffffffffffffffffffffffffffffff82036129075761290661289b565b5b600182019050919050565b7f416363657373436f6e74726f6c3a2063616e206f6e6c792072656e6f756e636560008201527f20726f6c657320666f722073656c660000000000000000000000000000000000602082015250565b600061296e602f83612294565b915061297982612912565b604082019050919050565b6000602082019050818103600083015261299d81612961565b9050919050565b7f496e76616c6964204170706c69636174696f6e20496400000000000000000000600082015250565b60006129da601683612294565b91506129e5826129a4565b602082019050919050565b60006020820190508181036000830152612a09816129cd565b9050919050565b7f496e76616c696420416d6f756e74207061737365640000000000000000000000600082015250565b6000612a46601583612294565b9150612a5182612a10565b602082019050919050565b60006020820190508181036000830152612a7581612a39565b9050919050565b6000612a8782611dd3565b9150612a9283611dd3565b9250828201905080821115612aaa57612aa961289b565b5b92915050565b7f536f7272792c20796f75206861766520616c726561647920656e726f6c6c6564600082015250565b6000612ae6602083612294565b9150612af182612ab0565b602082019050919050565b60006020820190508181036000830152612b1581612ad9565b9050919050565b600081905092915050565b7f416363657373436f6e74726f6c3a206163636f756e7420000000000000000000600082015250565b6000612b5d601783612b1c565b9150612b6882612b27565b601782019050919050565b6000612b7e82612289565b612b888185612b1c565b9350612b988185602086016122a5565b80840191505092915050565b7f206973206d697373696e6720726f6c6520000000000000000000000000000000600082015250565b6000612bda601183612b1c565b9150612be582612ba4565b601182019050919050565b6000612bfb82612b50565b9150612c078285612b73565b9150612c1282612bcd565b9150612c1e8284612b73565b91508190509392505050565b60006020820190508181036000830152612c4481846122cf565b905092915050565b6000612c5782611dd3565b9150612c6283611dd3565b9250828202612c7081611dd3565b91508282048414831517612c8757612c8661289b565b5b5092915050565b7f4e487b7100000000000000000000000000000000000000000000000000000000600052603260045260246000fd5b6000612cc882611dd3565b915060008203612cdb57612cda61289b565b5b600182039050919050565b7f537472696e67733a20686578206c656e67746820696e73756666696369656e74600082015250565b6000612d1c602083612294565b9150612d2782612ce6565b602082019050919050565b60006020820190508181036000830152612d4b81612d0f565b905091905056fea26469706673582212204ebaf06b9886c48b2771976d29872452d05c2e458549486f3d9086d7f4ee467a64736f6c63430008110033",
  "immutableReferences": {},
  "source": "// SPDX-License-Identifier: UNLICENSED\npragma solidity ^0.8.9;\n\nimport \"@openzeppelin/contracts/access/AccessControl.sol\";\n\ncontract BloodD is AccessControl{\n\n    address public owner;\n    uint256 public totalBloodDonatedInMl;\n    uint256 donorIdCounter = 1;\n    uint256 appIdCounter = 1;\n\n    // enum BloodGroup {\n    //     A+, A-, B+, B-, O+, O-, AB+, AB-\n    // }\n\n    enum Status {\n        ApplicationSubmitted, \n        ApplicationValidating, ApplicationApproved, ApplicationRejected,\n        PhysicalVerificationApproved, PhysicalVerificationFailed,\n        OngoingScreeningTest, ScreeningTestFailed, ScreeningTestApprovedAndMovedToStorage\n    }    \n\n    struct DonorData{\n        bytes32 _donorDataHash;\n        uint256 _enrolledTimestamp;\n        string _bloodGroup;\n        uint256 _totalBloodDonatedInMl;\n        address _walletAddress;\n        bool _isVerified;\n    }\n    mapping(uint256 => DonorData) public donorId2Data;\n    mapping(bytes32 => uint256) public verifiedDataHash2Id;\n    mapping(bytes32 => uint256) public AllDataHash2Id;\n\n    struct Application{\n        uint256 _donorId;\n        string _formURL;\n        string _bloodGroup;\n        uint256 _appliedTime;\n        uint256 _collectionTime;\n        uint256 _closedTime;\n        uint256 _bloodDonated;\n        Status _status;\n    }\n    mapping(uint256 => Application) public appId2Data;\n    mapping(uint256=>uint256) public donorId2activeAppId;\n\n\n    bytes32 public constant APPROVER_ROLE = keccak256(\"APPROVER_ROLE\");\n    bytes32 public constant PHYSICAL_VERIFIER_ROLE = keccak256(\"PHYSICAL_VERIFIER_ROLE\");\n    bytes32 public constant COLLECTOR_ROLE = keccak256(\"COLLECTOR_ROLE\");\n    bytes32 public constant SCREENER_ROLE = keccak256(\"SCREENER_ROLE\");\n\n    constructor(){\n        _grantRole(DEFAULT_ADMIN_ROLE, msg.sender);\n        _grantRole(APPROVER_ROLE, msg.sender);\n        _grantRole(PHYSICAL_VERIFIER_ROLE, msg.sender);\n        _grantRole(COLLECTOR_ROLE, msg.sender);\n        _grantRole(SCREENER_ROLE, msg.sender);\n        owner = msg.sender;\n    }\n\n    function enrollDonor(bytes32  _donorDataHash, string memory _bloodGroup, address wallet) external returns (uint256){\n        require(verifiedDataHash2Id[_donorDataHash] == 0, \"Sorry, you have already enrolled\");\n        uint256 donorId = donorIdCounter;\n\n        DonorData memory donorData = DonorData(_donorDataHash, block.timestamp, _bloodGroup, 0, wallet, false);\n        donorId2Data[donorId] = donorData;\n\n        AllDataHash2Id[_donorDataHash] = donorId ;\n        \n        donorIdCounter++;\n\n        return donorId;\n    }\n\n    function applyforBloodDonation(uint256 _donorId, string calldata _formURL) external returns (uint256){\n        require(donorId2Data[_donorId]._donorDataHash != 0, \"Please Enroll before applying!\");\n        require(donorId2activeAppId[_donorId] == 0, \"Application already in progress\");\n        require(msg.sender == donorId2Data[_donorId]._walletAddress || msg.sender == owner, \"Unauthorized access\");\n\n        string memory _bloodGroup = donorId2Data[_donorId]._bloodGroup;\n        uint256 appId = appIdCounter;\n\n        Application memory app = Application(_donorId, _formURL, _bloodGroup, block.timestamp, 0, 0, 0, Status.ApplicationSubmitted);\n        appId2Data[appId] = app;\n        donorId2activeAppId[_donorId] = appId;\n\n        appIdCounter++;\n\n        return appId;\n    }\n\n\n    // ----Approver----: \n\n    // Application form Approval\n    function validateApplication(uint256 _appId, bool _status) external onlyRole(APPROVER_ROLE){\n        require(appId2Data[_appId]._status == Status.ApplicationSubmitted, \"Invalid Application Id\");\n\n        if (_status) \n            appId2Data[_appId]._status = Status.ApplicationApproved;\n        else \n            appId2Data[_appId]._status = Status.ApplicationRejected;\n\n    }\n\n\n    // ----Physical Verifer----:\n\n    // User Physical Data Verification at blood bank \n    function validateHashOfUser(uint256 _appId, bytes32 _physicalHash) external view onlyRole(PHYSICAL_VERIFIER_ROLE) returns(bool){\n        require(appId2Data[_appId]._donorId != 0 , \"Invalid Application Id\");\n        uint256 donorId = appId2Data[_appId]._donorId;\n        bytes32 storedhash = donorId2Data[donorId]._donorDataHash ;\n        if (storedhash == _physicalHash)\n            return true;\n        return false;\n    }\n\n    // Verifier calls this function , lastly\n    function validatePhysicalUserData(uint256 _appId, bool _status ) external onlyRole(PHYSICAL_VERIFIER_ROLE){\n        require(appId2Data[_appId]._status == Status.ApplicationApproved, \"Invalid Application Id\");\n\n        if (_status) \n            appId2Data[_appId]._status = Status.PhysicalVerificationApproved;\n        else \n            appId2Data[_appId]._status = Status.PhysicalVerificationFailed;\n\n        uint256 donorId = appId2Data[_appId]._donorId;\n        bytes32 storedhash = donorId2Data[donorId]._donorDataHash ;\n        if (verifiedDataHash2Id[storedhash] == 0)\n            verifiedDataHash2Id[storedhash] = AllDataHash2Id[storedhash];\n    }\n\n\n    // ----Collector----:\n\n    // collectBloodSample\n    function collectBloodSample(uint256 _appId, uint256 _bloodDonated) external onlyRole(COLLECTOR_ROLE){\n        require(appId2Data[_appId]._status == Status.PhysicalVerificationApproved, \"Invalid Application Id\");\n        require(_bloodDonated > 0, \"Invalid Amount passed\");\n\n        donorId2Data[ appId2Data[_appId]._donorId ]._totalBloodDonatedInMl += _bloodDonated;\n        totalBloodDonatedInMl += _bloodDonated;\n\n        appId2Data[_appId]._bloodDonated = _bloodDonated;\n        appId2Data[_appId]._collectionTime = block.timestamp;\n\n        appId2Data[_appId]._status = Status.OngoingScreeningTest;\n    }\n\n\n    // ----Screener----: \n\n    // Screening Test results\n    function validateScreeningTest(uint256 _appId, bool _status) external onlyRole(COLLECTOR_ROLE){\n        require(appId2Data[_appId]._status == Status.OngoingScreeningTest, \"Invalid Application Id\");\n\n        if (_status){ \n            appId2Data[_appId]._status = Status.ScreeningTestApprovedAndMovedToStorage;\n            uint256 donorId = appId2Data[_appId]._donorId;\n            donorId2activeAppId[donorId] = 0;\n        }\n        else \n            appId2Data[_appId]._status = Status.ScreeningTestFailed;\n\n        appId2Data[_appId]._closedTime = block.timestamp;\n    }\n    \n}\n",
  "sourcePath": "/Users/apple/Documents/research/crowd_funding/crowdfunding-dao-solidity/contracts/BloodD.sol",
  "compiler": {
    "name": "solc",
    "version": "0.8.17+commit.8df45f5f.Emscripten.clang"
  },
  "schemaVersion": "3.4.13",
  "updatedAt": "2023-04-15T10:54:50.858Z",
  "devdoc": {
    "kind": "dev",
    "methods": {
      "getRoleAdmin(bytes32)": {
        "details": "Returns the admin role that controls `role`. See {grantRole} and {revokeRole}. To change a role's admin, use {_setRoleAdmin}."
      },
      "grantRole(bytes32,address)": {
        "details": "Grants `role` to `account`. If `account` had not been already granted `role`, emits a {RoleGranted} event. Requirements: - the caller must have ``role``'s admin role. May emit a {RoleGranted} event."
      },
      "hasRole(bytes32,address)": {
        "details": "Returns `true` if `account` has been granted `role`."
      },
      "renounceRole(bytes32,address)": {
        "details": "Revokes `role` from the calling account. Roles are often managed via {grantRole} and {revokeRole}: this function's purpose is to provide a mechanism for accounts to lose their privileges if they are compromised (such as when a trusted device is misplaced). If the calling account had been revoked `role`, emits a {RoleRevoked} event. Requirements: - the caller must be `account`. May emit a {RoleRevoked} event."
      },
      "revokeRole(bytes32,address)": {
        "details": "Revokes `role` from `account`. If `account` had been granted `role`, emits a {RoleRevoked} event. Requirements: - the caller must have ``role``'s admin role. May emit a {RoleRevoked} event."
      },
      "supportsInterface(bytes4)": {
        "details": "See {IERC165-supportsInterface}."
      }
    },
    "version": 1
  },
  "userdoc": {
    "kind": "user",
    "methods": {},
    "version": 1
  }
}