{
	"data": {
		"bytecode": {
			"linkReferences": {},
			"object": "608060405260016009556001600a553480156200001b57600080fd5b506040518060400160405280600b81526020016a109b1bdbd90b510b53919560aa1b81525060405180604001604052806005815260200164109113919560da1b81525081600090816200006f9190620002a2565b5060016200007e8282620002a2565b50620000909150600090503362000158565b620000bc7f408a36151f841709116a4e8aca4e0202874f7f54687dcb863b1ea4672dc9d8cf3362000158565b620000e87f9b2911d13db5bdde8d587a1771fcdc537b782da47486c2d29b84a6733b5b2faf3362000158565b620001147f14cf45180c3fcf249a5a305e9657ea05c14fd4f4e1800ee0216a8213091711d23362000158565b620001407fe2826fa762ef7ec7e6e85f07dbceb31d45902f119da8b0c6eb56b21cc29d90f33362000158565b600780546001600160a01b031916331790556200036e565b60008281526006602090815260408083206001600160a01b038516845290915290205460ff16620001f95760008281526006602090815260408083206001600160a01b03851684529091529020805460ff19166001179055620001b83390565b6001600160a01b0316816001600160a01b0316837f2f8788117e7eff1d82e926ec794901d17c78024a50270940304540a733656f0d60405160405180910390a45b5050565b634e487b7160e01b600052604160045260246000fd5b600181811c908216806200022857607f821691505b6020821081036200024957634e487b7160e01b600052602260045260246000fd5b50919050565b601f8211156200029d57600081815260208120601f850160051c81016020861015620002785750805b601f850160051c820191505b81811015620002995782815560010162000284565b5050505b505050565b81516001600160401b03811115620002be57620002be620001fd565b620002d681620002cf845462000213565b846200024f565b602080601f8311600181146200030e5760008415620002f55750858301515b600019600386901b1c1916600185901b17855562000299565b600085815260208120601f198616915b828110156200033f578886015182559484019460019091019084016200031e565b50858210156200035e5787850151600019600388901b60f8161c191681555b5050505050600190811b01905550565b6140fb806200037e6000396000f3fe608060405234801561001057600080fd5b506004361061025e5760003560e01c80636dcee4ca11610146578063a1a1409b116100c3578063be55dc5f11610087578063be55dc5f146105c4578063c57b47fc146105ec578063c87b56dd146105ff578063d547741f14610612578063e985e9c514610625578063eec5f16a1461066157600080fd5b8063a1a1409b14610563578063a217fddf14610583578063a22cb4651461058b578063a3fbf07a1461059e578063b88d4fde146105b157600080fd5b806391d148541161010a57806391d14854146104ee5780639338e33e1461050157806395d89b411461052157806399831c7c146105295780639ca39ae91461053c57600080fd5b80636dcee4ca1461049957806370a08231146104ac57806371134e5f146104bf57806375d9d3d6146104c85780638da5cb5b146104db57600080fd5b80632f2ff15d116101df5780633a7a5b7d116101a35780633a7a5b7d146103fc5780634245962b1461041c57806342842e0e1461044357806358b340661461045657806361f38a301461045f5780636352211e1461048657600080fd5b80632f2ff15d1461037c57806330ef266c1461038f578063312c4c27146103b657806336568abe146103d657806338369655146103e957600080fd5b806313ff27521161022657806313ff2752146102f357806321e62a071461030a57806323b872dd14610333578063248a9ca31461034657806325ba8bfc1461036957600080fd5b806301ffc9a71461026357806306fdde031461028b578063081812fc146102a0578063095ea7b3146102cb5780630ea0a763146102e0575b600080fd5b6102766102713660046127b9565b610686565b60405190151581526020015b60405180910390f35b610293610697565b604051610282919061282e565b6102b36102ae366004612841565b610729565b6040516001600160a01b039091168152602001610282565b6102de6102d9366004612876565b610750565b005b6102de6102ee3660046128e9565b61086a565b6102fc60095481565b604051908152602001610282565b6102fc61031836600461293c565b6001600160a01b03166000908152600e602052604090205490565b6102de610341366004612957565b6109f9565b6102fc610354366004612841565b60009081526006602052604090206001015490565b6102fc610377366004612993565b610a2a565b6102de61038a3660046129df565b610dad565b6102fc7fe2826fa762ef7ec7e6e85f07dbceb31d45902f119da8b0c6eb56b21cc29d90f381565b6102fc6103c4366004612841565b600c6020526000908152604090205481565b6102de6103e43660046129df565b610dd2565b6102de6103f7366004612a1b565b610e50565b6102fc61040a36600461293c565b600e6020526000908152604090205481565b6102fc7f408a36151f841709116a4e8aca4e0202874f7f54687dcb863b1ea4672dc9d8cf81565b6102de610451366004612957565b611042565b6102fc600a5481565b6102fc7f9b2911d13db5bdde8d587a1771fcdc537b782da47486c2d29b84a6733b5b2faf81565b6102b3610494366004612841565b61105d565b6102936104a7366004612841565b6110bd565b6102fc6104ba36600461293c565b611116565b6102fc60085481565b6102de6104d6366004612a1b565b61119c565b6007546102b3906001600160a01b031681565b6102766104fc3660046129df565b61128d565b6102fc61050f366004612841565b600d6020526000908152604090205481565b6102936112b8565b6102fc610537366004612aca565b6112c7565b6102fc7f14cf45180c3fcf249a5a305e9657ea05c14fd4f4e1800ee0216a8213091711d281565b6102fc610571366004612841565b60106020526000908152604090205481565b6102fc600081565b6102de610599366004612b35565b61144a565b6102766105ac366004612b5f565b611455565b6102de6105bf366004612b81565b6114ec565b6105d76105d2366004612841565b611524565b60405161028299989796959493929190612c13565b6102de6105fa366004612a1b565b611708565b61029361060d366004612841565b61183f565b6102de6106203660046129df565b61184a565b610276610633366004612ca3565b6001600160a01b03918216600090815260056020908152604080832093909416825291909152205460ff1690565b61067461066f366004612841565b61186f565b60405161028296959493929190612ccd565b60006106918261193b565b92915050565b6060600080546106a690612d15565b80601f01602080910402602001604051908101604052809291908181526020018280546106d290612d15565b801561071f5780601f106106f45761010080835404028352916020019161071f565b820191906000526020600020905b81548152906001019060200180831161070257829003601f168201915b5050505050905090565b600061073482611960565b506000908152600460205260409020546001600160a01b031690565b600061075b8261105d565b9050806001600160a01b0316836001600160a01b0316036107cd5760405162461bcd60e51b815260206004820152602160248201527f4552433732313a20617070726f76616c20746f2063757272656e74206f776e656044820152603960f91b60648201526084015b60405180910390fd5b336001600160a01b03821614806107e957506107e98133610633565b61085b5760405162461bcd60e51b815260206004820152603d60248201527f4552433732313a20617070726f76652063616c6c6572206973206e6f7420746f60448201527f6b656e206f776e6572206f7220617070726f76656420666f7220616c6c00000060648201526084016107c4565b61086583836119c2565b505050565b7f14cf45180c3fcf249a5a305e9657ea05c14fd4f4e1800ee0216a8213091711d261089481611a30565b60046000868152600f6020526040902060089081015460ff16908111156108bd576108bd612bfd565b146108da5760405162461bcd60e51b81526004016107c490612d4f565b600084116109225760405162461bcd60e51b8152602060048201526015602482015274125b9d985b1a5908105b5bdd5b9d081c185cdcd959605a1b60448201526064016107c4565b6000858152600f60209081526040808320548352600b90915281206003018054869290610950908490612d95565b9250508190555083600860008282546109699190612d95565b90915550506000858152600f6020526040902060078101859055426004820155600501610997838583612dfb565b506000858152600f602052604090819020600801805460ff19166006179055517fcbb512a7560a1890cf7fe36bf19b38820edf419952debd1c2b5d1c252a2e903a906109ea908790879087908790612ee5565b60405180910390a15050505050565b610a033382611a3a565b610a1f5760405162461bcd60e51b81526004016107c490612f0f565b610865838383611ab9565b6000838152600b60205260408120548103610a875760405162461bcd60e51b815260206004820152601e60248201527f506c6561736520456e726f6c6c206265666f7265206170706c79696e6721000060448201526064016107c4565b60008481526010602052604090205415610ae35760405162461bcd60e51b815260206004820152601f60248201527f4170706c69636174696f6e20616c726561647920696e2070726f67726573730060448201526064016107c4565b6000848152600b60205260409020600401546001600160a01b0316331480610b1557506007546001600160a01b031633145b610b575760405162461bcd60e51b8152602060048201526013602482015272556e617574686f72697a65642061636365737360681b60448201526064016107c4565b6000848152600b602052604081206002018054610b7390612d15565b80601f0160208091040260200160405190810160405280929190818152602001828054610b9f90612d15565b8015610bec5780601f10610bc157610100808354040283529160200191610bec565b820191906000526020600020905b815481529060010190602001808311610bcf57829003601f168201915b505050505090506000600a549050600060405180610120016040528088815260200187878080601f01602080910402602001604051908101604052809392919081815260200183838082843760009201829052509385525050506020808301879052426040808501919091526060840183905280518082018252600a815269030302d30302d303030360b41b81840152608085015260a0840183905260c0840183905260e0909301829052858252600f8152919020825181559082015191925082916001820190610cbd9082612f5c565b5060408201516002820190610cd29082612f5c565b50606082015160038201556080820151600482015560a08201516005820190610cfb9082612f5c565b5060c0820151816006015560e082015181600701556101008201518160080160006101000a81548160ff02191690836008811115610d3b57610d3b612bfd565b021790555050506000878152601060205260408120839055600a805491610d618361301c565b91905055507fd22cef3b05c6be6172630d0f863a3726dbcdda9c9bb3226e95144027e981c94e87878785604051610d9b9493929190613035565b60405180910390a15095945050505050565b600082815260066020526040902060010154610dc881611a30565b6108658383611c1d565b6001600160a01b0381163314610e425760405162461bcd60e51b815260206004820152602f60248201527f416363657373436f6e74726f6c3a2063616e206f6e6c792072656e6f756e636560448201526e103937b632b9903337b91039b2b63360891b60648201526084016107c4565b610e4c8282611ca3565b5050565b7f14cf45180c3fcf249a5a305e9657ea05c14fd4f4e1800ee0216a8213091711d2610e7a81611a30565b60066000848152600f6020526040902060089081015460ff1690811115610ea357610ea3612bfd565b14610ec05760405162461bcd60e51b81526004016107c490612d4f565b811561100c576000838152600f602090815260408083206008808201805460ff1916909117905580548085526010845282852085905590548452600b909252909120600401546001600160a01b0316610f198186611d0a565b6000858152600f602052604080822060078101549151919291610f3f91600201906130d3565b6040805191829003822082820190915260058252644f202b766560d81b60209092019190915290507f6b1b58026416d0d28edc93aa8dcd111db963d14c36a97b420998316a0b9364af8101611003576040516340c10f1960e01b81526001600160a01b038416600482015260248101839052738a791620dd6260079bf849dc5567adc3f2fdc318906340c10f1990604401600060405180830381600087803b158015610fea57600080fd5b505af1158015610ffe573d6000803e3d6000fd5b505050505b50505050611029565b6000838152600f60205260409020600801805460ff191660071790555b50506000908152600f6020526040902042600690910155565b610865838383604051806020016040528060008152506114ec565b6000818152600260205260408120546001600160a01b0316806106915760405162461bcd60e51b8152602060048201526018602482015277115490cdcc8c4e881a5b9d985b1a59081d1bdad95b88125160421b60448201526064016107c4565b60606110c882611e95565b6000838152600f6020526040902060078101546005820191600201906110ed90611ec9565b60405160200161110094939291906130fb565b6040516020818303038152906040529050919050565b60006001600160a01b0382166111805760405162461bcd60e51b815260206004820152602960248201527f4552433732313a2061646472657373207a65726f206973206e6f7420612076616044820152683634b21037bbb732b960b91b60648201526084016107c4565b506001600160a01b031660009081526003602052604090205490565b7f408a36151f841709116a4e8aca4e0202874f7f54687dcb863b1ea4672dc9d8cf6111c681611a30565b6000838152600f6020526040812060089081015460ff16908111156111ed576111ed612bfd565b1461120a5760405162461bcd60e51b81526004016107c490612d4f565b8115611231576000838152600f60205260409020600801805460ff1916600217905561124e565b6000838152600f60205260409020600801805460ff191660031790555b6040805184815283151560208201527f1160581da179f3b34a5b8df1fc13ca1f4f5af8b9fda4e911914a3cb47317db9d910160405180910390a1505050565b60009182526006602090815260408084206001600160a01b0393909316845291905290205460ff1690565b6060600180546106a690612d15565b6000838152600c6020526040812054156113235760405162461bcd60e51b815260206004820181905260248201527f536f7272792c20796f75206861766520616c726561647920656e726f6c6c656460448201526064016107c4565b6009546040805160c0810182528681524260208083019182528284018881526000606085018190526001600160a01b038916608086015260a08501819052868152600b9092529390208251815590516001820155915190918291600282019061138c9082612f5c565b506060820151600382015560808201516004909101805460a0909301511515600160a01b026001600160a81b03199093166001600160a01b0392831617929092179091556000878152600d602090815260408083208690559287168252600e905290812083905560098054916114018361301c565b91905055507f251694b0a48411b0cbd9d11ce44ff3bacddbaf8f65d990532b5cfff270a5e718868686604051611439939291906135ef565b60405180910390a150949350505050565b610e4c338383611f5c565b60007f9b2911d13db5bdde8d587a1771fcdc537b782da47486c2d29b84a6733b5b2faf61148181611a30565b6000848152600f602052604081205490036114ae5760405162461bcd60e51b81526004016107c490612d4f565b6000848152600f6020908152604080832054808452600b909252909120548481036114de576001935050506114e5565b6000935050505b5092915050565b6114f63383611a3a565b6115125760405162461bcd60e51b81526004016107c490612f0f565b61151e8484848461202a565b50505050565b600f602052600090815260409020805460018201805491929161154690612d15565b80601f016020809104026020016040519081016040528092919081815260200182805461157290612d15565b80156115bf5780601f10611594576101008083540402835291602001916115bf565b820191906000526020600020905b8154815290600101906020018083116115a257829003601f168201915b5050505050908060020180546115d490612d15565b80601f016020809104026020016040519081016040528092919081815260200182805461160090612d15565b801561164d5780601f106116225761010080835404028352916020019161164d565b820191906000526020600020905b81548152906001019060200180831161163057829003601f168201915b50505050509080600301549080600401549080600501805461166e90612d15565b80601f016020809104026020016040519081016040528092919081815260200182805461169a90612d15565b80156116e75780601f106116bc576101008083540402835291602001916116e7565b820191906000526020600020905b8154815290600101906020018083116116ca57829003601f168201915b50505050600683015460078401546008909401549293909290915060ff1689565b7f9b2911d13db5bdde8d587a1771fcdc537b782da47486c2d29b84a6733b5b2faf61173281611a30565b60026000848152600f6020526040902060089081015460ff169081111561175b5761175b612bfd565b146117785760405162461bcd60e51b81526004016107c490612d4f565b811561179f576000838152600f60205260409020600801805460ff191660041790556117bc565b6000838152600f60205260409020600801805460ff191660051790555b6000838152600f6020908152604080832054808452600b835281842054808552600c90935290832054909203611808576000818152600d6020908152604080832054600c909252909120555b6040805186815285151560208201527f5ddf4532b7b6ac0fe369c95e912de93d508a2bece5c0a05ab141c00baeba6e9391016109ea565b60606106918261205d565b60008281526006602052604090206001015461186581611a30565b6108658383611ca3565b600b602052600090815260409020805460018201546002830180549293919261189790612d15565b80601f01602080910402602001604051908101604052809291908181526020018280546118c390612d15565b80156119105780601f106118e557610100808354040283529160200191611910565b820191906000526020600020905b8154815290600101906020018083116118f357829003601f168201915b5050505060038301546004909301549192916001600160a01b0381169150600160a01b900460ff1686565b60006001600160e01b03198216637965db0b60e01b148061069157506106918261210b565b6000818152600260205260409020546001600160a01b03166119bf5760405162461bcd60e51b8152602060048201526018602482015277115490cdcc8c4e881a5b9d985b1a59081d1bdad95b88125160421b60448201526064016107c4565b50565b600081815260046020526040902080546001600160a01b0319166001600160a01b03841690811790915581906119f78261105d565b6001600160a01b03167f8c5be1e5ebec7d5bd14f71427d1e84f3dd0314c0f7b2291e5b200ac8c7c3b92560405160405180910390a45050565b6119bf813361215b565b600080611a468361105d565b9050806001600160a01b0316846001600160a01b03161480611a8d57506001600160a01b0380821660009081526005602090815260408083209388168352929052205460ff165b80611ab15750836001600160a01b0316611aa684610729565b6001600160a01b0316145b949350505050565b826001600160a01b0316611acc8261105d565b6001600160a01b031614611af25760405162461bcd60e51b81526004016107c490613620565b6001600160a01b038216611b545760405162461bcd60e51b8152602060048201526024808201527f4552433732313a207472616e7366657220746f20746865207a65726f206164646044820152637265737360e01b60648201526084016107c4565b826001600160a01b0316611b678261105d565b6001600160a01b031614611b8d5760405162461bcd60e51b81526004016107c490613620565b600081815260046020908152604080832080546001600160a01b03199081169091556001600160a01b0387811680865260038552838620805460001901905590871680865283862080546001019055868652600290945282852080549092168417909155905184937fddf252ad1be2c89b69c2b068fc378daa952ba7f163c4a11628f55a4df523b3ef91a4505050565b611c27828261128d565b610e4c5760008281526006602090815260408083206001600160a01b03851684529091529020805460ff19166001179055611c5f3390565b6001600160a01b0316816001600160a01b0316837f2f8788117e7eff1d82e926ec794901d17c78024a50270940304540a733656f0d60405160405180910390a45050565b611cad828261128d565b15610e4c5760008281526006602090815260408083206001600160a01b0385168085529252808320805460ff1916905551339285917ff6391f5c32d9c69d2a47ea670b442974b53935d1edc7fd64eb21e047a839171b9190a45050565b6001600160a01b038216611d605760405162461bcd60e51b815260206004820181905260248201527f4552433732313a206d696e7420746f20746865207a65726f206164647265737360448201526064016107c4565b6000818152600260205260409020546001600160a01b031615611dc55760405162461bcd60e51b815260206004820152601c60248201527f4552433732313a20746f6b656e20616c7265616479206d696e7465640000000060448201526064016107c4565b6000818152600260205260409020546001600160a01b031615611e2a5760405162461bcd60e51b815260206004820152601c60248201527f4552433732313a20746f6b656e20616c7265616479206d696e7465640000000060448201526064016107c4565b6001600160a01b038216600081815260036020908152604080832080546001019055848352600290915280822080546001600160a01b0319168417905551839291907fddf252ad1be2c89b69c2b068fc378daa952ba7f163c4a11628f55a4df523b3ef908290a45050565b6060611ea082611ec9565b6000838152600f6020526040902054611eb890611ec9565b604051602001611100929190613665565b60606000611ed6836121b4565b600101905060008167ffffffffffffffff811115611ef657611ef6612a3e565b6040519080825280601f01601f191660200182016040528015611f20576020820181803683370190505b5090508181016020015b600019016f181899199a1a9b1b9c1cb0b131b232b360811b600a86061a8153600a8504945084611f2a57509392505050565b816001600160a01b0316836001600160a01b031603611fbd5760405162461bcd60e51b815260206004820152601960248201527f4552433732313a20617070726f766520746f2063616c6c65720000000000000060448201526064016107c4565b6001600160a01b03838116600081815260056020908152604080832094871680845294825291829020805460ff191686151590811790915591519182527f17307eab39ab6107e8899845ad3d59bd9653f200f220920489ca2b5937696c31910160405180910390a3505050565b612035848484611ab9565b6120418484848461228c565b61151e5760405162461bcd60e51b81526004016107c490613c5b565b6060600061206a83611ec9565b60405160200161207a9190613cad565b60405160208183030381529060405290506000612096846110bd565b905060006120a38561238d565b905060006120db84836120b58661249b565b6040516020016120c793929190613ce2565b60405160208183030381529060405261249b565b90506000816040516020016120f09190613dea565b60408051601f19818403018152919052979650505050505050565b60006001600160e01b031982166380ac58cd60e01b148061213c57506001600160e01b03198216635b5e139f60e01b145b8061069157506301ffc9a760e01b6001600160e01b0319831614610691565b612165828261128d565b610e4c57612172816125ee565b61217d836020612600565b60405160200161218e929190613e2f565b60408051601f198184030181529082905262461bcd60e51b82526107c49160040161282e565b60008072184f03e93ff9f4daa797ed6e38ed64bf6a1f0160401b83106121f35772184f03e93ff9f4daa797ed6e38ed64bf6a1f0160401b830492506040015b6d04ee2d6d415b85acef8100000000831061221f576d04ee2d6d415b85acef8100000000830492506020015b662386f26fc10000831061223d57662386f26fc10000830492506010015b6305f5e1008310612255576305f5e100830492506008015b612710831061226957612710830492506004015b6064831061227b576064830492506002015b600a83106106915760010192915050565b60006001600160a01b0384163b1561238257604051630a85bd0160e11b81526001600160a01b0385169063150b7a02906122d0903390899088908890600401613ea4565b6020604051808303816000875af192505050801561230b575060408051601f3d908101601f1916820190925261230891810190613ed7565b60015b612368573d808015612339576040519150601f19603f3d011682016040523d82523d6000602084013e61233e565b606091505b5080516000036123605760405162461bcd60e51b81526004016107c490613c5b565b805181602001fd5b6001600160e01b031916630a85bd0160e11b149050611ab1565b506001949350505050565b6000818152600f60205260408120600201805460609291906123ae90612d15565b80601f01602080910402602001604051908101604052809291908181526020018280546123da90612d15565b80156124275780601f106123fc57610100808354040283529160200191612427565b820191906000526020600020905b81548152906001019060200180831161240a57829003601f168201915b5050506000868152600f60205260408120600701549394509261244c92509050611ec9565b6000858152600f60205260408120600401549192509061246b90611ec9565b905082828260405160200161248293929190613ef4565b6040516020818303038152906040529350505050919050565b606081516000036124ba57505060408051602081019091526000815290565b600060405180606001604052806040815260200161408660409139905060006003845160026124e99190612d95565b6124f39190614017565b6124fe906004614039565b67ffffffffffffffff81111561251657612516612a3e565b6040519080825280601f01601f191660200182016040528015612540576020820181803683370190505b509050600182016020820185865187015b808210156125ac576003820191508151603f8160121c168501518453600184019350603f81600c1c168501518453600184019350603f8160061c168501518453600184019350603f8116850151845350600183019250612551565b50506003865106600181146125c857600281146125db576125e3565b603d6001830353603d60028303536125e3565b603d60018303535b509195945050505050565b60606106916001600160a01b03831660145b6060600061260f836002614039565b61261a906002612d95565b67ffffffffffffffff81111561263257612632612a3e565b6040519080825280601f01601f19166020018201604052801561265c576020820181803683370190505b509050600360fc1b8160008151811061267757612677614058565b60200101906001600160f81b031916908160001a905350600f60fb1b816001815181106126a6576126a6614058565b60200101906001600160f81b031916908160001a90535060006126ca846002614039565b6126d5906001612d95565b90505b600181111561274d576f181899199a1a9b1b9c1cb0b131b232b360811b85600f166010811061270957612709614058565b1a60f81b82828151811061271f5761271f614058565b60200101906001600160f81b031916908160001a90535060049490941c936127468161406e565b90506126d8565b50831561279c5760405162461bcd60e51b815260206004820181905260248201527f537472696e67733a20686578206c656e67746820696e73756666696369656e7460448201526064016107c4565b9392505050565b6001600160e01b0319811681146119bf57600080fd5b6000602082840312156127cb57600080fd5b813561279c816127a3565b60005b838110156127f15781810151838201526020016127d9565b8381111561151e5750506000910152565b6000815180845261281a8160208601602086016127d6565b601f01601f19169290920160200192915050565b60208152600061279c6020830184612802565b60006020828403121561285357600080fd5b5035919050565b80356001600160a01b038116811461287157600080fd5b919050565b6000806040838503121561288957600080fd5b6128928361285a565b946020939093013593505050565b60008083601f8401126128b257600080fd5b50813567ffffffffffffffff8111156128ca57600080fd5b6020830191508360208285010111156128e257600080fd5b9250929050565b600080600080606085870312156128ff57600080fd5b8435935060208501359250604085013567ffffffffffffffff81111561292457600080fd5b612930878288016128a0565b95989497509550505050565b60006020828403121561294e57600080fd5b61279c8261285a565b60008060006060848603121561296c57600080fd5b6129758461285a565b92506129836020850161285a565b9150604084013590509250925092565b6000806000604084860312156129a857600080fd5b83359250602084013567ffffffffffffffff8111156129c657600080fd5b6129d2868287016128a0565b9497909650939450505050565b600080604083850312156129f257600080fd5b82359150612a026020840161285a565b90509250929050565b8035801515811461287157600080fd5b60008060408385031215612a2e57600080fd5b82359150612a0260208401612a0b565b634e487b7160e01b600052604160045260246000fd5b600067ffffffffffffffff80841115612a6f57612a6f612a3e565b604051601f8501601f19908116603f01168101908282118183101715612a9757612a97612a3e565b81604052809350858152868686011115612ab057600080fd5b858560208301376000602087830101525050509392505050565b600080600060608486031215612adf57600080fd5b83359250602084013567ffffffffffffffff811115612afd57600080fd5b8401601f81018613612b0e57600080fd5b612b1d86823560208401612a54565b925050612b2c6040850161285a565b90509250925092565b60008060408385031215612b4857600080fd5b612b518361285a565b9150612a0260208401612a0b565b60008060408385031215612b7257600080fd5b50508035926020909101359150565b60008060008060808587031215612b9757600080fd5b612ba08561285a565b9350612bae6020860161285a565b925060408501359150606085013567ffffffffffffffff811115612bd157600080fd5b8501601f81018713612be257600080fd5b612bf187823560208401612a54565b91505092959194509250565b634e487b7160e01b600052602160045260246000fd5b60006101208b8352806020840152612c2d8184018c612802565b90508281036040840152612c41818b612802565b905088606084015287608084015282810360a0840152612c618188612802565b9150508460c08301528360e083015260098310612c8e57634e487b7160e01b600052602160045260246000fd5b826101008301529a9950505050505050505050565b60008060408385031215612cb657600080fd5b612cbf8361285a565b9150612a026020840161285a565b86815285602082015260c060408201526000612cec60c0830187612802565b6060830195909552506001600160a01b03929092166080830152151560a0909101529392505050565b600181811c90821680612d2957607f821691505b602082108103612d4957634e487b7160e01b600052602260045260246000fd5b50919050565b602080825260169082015275125b9d985b1a5908105c1c1b1a58d85d1a5bdb88125960521b604082015260600190565b634e487b7160e01b600052601160045260246000fd5b60008219821115612da857612da8612d7f565b500190565b601f82111561086557600081815260208120601f850160051c81016020861015612dd45750805b601f850160051c820191505b81811015612df357828155600101612de0565b505050505050565b67ffffffffffffffff831115612e1357612e13612a3e565b612e2783612e218354612d15565b83612dad565b6000601f841160018114612e5b5760008515612e435750838201355b600019600387901b1c1916600186901b178355612eb5565b600083815260209020601f19861690835b82811015612e8c5786850135825560209485019460019092019101612e6c565b5086821015612ea95760001960f88860031b161c19848701351681555b505060018560011b0183555b5050505050565b81835281816020850137506000828201602090810191909152601f909101601f19169091010190565b848152836020820152606060408201526000612f05606083018486612ebc565b9695505050505050565b6020808252602d908201527f4552433732313a2063616c6c6572206973206e6f7420746f6b656e206f776e6560408201526c1c881bdc88185c1c1c9bdd9959609a1b606082015260800190565b815167ffffffffffffffff811115612f7657612f76612a3e565b612f8a81612f848454612d15565b84612dad565b602080601f831160018114612fbf5760008415612fa75750858301515b600019600386901b1c1916600185901b178555612df3565b600085815260208120601f198616915b82811015612fee57888601518255948401946001909101908401612fcf565b508582101561300c5787850151600019600388901b60f8161c191681555b5050505050600190811b01905550565b60006001820161302e5761302e612d7f565b5060010190565b84815260606020820152600061304f606083018587612ebc565b905082604083015295945050505050565b6000815461306d81612d15565b60018281168015613085576001811461309a576130c9565b60ff19841687528215158302870194506130c9565b8560005260208060002060005b858110156130c05781548a8201529084019082016130a7565b50505082870194505b5050505092915050565b600061279c8284613060565b600081516130f18185602086016127d6565b9290920192915050565b6000855161310d818460208a016127d6565b7f3c706174682069643d224461746520426f726465722220207374726f6b653d229083019081527f2330303030303022207374726f6b652d77696474683d223322206f706163697460208201527f793d223930252220643d224d203132372031343020762033302068313630207660408201527f202d3330207a222066696c6c3d2223666666666666222f3e200000000000000060608201527f3c746578742069643d2244617465312220783d2237332220793d22313630222060798201527f7374796c653d22666f6e742d66616d696c793a4d6f6e6f73706163653b666f6e60998201527f742d73697a653a3135223e446174653a203c2f746578743e3c7465787420696460b98201527f3d2244617465322220783d223133352220793d2231363022207374796c653d2260d98201527f666f6e742d66616d696c793a4d6f6e6f73706163653b666f6e742d73697a653a60f982015263189a911f60e11b6101198201526135e46135cb6135c56134046133fe61332d61329261011d88018d613060565b7f3c2f746578743e3c706174682069643d22436c6173732220207374726f6b653d81527f222330303030303022207374726f6b652d77696474683d223322206f7061636960208201527f74793d223930252220643d224d2031323720313930207620333020683136302060408201527f76202d3330207a222066696c6c3d2223666666666666222f3e00000000000000606082015260790190565b7f3c746578742069643d22436c617373312220783d2236342220793d223231302281527f207374796c653d22666f6e742d66616d696c793a4d6f6e6f73706163653b666f60208201527f6e742d73697a653a3135223e47726f75703a203c2f746578743e3c746578742060408201527f69643d22436c617373322220783d223133352220793d2232313022207374796c60608201527f653d22666f6e742d66616d696c793a4d6f6e6f73706163653b666f6e742d73696080820152663d329d189a911f60c91b60a082015260a70190565b89613060565b7f3c2f746578743e3c706174682069643d22556e69747320426f7264657222202081527f7374726f6b653d222330303030303022207374726f6b652d77696474683d223360208201527f22206f7061636974793d223930252220643d224d20313237203234302076203360408201527f3020683136302076202d3330207a222066696c6c3d2223666666666666222f3e60608201527f3c746578742069643d22556e697473312220783d2236352220793d223236302260808201527f207374796c653d22666f6e742d66616d696c793a4d6f6e6f73706163653b666f60a08201527f6e742d73697a653a3135223e556e6974733a203c2f746578743e3c746578742060c08201527f69643d22556e697473322220783d2232372220793d2232373522207374796c6560e08201527f3d22666f6e742d66616d696c793a4d6f6e6f73706163653b666f6e742d73697a61010082018190527f653a3132223e283335306d6c2f556e6974293c2f746578743e3c7465787420696101208301527f643d22556e697473332220783d223133352220793d2232363022207374796c6561014083015261016082015265329d189a911f60d11b6101808201526101860190565b866130df565b6c1e17ba32bc3a1f1e17b9bb339f60991b8152600d0190565b979650505050505050565b8381526060602082015260006136086060830185612802565b905060018060a01b0383166040830152949350505050565b60208082526025908201527f4552433732313a207472616e736665722066726f6d20696e636f72726563742060408201526437bbb732b960d91b606082015260800190565b7f3c73766720786d6c6e733d22687474703a2f2f7777772e77332e6f72672f323081527f30302f73766722207374796c653d226261636b67726f756e643a23666666662260208201527f2077696474683d2233303022206865696768743d22333030223e00000000000060408201527f3c726563742069643d226865616465722220783d22302220793d223022207769605a8201527f6474683d2233353022206865696768743d22363922206f7061636974793d2239607a8201527f3025222066696c6c3d22726762612836332c302c31362c302e39333829222f3e609a8201527f3c746578742069643d22426c6f6f6444204865616465722220783d223638222060ba8201527f793d22333022202066696c6c3d222366666436643622207374796c653d22666f60da8201527f6e743a2032307078205a617066696e6f3b666f6e742d73697a653a3133223e4260fa820152743637b7b21016902210169027232a1e17ba32bc3a1f60591b61011a8201527f3c746578742069643d224f7065726174696f6e49642220783d2233352220793d61012f8201527f223633222066696c6c3d222366656366636622207374796c653d22666f6e743a61014f8201527f203230707820436f70706572706c617465203b666f6e742d73697a653a32302261016f820152743e20446f6e6f72204170706c69636174696f6e202360581b61018f8201526000611ab161388e613c55613bf4613ae76139526138a1856101a48a018c6130df565b661e17ba32bc3a1f60c91b815260070190565b7f3c706174682069643d22706c7573222066696c6c3d222365653931393122207381527f74726f6b653d222366666666666622207374726f6b652d77696474683d22332260208201527f2020643d224d20322031363820682032352076202d323520682033302076203260408201527f35206820323520762032352068202d323520762032352068202d33302076202d60608201526c191a903416991a903d1110179f60991b6080820152608d0190565b7f3c673e3c726563742069643d2263616e7661732220783d22302220793d22373181527f222077696474683d223134302e3822206865696768743d223130302522206f7060208201527f61636974793d22383525222066696c6c3d2223656334373464223e3c2f72656360408201527f743e203c726563742069643d2263616e7661732220783d223134312220793d2260608201527f3731222077696474683d223130302522206865696768743d223130302522206f60808201527f7061636974793d22383525222066696c6c3d2223663361646164223e3c2f726560a08201527f63743e203c616e696d617465206174747269627574654e616d653d226f70616360c08201527f69747922206475723d22357322202076616c7565733d22302e34353b20302e3560e08201527f353b20302e37303b20302e38353b20313b20302e38353b20302e37303b20302e6101008201527f35353b20302e34352220726570656174436f756e743d22696e646566696e697461012082015268329110179f1e17b39f60b91b6101408201526101490190565b7f3c706174682069643d22446f6e6f7220496420426f726465722220207374726f81527f6b653d222330303030303022207374726f6b652d77696474683d223322206f7060208201527f61636974793d223930252220643d224d2031323720393020762033302068313660408201527f302076202d3330207a222066696c6c3d2223666666666666222f3e203c74657860608201527f742069643d22446f6e6f722049642220783d2233382220793d2231313022207360808201527f74796c653d22666f6e742d66616d696c793a4d6f6e6f73706163653b666f6e7460a08201527f2d73697a653a3135223e446f6e6f722049643a203c2f746578743e000000000060c082015260db0190565b7f3c746578742069643d2249642220783d223133352220793d223131302220737481527f796c653d22666f6e742d66616d696c793a4d6f6e6f73706163653b666f6e742d60208201526839b4bd329d189a911f60b91b604082015260490190565b856130df565b60208082526032908201527f4552433732313a207472616e7366657220746f206e6f6e20455243373231526560408201527131b2b4bb32b91034b6b83632b6b2b73a32b960711b606082015260800190565b6c426c6f6f642d442d4e4654202360981b815260008251613cd581600d8501602087016127d6565b91909101600d0192915050565b693d913730b6b2911d101160b11b81528351600090613d0881600a8501602089016127d6565b61088b60f21b600a918401918201527f20226465736372697074696f6e223a20224f6e2d436861696e20426c6f6f642d600c82015269110b5391951cc808488b60b21b602c8201526f202261747472696275746573223a205b60801b60368201528451613d7c8160468401602089016127d6565b61174b60f21b604692909101918201527f2022696d616765223a2022646174613a696d6167652f7376672b786d6c3b62616048820152641cd94d8d0b60da1b60688201528351613dd381606d8401602088016127d6565b6135e4606d8284010161227d60f01b815260020190565b7f646174613a6170706c69636174696f6e2f6a736f6e3b6261736536342c000000815260008251613e2281601d8501602087016127d6565b91909101601d0192915050565b7f416363657373436f6e74726f6c3a206163636f756e7420000000000000000000815260008351613e678160178501602088016127d6565b7001034b99036b4b9b9b4b733903937b6329607d1b6017918401918201528351613e988160288401602088016127d6565b01602801949350505050565b6001600160a01b0385811682528416602082015260408101839052608060608201819052600090612f0590830184612802565b600060208284031215613ee957600080fd5b815161279c816127a3565b7f7b2274726169745f74797065223a22426c6f6f642047726f7570222c20227661815265363ab2911d1160d11b602082015260008451613f3b8160268501602089016127d6565b62089f4b60ea1b6026918401918201527f7b2274726169745f74797065223a22556e697473222c202276616c7565223a2260298201528451613f848160498401602089016127d6565b7f227d2c7b22646973706c61795f74797065223a202264617465222c2022747261604992909101918201527f69745f74797065223a2022446f6e617465644f6e222c20000000000000000000606982015269113b30b63ab2911d101160b11b60808201528351613ffb81608a8401602088016127d6565b61227d60f01b608a9290910191820152608c0195945050505050565b60008261403457634e487b7160e01b600052601260045260246000fd5b500490565b600081600019048311821515161561405357614053612d7f565b500290565b634e487b7160e01b600052603260045260246000fd5b60008161407d5761407d612d7f565b50600019019056fe4142434445464748494a4b4c4d4e4f505152535455565758595a6162636465666768696a6b6c6d6e6f707172737475767778797a303132333435363738392b2fa2646970667358221220801e462fa30a76e2a0c2fe3f190ef9c181c8201055f20018bebef36e725dbd6964736f6c634300080f0033",
			"opcodes": "PUSH1 0x80 PUSH1 0x40 MSTORE PUSH1 0x1 PUSH1 0x9 SSTORE PUSH1 0x1 PUSH1 0xA SSTORE CALLVALUE DUP1 ISZERO PUSH3 0x1B JUMPI PUSH1 0x0 DUP1 REVERT JUMPDEST POP PUSH1 0x40 MLOAD DUP1 PUSH1 0x40 ADD PUSH1 0x40 MSTORE DUP1 PUSH1 0xB DUP2 MSTORE PUSH1 0x20 ADD PUSH11 0x109B1BDBD90B510B539195 PUSH1 0xAA SHL DUP2 MSTORE POP PUSH1 0x40 MLOAD DUP1 PUSH1 0x40 ADD PUSH1 0x40 MSTORE DUP1 PUSH1 0x5 DUP2 MSTORE PUSH1 0x20 ADD PUSH5 0x1091139195 PUSH1 0xDA SHL DUP2 MSTORE POP DUP2 PUSH1 0x0 SWAP1 DUP2 PUSH3 0x6F SWAP2 SWAP1 PUSH3 0x2A2 JUMP JUMPDEST POP PUSH1 0x1 PUSH3 0x7E DUP3 DUP3 PUSH3 0x2A2 JUMP JUMPDEST POP PUSH3 0x90 SWAP2 POP PUSH1 0x0 SWAP1 POP CALLER PUSH3 0x158 JUMP JUMPDEST PUSH3 0xBC PUSH32 0x408A36151F841709116A4E8ACA4E0202874F7F54687DCB863B1EA4672DC9D8CF CALLER PUSH3 0x158 JUMP JUMPDEST PUSH3 0xE8 PUSH32 0x9B2911D13DB5BDDE8D587A1771FCDC537B782DA47486C2D29B84A6733B5B2FAF CALLER PUSH3 0x158 JUMP JUMPDEST PUSH3 0x114 PUSH32 0x14CF45180C3FCF249A5A305E9657EA05C14FD4F4E1800EE0216A8213091711D2 CALLER PUSH3 0x158 JUMP JUMPDEST PUSH3 0x140 PUSH32 0xE2826FA762EF7EC7E6E85F07DBCEB31D45902F119DA8B0C6EB56B21CC29D90F3 CALLER PUSH3 0x158 JUMP JUMPDEST PUSH1 0x7 DUP1 SLOAD PUSH1 0x1 PUSH1 0x1 PUSH1 0xA0 SHL SUB NOT AND CALLER OR SWAP1 SSTORE PUSH3 0x36E JUMP JUMPDEST PUSH1 0x0 DUP3 DUP2 MSTORE PUSH1 0x6 PUSH1 0x20 SWAP1 DUP2 MSTORE PUSH1 0x40 DUP1 DUP4 KECCAK256 PUSH1 0x1 PUSH1 0x1 PUSH1 0xA0 SHL SUB DUP6 AND DUP5 MSTORE SWAP1 SWAP2 MSTORE SWAP1 KECCAK256 SLOAD PUSH1 0xFF AND PUSH3 0x1F9 JUMPI PUSH1 0x0 DUP3 DUP2 MSTORE PUSH1 0x6 PUSH1 0x20 SWAP1 DUP2 MSTORE PUSH1 0x40 DUP1 DUP4 KECCAK256 PUSH1 0x1 PUSH1 0x1 PUSH1 0xA0 SHL SUB DUP6 AND DUP5 MSTORE SWAP1 SWAP2 MSTORE SWAP1 KECCAK256 DUP1 SLOAD PUSH1 0xFF NOT AND PUSH1 0x1 OR SWAP1 SSTORE PUSH3 0x1B8 CALLER SWAP1 JUMP JUMPDEST PUSH1 0x1 PUSH1 0x1 PUSH1 0xA0 SHL SUB AND DUP2 PUSH1 0x1 PUSH1 0x1 PUSH1 0xA0 SHL SUB AND DUP4 PUSH32 0x2F8788117E7EFF1D82E926EC794901D17C78024A50270940304540A733656F0D PUSH1 0x40 MLOAD PUSH1 0x40 MLOAD DUP1 SWAP2 SUB SWAP1 LOG4 JUMPDEST POP POP JUMP JUMPDEST PUSH4 0x4E487B71 PUSH1 0xE0 SHL PUSH1 0x0 MSTORE PUSH1 0x41 PUSH1 0x4 MSTORE PUSH1 0x24 PUSH1 0x0 REVERT JUMPDEST PUSH1 0x1 DUP2 DUP2 SHR SWAP1 DUP3 AND DUP1 PUSH3 0x228 JUMPI PUSH1 0x7F DUP3 AND SWAP2 POP JUMPDEST PUSH1 0x20 DUP3 LT DUP2 SUB PUSH3 0x249 JUMPI PUSH4 0x4E487B71 PUSH1 0xE0 SHL PUSH1 0x0 MSTORE PUSH1 0x22 PUSH1 0x4 MSTORE PUSH1 0x24 PUSH1 0x0 REVERT JUMPDEST POP SWAP2 SWAP1 POP JUMP JUMPDEST PUSH1 0x1F DUP3 GT ISZERO PUSH3 0x29D JUMPI PUSH1 0x0 DUP2 DUP2 MSTORE PUSH1 0x20 DUP2 KECCAK256 PUSH1 0x1F DUP6 ADD PUSH1 0x5 SHR DUP2 ADD PUSH1 0x20 DUP7 LT ISZERO PUSH3 0x278 JUMPI POP DUP1 JUMPDEST PUSH1 0x1F DUP6 ADD PUSH1 0x5 SHR DUP3 ADD SWAP2 POP JUMPDEST DUP2 DUP2 LT ISZERO PUSH3 0x299 JUMPI DUP3 DUP2 SSTORE PUSH1 0x1 ADD PUSH3 0x284 JUMP JUMPDEST POP POP POP JUMPDEST POP POP POP JUMP JUMPDEST DUP2 MLOAD PUSH1 0x1 PUSH1 0x1 PUSH1 0x40 SHL SUB DUP2 GT ISZERO PUSH3 0x2BE JUMPI PUSH3 0x2BE PUSH3 0x1FD JUMP JUMPDEST PUSH3 0x2D6 DUP2 PUSH3 0x2CF DUP5 SLOAD PUSH3 0x213 JUMP JUMPDEST DUP5 PUSH3 0x24F JUMP JUMPDEST PUSH1 0x20 DUP1 PUSH1 0x1F DUP4 GT PUSH1 0x1 DUP2 EQ PUSH3 0x30E JUMPI PUSH1 0x0 DUP5 ISZERO PUSH3 0x2F5 JUMPI POP DUP6 DUP4 ADD MLOAD JUMPDEST PUSH1 0x0 NOT PUSH1 0x3 DUP7 SWAP1 SHL SHR NOT AND PUSH1 0x1 DUP6 SWAP1 SHL OR DUP6 SSTORE PUSH3 0x299 JUMP JUMPDEST PUSH1 0x0 DUP6 DUP2 MSTORE PUSH1 0x20 DUP2 KECCAK256 PUSH1 0x1F NOT DUP7 AND SWAP2 JUMPDEST DUP3 DUP2 LT ISZERO PUSH3 0x33F JUMPI DUP9 DUP7 ADD MLOAD DUP3 SSTORE SWAP5 DUP5 ADD SWAP5 PUSH1 0x1 SWAP1 SWAP2 ADD SWAP1 DUP5 ADD PUSH3 0x31E JUMP JUMPDEST POP DUP6 DUP3 LT ISZERO PUSH3 0x35E JUMPI DUP8 DUP6 ADD MLOAD PUSH1 0x0 NOT PUSH1 0x3 DUP9 SWAP1 SHL PUSH1 0xF8 AND SHR NOT AND DUP2 SSTORE JUMPDEST POP POP POP POP POP PUSH1 0x1 SWAP1 DUP2 SHL ADD SWAP1 SSTORE POP JUMP JUMPDEST PUSH2 0x40FB DUP1 PUSH3 0x37E PUSH1 0x0 CODECOPY PUSH1 0x0 RETURN INVALID PUSH1 0x80 PUSH1 0x40 MSTORE CALLVALUE DUP1 ISZERO PUSH2 0x10 JUMPI PUSH1 0x0 DUP1 REVERT JUMPDEST POP PUSH1 0x4 CALLDATASIZE LT PUSH2 0x25E JUMPI PUSH1 0x0 CALLDATALOAD PUSH1 0xE0 SHR DUP1 PUSH4 0x6DCEE4CA GT PUSH2 0x146 JUMPI DUP1 PUSH4 0xA1A1409B GT PUSH2 0xC3 JUMPI DUP1 PUSH4 0xBE55DC5F GT PUSH2 0x87 JUMPI DUP1 PUSH4 0xBE55DC5F EQ PUSH2 0x5C4 JUMPI DUP1 PUSH4 0xC57B47FC EQ PUSH2 0x5EC JUMPI DUP1 PUSH4 0xC87B56DD EQ PUSH2 0x5FF JUMPI DUP1 PUSH4 0xD547741F EQ PUSH2 0x612 JUMPI DUP1 PUSH4 0xE985E9C5 EQ PUSH2 0x625 JUMPI DUP1 PUSH4 0xEEC5F16A EQ PUSH2 0x661 JUMPI PUSH1 0x0 DUP1 REVERT JUMPDEST DUP1 PUSH4 0xA1A1409B EQ PUSH2 0x563 JUMPI DUP1 PUSH4 0xA217FDDF EQ PUSH2 0x583 JUMPI DUP1 PUSH4 0xA22CB465 EQ PUSH2 0x58B JUMPI DUP1 PUSH4 0xA3FBF07A EQ PUSH2 0x59E JUMPI DUP1 PUSH4 0xB88D4FDE EQ PUSH2 0x5B1 JUMPI PUSH1 0x0 DUP1 REVERT JUMPDEST DUP1 PUSH4 0x91D14854 GT PUSH2 0x10A JUMPI DUP1 PUSH4 0x91D14854 EQ PUSH2 0x4EE JUMPI DUP1 PUSH4 0x9338E33E EQ PUSH2 0x501 JUMPI DUP1 PUSH4 0x95D89B41 EQ PUSH2 0x521 JUMPI DUP1 PUSH4 0x99831C7C EQ PUSH2 0x529 JUMPI DUP1 PUSH4 0x9CA39AE9 EQ PUSH2 0x53C JUMPI PUSH1 0x0 DUP1 REVERT JUMPDEST DUP1 PUSH4 0x6DCEE4CA EQ PUSH2 0x499 JUMPI DUP1 PUSH4 0x70A08231 EQ PUSH2 0x4AC JUMPI DUP1 PUSH4 0x71134E5F EQ PUSH2 0x4BF JUMPI DUP1 PUSH4 0x75D9D3D6 EQ PUSH2 0x4C8 JUMPI DUP1 PUSH4 0x8DA5CB5B EQ PUSH2 0x4DB JUMPI PUSH1 0x0 DUP1 REVERT JUMPDEST DUP1 PUSH4 0x2F2FF15D GT PUSH2 0x1DF JUMPI DUP1 PUSH4 0x3A7A5B7D GT PUSH2 0x1A3 JUMPI DUP1 PUSH4 0x3A7A5B7D EQ PUSH2 0x3FC JUMPI DUP1 PUSH4 0x4245962B EQ PUSH2 0x41C JUMPI DUP1 PUSH4 0x42842E0E EQ PUSH2 0x443 JUMPI DUP1 PUSH4 0x58B34066 EQ PUSH2 0x456 JUMPI DUP1 PUSH4 0x61F38A30 EQ PUSH2 0x45F JUMPI DUP1 PUSH4 0x6352211E EQ PUSH2 0x486 JUMPI PUSH1 0x0 DUP1 REVERT JUMPDEST DUP1 PUSH4 0x2F2FF15D EQ PUSH2 0x37C JUMPI DUP1 PUSH4 0x30EF266C EQ PUSH2 0x38F JUMPI DUP1 PUSH4 0x312C4C27 EQ PUSH2 0x3B6 JUMPI DUP1 PUSH4 0x36568ABE EQ PUSH2 0x3D6 JUMPI DUP1 PUSH4 0x38369655 EQ PUSH2 0x3E9 JUMPI PUSH1 0x0 DUP1 REVERT JUMPDEST DUP1 PUSH4 0x13FF2752 GT PUSH2 0x226 JUMPI DUP1 PUSH4 0x13FF2752 EQ PUSH2 0x2F3 JUMPI DUP1 PUSH4 0x21E62A07 EQ PUSH2 0x30A JUMPI DUP1 PUSH4 0x23B872DD EQ PUSH2 0x333 JUMPI DUP1 PUSH4 0x248A9CA3 EQ PUSH2 0x346 JUMPI DUP1 PUSH4 0x25BA8BFC EQ PUSH2 0x369 JUMPI PUSH1 0x0 DUP1 REVERT JUMPDEST DUP1 PUSH4 0x1FFC9A7 EQ PUSH2 0x263 JUMPI DUP1 PUSH4 0x6FDDE03 EQ PUSH2 0x28B JUMPI DUP1 PUSH4 0x81812FC EQ PUSH2 0x2A0 JUMPI DUP1 PUSH4 0x95EA7B3 EQ PUSH2 0x2CB JUMPI DUP1 PUSH4 0xEA0A763 EQ PUSH2 0x2E0 JUMPI JUMPDEST PUSH1 0x0 DUP1 REVERT JUMPDEST PUSH2 0x276 PUSH2 0x271 CALLDATASIZE PUSH1 0x4 PUSH2 0x27B9 JUMP JUMPDEST PUSH2 0x686 JUMP JUMPDEST PUSH1 0x40 MLOAD SWAP1 ISZERO ISZERO DUP2 MSTORE PUSH1 0x20 ADD JUMPDEST PUSH1 0x40 MLOAD DUP1 SWAP2 SUB SWAP1 RETURN JUMPDEST PUSH2 0x293 PUSH2 0x697 JUMP JUMPDEST PUSH1 0x40 MLOAD PUSH2 0x282 SWAP2 SWAP1 PUSH2 0x282E JUMP JUMPDEST PUSH2 0x2B3 PUSH2 0x2AE CALLDATASIZE PUSH1 0x4 PUSH2 0x2841 JUMP JUMPDEST PUSH2 0x729 JUMP JUMPDEST PUSH1 0x40 MLOAD PUSH1 0x1 PUSH1 0x1 PUSH1 0xA0 SHL SUB SWAP1 SWAP2 AND DUP2 MSTORE PUSH1 0x20 ADD PUSH2 0x282 JUMP JUMPDEST PUSH2 0x2DE PUSH2 0x2D9 CALLDATASIZE PUSH1 0x4 PUSH2 0x2876 JUMP JUMPDEST PUSH2 0x750 JUMP JUMPDEST STOP JUMPDEST PUSH2 0x2DE PUSH2 0x2EE CALLDATASIZE PUSH1 0x4 PUSH2 0x28E9 JUMP JUMPDEST PUSH2 0x86A JUMP JUMPDEST PUSH2 0x2FC PUSH1 0x9 SLOAD DUP2 JUMP JUMPDEST PUSH1 0x40 MLOAD SWAP1 DUP2 MSTORE PUSH1 0x20 ADD PUSH2 0x282 JUMP JUMPDEST PUSH2 0x2FC PUSH2 0x318 CALLDATASIZE PUSH1 0x4 PUSH2 0x293C JUMP JUMPDEST PUSH1 0x1 PUSH1 0x1 PUSH1 0xA0 SHL SUB AND PUSH1 0x0 SWAP1 DUP2 MSTORE PUSH1 0xE PUSH1 0x20 MSTORE PUSH1 0x40 SWAP1 KECCAK256 SLOAD SWAP1 JUMP JUMPDEST PUSH2 0x2DE PUSH2 0x341 CALLDATASIZE PUSH1 0x4 PUSH2 0x2957 JUMP JUMPDEST PUSH2 0x9F9 JUMP JUMPDEST PUSH2 0x2FC PUSH2 0x354 CALLDATASIZE PUSH1 0x4 PUSH2 0x2841 JUMP JUMPDEST PUSH1 0x0 SWAP1 DUP2 MSTORE PUSH1 0x6 PUSH1 0x20 MSTORE PUSH1 0x40 SWAP1 KECCAK256 PUSH1 0x1 ADD SLOAD SWAP1 JUMP JUMPDEST PUSH2 0x2FC PUSH2 0x377 CALLDATASIZE PUSH1 0x4 PUSH2 0x2993 JUMP JUMPDEST PUSH2 0xA2A JUMP JUMPDEST PUSH2 0x2DE PUSH2 0x38A CALLDATASIZE PUSH1 0x4 PUSH2 0x29DF JUMP JUMPDEST PUSH2 0xDAD JUMP JUMPDEST PUSH2 0x2FC PUSH32 0xE2826FA762EF7EC7E6E85F07DBCEB31D45902F119DA8B0C6EB56B21CC29D90F3 DUP2 JUMP JUMPDEST PUSH2 0x2FC PUSH2 0x3C4 CALLDATASIZE PUSH1 0x4 PUSH2 0x2841 JUMP JUMPDEST PUSH1 0xC PUSH1 0x20 MSTORE PUSH1 0x0 SWAP1 DUP2 MSTORE PUSH1 0x40 SWAP1 KECCAK256 SLOAD DUP2 JUMP JUMPDEST PUSH2 0x2DE PUSH2 0x3E4 CALLDATASIZE PUSH1 0x4 PUSH2 0x29DF JUMP JUMPDEST PUSH2 0xDD2 JUMP JUMPDEST PUSH2 0x2DE PUSH2 0x3F7 CALLDATASIZE PUSH1 0x4 PUSH2 0x2A1B JUMP JUMPDEST PUSH2 0xE50 JUMP JUMPDEST PUSH2 0x2FC PUSH2 0x40A CALLDATASIZE PUSH1 0x4 PUSH2 0x293C JUMP JUMPDEST PUSH1 0xE PUSH1 0x20 MSTORE PUSH1 0x0 SWAP1 DUP2 MSTORE PUSH1 0x40 SWAP1 KECCAK256 SLOAD DUP2 JUMP JUMPDEST PUSH2 0x2FC PUSH32 0x408A36151F841709116A4E8ACA4E0202874F7F54687DCB863B1EA4672DC9D8CF DUP2 JUMP JUMPDEST PUSH2 0x2DE PUSH2 0x451 CALLDATASIZE PUSH1 0x4 PUSH2 0x2957 JUMP JUMPDEST PUSH2 0x1042 JUMP JUMPDEST PUSH2 0x2FC PUSH1 0xA SLOAD DUP2 JUMP JUMPDEST PUSH2 0x2FC PUSH32 0x9B2911D13DB5BDDE8D587A1771FCDC537B782DA47486C2D29B84A6733B5B2FAF DUP2 JUMP JUMPDEST PUSH2 0x2B3 PUSH2 0x494 CALLDATASIZE PUSH1 0x4 PUSH2 0x2841 JUMP JUMPDEST PUSH2 0x105D JUMP JUMPDEST PUSH2 0x293 PUSH2 0x4A7 CALLDATASIZE PUSH1 0x4 PUSH2 0x2841 JUMP JUMPDEST PUSH2 0x10BD JUMP JUMPDEST PUSH2 0x2FC PUSH2 0x4BA CALLDATASIZE PUSH1 0x4 PUSH2 0x293C JUMP JUMPDEST PUSH2 0x1116 JUMP JUMPDEST PUSH2 0x2FC PUSH1 0x8 SLOAD DUP2 JUMP JUMPDEST PUSH2 0x2DE PUSH2 0x4D6 CALLDATASIZE PUSH1 0x4 PUSH2 0x2A1B JUMP JUMPDEST PUSH2 0x119C JUMP JUMPDEST PUSH1 0x7 SLOAD PUSH2 0x2B3 SWAP1 PUSH1 0x1 PUSH1 0x1 PUSH1 0xA0 SHL SUB AND DUP2 JUMP JUMPDEST PUSH2 0x276 PUSH2 0x4FC CALLDATASIZE PUSH1 0x4 PUSH2 0x29DF JUMP JUMPDEST PUSH2 0x128D JUMP JUMPDEST PUSH2 0x2FC PUSH2 0x50F CALLDATASIZE PUSH1 0x4 PUSH2 0x2841 JUMP JUMPDEST PUSH1 0xD PUSH1 0x20 MSTORE PUSH1 0x0 SWAP1 DUP2 MSTORE PUSH1 0x40 SWAP1 KECCAK256 SLOAD DUP2 JUMP JUMPDEST PUSH2 0x293 PUSH2 0x12B8 JUMP JUMPDEST PUSH2 0x2FC PUSH2 0x537 CALLDATASIZE PUSH1 0x4 PUSH2 0x2ACA JUMP JUMPDEST PUSH2 0x12C7 JUMP JUMPDEST PUSH2 0x2FC PUSH32 0x14CF45180C3FCF249A5A305E9657EA05C14FD4F4E1800EE0216A8213091711D2 DUP2 JUMP JUMPDEST PUSH2 0x2FC PUSH2 0x571 CALLDATASIZE PUSH1 0x4 PUSH2 0x2841 JUMP JUMPDEST PUSH1 0x10 PUSH1 0x20 MSTORE PUSH1 0x0 SWAP1 DUP2 MSTORE PUSH1 0x40 SWAP1 KECCAK256 SLOAD DUP2 JUMP JUMPDEST PUSH2 0x2FC PUSH1 0x0 DUP2 JUMP JUMPDEST PUSH2 0x2DE PUSH2 0x599 CALLDATASIZE PUSH1 0x4 PUSH2 0x2B35 JUMP JUMPDEST PUSH2 0x144A JUMP JUMPDEST PUSH2 0x276 PUSH2 0x5AC CALLDATASIZE PUSH1 0x4 PUSH2 0x2B5F JUMP JUMPDEST PUSH2 0x1455 JUMP JUMPDEST PUSH2 0x2DE PUSH2 0x5BF CALLDATASIZE PUSH1 0x4 PUSH2 0x2B81 JUMP JUMPDEST PUSH2 0x14EC JUMP JUMPDEST PUSH2 0x5D7 PUSH2 0x5D2 CALLDATASIZE PUSH1 0x4 PUSH2 0x2841 JUMP JUMPDEST PUSH2 0x1524 JUMP JUMPDEST PUSH1 0x40 MLOAD PUSH2 0x282 SWAP10 SWAP9 SWAP8 SWAP7 SWAP6 SWAP5 SWAP4 SWAP3 SWAP2 SWAP1 PUSH2 0x2C13 JUMP JUMPDEST PUSH2 0x2DE PUSH2 0x5FA CALLDATASIZE PUSH1 0x4 PUSH2 0x2A1B JUMP JUMPDEST PUSH2 0x1708 JUMP JUMPDEST PUSH2 0x293 PUSH2 0x60D CALLDATASIZE PUSH1 0x4 PUSH2 0x2841 JUMP JUMPDEST PUSH2 0x183F JUMP JUMPDEST PUSH2 0x2DE PUSH2 0x620 CALLDATASIZE PUSH1 0x4 PUSH2 0x29DF JUMP JUMPDEST PUSH2 0x184A JUMP JUMPDEST PUSH2 0x276 PUSH2 0x633 CALLDATASIZE PUSH1 0x4 PUSH2 0x2CA3 JUMP JUMPDEST PUSH1 0x1 PUSH1 0x1 PUSH1 0xA0 SHL SUB SWAP2 DUP3 AND PUSH1 0x0 SWAP1 DUP2 MSTORE PUSH1 0x5 PUSH1 0x20 SWAP1 DUP2 MSTORE PUSH1 0x40 DUP1 DUP4 KECCAK256 SWAP4 SWAP1 SWAP5 AND DUP3 MSTORE SWAP2 SWAP1 SWAP2 MSTORE KECCAK256 SLOAD PUSH1 0xFF AND SWAP1 JUMP JUMPDEST PUSH2 0x674 PUSH2 0x66F CALLDATASIZE PUSH1 0x4 PUSH2 0x2841 JUMP JUMPDEST PUSH2 0x186F JUMP JUMPDEST PUSH1 0x40 MLOAD PUSH2 0x282 SWAP7 SWAP6 SWAP5 SWAP4 SWAP3 SWAP2 SWAP1 PUSH2 0x2CCD JUMP JUMPDEST PUSH1 0x0 PUSH2 0x691 DUP3 PUSH2 0x193B JUMP JUMPDEST SWAP3 SWAP2 POP POP JUMP JUMPDEST PUSH1 0x60 PUSH1 0x0 DUP1 SLOAD PUSH2 0x6A6 SWAP1 PUSH2 0x2D15 JUMP JUMPDEST DUP1 PUSH1 0x1F ADD PUSH1 0x20 DUP1 SWAP2 DIV MUL PUSH1 0x20 ADD PUSH1 0x40 MLOAD SWAP1 DUP2 ADD PUSH1 0x40 MSTORE DUP1 SWAP3 SWAP2 SWAP1 DUP2 DUP2 MSTORE PUSH1 0x20 ADD DUP3 DUP1 SLOAD PUSH2 0x6D2 SWAP1 PUSH2 0x2D15 JUMP JUMPDEST DUP1 ISZERO PUSH2 0x71F JUMPI DUP1 PUSH1 0x1F LT PUSH2 0x6F4 JUMPI PUSH2 0x100 DUP1 DUP4 SLOAD DIV MUL DUP4 MSTORE SWAP2 PUSH1 0x20 ADD SWAP2 PUSH2 0x71F JUMP JUMPDEST DUP3 ADD SWAP2 SWAP1 PUSH1 0x0 MSTORE PUSH1 0x20 PUSH1 0x0 KECCAK256 SWAP1 JUMPDEST DUP2 SLOAD DUP2 MSTORE SWAP1 PUSH1 0x1 ADD SWAP1 PUSH1 0x20 ADD DUP1 DUP4 GT PUSH2 0x702 JUMPI DUP3 SWAP1 SUB PUSH1 0x1F AND DUP3 ADD SWAP2 JUMPDEST POP POP POP POP POP SWAP1 POP SWAP1 JUMP JUMPDEST PUSH1 0x0 PUSH2 0x734 DUP3 PUSH2 0x1960 JUMP JUMPDEST POP PUSH1 0x0 SWAP1 DUP2 MSTORE PUSH1 0x4 PUSH1 0x20 MSTORE PUSH1 0x40 SWAP1 KECCAK256 SLOAD PUSH1 0x1 PUSH1 0x1 PUSH1 0xA0 SHL SUB AND SWAP1 JUMP JUMPDEST PUSH1 0x0 PUSH2 0x75B DUP3 PUSH2 0x105D JUMP JUMPDEST SWAP1 POP DUP1 PUSH1 0x1 PUSH1 0x1 PUSH1 0xA0 SHL SUB AND DUP4 PUSH1 0x1 PUSH1 0x1 PUSH1 0xA0 SHL SUB AND SUB PUSH2 0x7CD JUMPI PUSH1 0x40 MLOAD PUSH3 0x461BCD PUSH1 0xE5 SHL DUP2 MSTORE PUSH1 0x20 PUSH1 0x4 DUP3 ADD MSTORE PUSH1 0x21 PUSH1 0x24 DUP3 ADD MSTORE PUSH32 0x4552433732313A20617070726F76616C20746F2063757272656E74206F776E65 PUSH1 0x44 DUP3 ADD MSTORE PUSH1 0x39 PUSH1 0xF9 SHL PUSH1 0x64 DUP3 ADD MSTORE PUSH1 0x84 ADD JUMPDEST PUSH1 0x40 MLOAD DUP1 SWAP2 SUB SWAP1 REVERT JUMPDEST CALLER PUSH1 0x1 PUSH1 0x1 PUSH1 0xA0 SHL SUB DUP3 AND EQ DUP1 PUSH2 0x7E9 JUMPI POP PUSH2 0x7E9 DUP2 CALLER PUSH2 0x633 JUMP JUMPDEST PUSH2 0x85B JUMPI PUSH1 0x40 MLOAD PUSH3 0x461BCD PUSH1 0xE5 SHL DUP2 MSTORE PUSH1 0x20 PUSH1 0x4 DUP3 ADD MSTORE PUSH1 0x3D PUSH1 0x24 DUP3 ADD MSTORE PUSH32 0x4552433732313A20617070726F76652063616C6C6572206973206E6F7420746F PUSH1 0x44 DUP3 ADD MSTORE PUSH32 0x6B656E206F776E6572206F7220617070726F76656420666F7220616C6C000000 PUSH1 0x64 DUP3 ADD MSTORE PUSH1 0x84 ADD PUSH2 0x7C4 JUMP JUMPDEST PUSH2 0x865 DUP4 DUP4 PUSH2 0x19C2 JUMP JUMPDEST POP POP POP JUMP JUMPDEST PUSH32 0x14CF45180C3FCF249A5A305E9657EA05C14FD4F4E1800EE0216A8213091711D2 PUSH2 0x894 DUP2 PUSH2 0x1A30 JUMP JUMPDEST PUSH1 0x4 PUSH1 0x0 DUP7 DUP2 MSTORE PUSH1 0xF PUSH1 0x20 MSTORE PUSH1 0x40 SWAP1 KECCAK256 PUSH1 0x8 SWAP1 DUP2 ADD SLOAD PUSH1 0xFF AND SWAP1 DUP2 GT ISZERO PUSH2 0x8BD JUMPI PUSH2 0x8BD PUSH2 0x2BFD JUMP JUMPDEST EQ PUSH2 0x8DA JUMPI PUSH1 0x40 MLOAD PUSH3 0x461BCD PUSH1 0xE5 SHL DUP2 MSTORE PUSH1 0x4 ADD PUSH2 0x7C4 SWAP1 PUSH2 0x2D4F JUMP JUMPDEST PUSH1 0x0 DUP5 GT PUSH2 0x922 JUMPI PUSH1 0x40 MLOAD PUSH3 0x461BCD PUSH1 0xE5 SHL DUP2 MSTORE PUSH1 0x20 PUSH1 0x4 DUP3 ADD MSTORE PUSH1 0x15 PUSH1 0x24 DUP3 ADD MSTORE PUSH21 0x125B9D985B1A5908105B5BDD5B9D081C185CDCD959 PUSH1 0x5A SHL PUSH1 0x44 DUP3 ADD MSTORE PUSH1 0x64 ADD PUSH2 0x7C4 JUMP JUMPDEST PUSH1 0x0 DUP6 DUP2 MSTORE PUSH1 0xF PUSH1 0x20 SWAP1 DUP2 MSTORE PUSH1 0x40 DUP1 DUP4 KECCAK256 SLOAD DUP4 MSTORE PUSH1 0xB SWAP1 SWAP2 MSTORE DUP2 KECCAK256 PUSH1 0x3 ADD DUP1 SLOAD DUP7 SWAP3 SWAP1 PUSH2 0x950 SWAP1 DUP5 SWAP1 PUSH2 0x2D95 JUMP JUMPDEST SWAP3 POP POP DUP2 SWAP1 SSTORE POP DUP4 PUSH1 0x8 PUSH1 0x0 DUP3 DUP3 SLOAD PUSH2 0x969 SWAP2 SWAP1 PUSH2 0x2D95 JUMP JUMPDEST SWAP1 SWAP2 SSTORE POP POP PUSH1 0x0 DUP6 DUP2 MSTORE PUSH1 0xF PUSH1 0x20 MSTORE PUSH1 0x40 SWAP1 KECCAK256 PUSH1 0x7 DUP2 ADD DUP6 SWAP1 SSTORE TIMESTAMP PUSH1 0x4 DUP3 ADD SSTORE PUSH1 0x5 ADD PUSH2 0x997 DUP4 DUP6 DUP4 PUSH2 0x2DFB JUMP JUMPDEST POP PUSH1 0x0 DUP6 DUP2 MSTORE PUSH1 0xF PUSH1 0x20 MSTORE PUSH1 0x40 SWAP1 DUP2 SWAP1 KECCAK256 PUSH1 0x8 ADD DUP1 SLOAD PUSH1 0xFF NOT AND PUSH1 0x6 OR SWAP1 SSTORE MLOAD PUSH32 0xCBB512A7560A1890CF7FE36BF19B38820EDF419952DEBD1C2B5D1C252A2E903A SWAP1 PUSH2 0x9EA SWAP1 DUP8 SWAP1 DUP8 SWAP1 DUP8 SWAP1 DUP8 SWAP1 PUSH2 0x2EE5 JUMP JUMPDEST PUSH1 0x40 MLOAD DUP1 SWAP2 SUB SWAP1 LOG1 POP POP POP POP POP JUMP JUMPDEST PUSH2 0xA03 CALLER DUP3 PUSH2 0x1A3A JUMP JUMPDEST PUSH2 0xA1F JUMPI PUSH1 0x40 MLOAD PUSH3 0x461BCD PUSH1 0xE5 SHL DUP2 MSTORE PUSH1 0x4 ADD PUSH2 0x7C4 SWAP1 PUSH2 0x2F0F JUMP JUMPDEST PUSH2 0x865 DUP4 DUP4 DUP4 PUSH2 0x1AB9 JUMP JUMPDEST PUSH1 0x0 DUP4 DUP2 MSTORE PUSH1 0xB PUSH1 0x20 MSTORE PUSH1 0x40 DUP2 KECCAK256 SLOAD DUP2 SUB PUSH2 0xA87 JUMPI PUSH1 0x40 MLOAD PUSH3 0x461BCD PUSH1 0xE5 SHL DUP2 MSTORE PUSH1 0x20 PUSH1 0x4 DUP3 ADD MSTORE PUSH1 0x1E PUSH1 0x24 DUP3 ADD MSTORE PUSH32 0x506C6561736520456E726F6C6C206265666F7265206170706C79696E67210000 PUSH1 0x44 DUP3 ADD MSTORE PUSH1 0x64 ADD PUSH2 0x7C4 JUMP JUMPDEST PUSH1 0x0 DUP5 DUP2 MSTORE PUSH1 0x10 PUSH1 0x20 MSTORE PUSH1 0x40 SWAP1 KECCAK256 SLOAD ISZERO PUSH2 0xAE3 JUMPI PUSH1 0x40 MLOAD PUSH3 0x461BCD PUSH1 0xE5 SHL DUP2 MSTORE PUSH1 0x20 PUSH1 0x4 DUP3 ADD MSTORE PUSH1 0x1F PUSH1 0x24 DUP3 ADD MSTORE PUSH32 0x4170706C69636174696F6E20616C726561647920696E2070726F677265737300 PUSH1 0x44 DUP3 ADD MSTORE PUSH1 0x64 ADD PUSH2 0x7C4 JUMP JUMPDEST PUSH1 0x0 DUP5 DUP2 MSTORE PUSH1 0xB PUSH1 0x20 MSTORE PUSH1 0x40 SWAP1 KECCAK256 PUSH1 0x4 ADD SLOAD PUSH1 0x1 PUSH1 0x1 PUSH1 0xA0 SHL SUB AND CALLER EQ DUP1 PUSH2 0xB15 JUMPI POP PUSH1 0x7 SLOAD PUSH1 0x1 PUSH1 0x1 PUSH1 0xA0 SHL SUB AND CALLER EQ JUMPDEST PUSH2 0xB57 JUMPI PUSH1 0x40 MLOAD PUSH3 0x461BCD PUSH1 0xE5 SHL DUP2 MSTORE PUSH1 0x20 PUSH1 0x4 DUP3 ADD MSTORE PUSH1 0x13 PUSH1 0x24 DUP3 ADD MSTORE PUSH19 0x556E617574686F72697A656420616363657373 PUSH1 0x68 SHL PUSH1 0x44 DUP3 ADD MSTORE PUSH1 0x64 ADD PUSH2 0x7C4 JUMP JUMPDEST PUSH1 0x0 DUP5 DUP2 MSTORE PUSH1 0xB PUSH1 0x20 MSTORE PUSH1 0x40 DUP2 KECCAK256 PUSH1 0x2 ADD DUP1 SLOAD PUSH2 0xB73 SWAP1 PUSH2 0x2D15 JUMP JUMPDEST DUP1 PUSH1 0x1F ADD PUSH1 0x20 DUP1 SWAP2 DIV MUL PUSH1 0x20 ADD PUSH1 0x40 MLOAD SWAP1 DUP2 ADD PUSH1 0x40 MSTORE DUP1 SWAP3 SWAP2 SWAP1 DUP2 DUP2 MSTORE PUSH1 0x20 ADD DUP3 DUP1 SLOAD PUSH2 0xB9F SWAP1 PUSH2 0x2D15 JUMP JUMPDEST DUP1 ISZERO PUSH2 0xBEC JUMPI DUP1 PUSH1 0x1F LT PUSH2 0xBC1 JUMPI PUSH2 0x100 DUP1 DUP4 SLOAD DIV MUL DUP4 MSTORE SWAP2 PUSH1 0x20 ADD SWAP2 PUSH2 0xBEC JUMP JUMPDEST DUP3 ADD SWAP2 SWAP1 PUSH1 0x0 MSTORE PUSH1 0x20 PUSH1 0x0 KECCAK256 SWAP1 JUMPDEST DUP2 SLOAD DUP2 MSTORE SWAP1 PUSH1 0x1 ADD SWAP1 PUSH1 0x20 ADD DUP1 DUP4 GT PUSH2 0xBCF JUMPI DUP3 SWAP1 SUB PUSH1 0x1F AND DUP3 ADD SWAP2 JUMPDEST POP POP POP POP POP SWAP1 POP PUSH1 0x0 PUSH1 0xA SLOAD SWAP1 POP PUSH1 0x0 PUSH1 0x40 MLOAD DUP1 PUSH2 0x120 ADD PUSH1 0x40 MSTORE DUP1 DUP9 DUP2 MSTORE PUSH1 0x20 ADD DUP8 DUP8 DUP1 DUP1 PUSH1 0x1F ADD PUSH1 0x20 DUP1 SWAP2 DIV MUL PUSH1 0x20 ADD PUSH1 0x40 MLOAD SWAP1 DUP2 ADD PUSH1 0x40 MSTORE DUP1 SWAP4 SWAP3 SWAP2 SWAP1 DUP2 DUP2 MSTORE PUSH1 0x20 ADD DUP4 DUP4 DUP1 DUP3 DUP5 CALLDATACOPY PUSH1 0x0 SWAP3 ADD DUP3 SWAP1 MSTORE POP SWAP4 DUP6 MSTORE POP POP POP PUSH1 0x20 DUP1 DUP4 ADD DUP8 SWAP1 MSTORE TIMESTAMP PUSH1 0x40 DUP1 DUP6 ADD SWAP2 SWAP1 SWAP2 MSTORE PUSH1 0x60 DUP5 ADD DUP4 SWAP1 MSTORE DUP1 MLOAD DUP1 DUP3 ADD DUP3 MSTORE PUSH1 0xA DUP2 MSTORE PUSH10 0x30302D30302D3030303 PUSH1 0xB4 SHL DUP2 DUP5 ADD MSTORE PUSH1 0x80 DUP6 ADD MSTORE PUSH1 0xA0 DUP5 ADD DUP4 SWAP1 MSTORE PUSH1 0xC0 DUP5 ADD DUP4 SWAP1 MSTORE PUSH1 0xE0 SWAP1 SWAP4 ADD DUP3 SWAP1 MSTORE DUP6 DUP3 MSTORE PUSH1 0xF DUP2 MSTORE SWAP2 SWAP1 KECCAK256 DUP3 MLOAD DUP2 SSTORE SWAP1 DUP3 ADD MLOAD SWAP2 SWAP3 POP DUP3 SWAP2 PUSH1 0x1 DUP3 ADD SWAP1 PUSH2 0xCBD SWAP1 DUP3 PUSH2 0x2F5C JUMP JUMPDEST POP PUSH1 0x40 DUP3 ADD MLOAD PUSH1 0x2 DUP3 ADD SWAP1 PUSH2 0xCD2 SWAP1 DUP3 PUSH2 0x2F5C JUMP JUMPDEST POP PUSH1 0x60 DUP3 ADD MLOAD PUSH1 0x3 DUP3 ADD SSTORE PUSH1 0x80 DUP3 ADD MLOAD PUSH1 0x4 DUP3 ADD SSTORE PUSH1 0xA0 DUP3 ADD MLOAD PUSH1 0x5 DUP3 ADD SWAP1 PUSH2 0xCFB SWAP1 DUP3 PUSH2 0x2F5C JUMP JUMPDEST POP PUSH1 0xC0 DUP3 ADD MLOAD DUP2 PUSH1 0x6 ADD SSTORE PUSH1 0xE0 DUP3 ADD MLOAD DUP2 PUSH1 0x7 ADD SSTORE PUSH2 0x100 DUP3 ADD MLOAD DUP2 PUSH1 0x8 ADD PUSH1 0x0 PUSH2 0x100 EXP DUP2 SLOAD DUP2 PUSH1 0xFF MUL NOT AND SWAP1 DUP4 PUSH1 0x8 DUP2 GT ISZERO PUSH2 0xD3B JUMPI PUSH2 0xD3B PUSH2 0x2BFD JUMP JUMPDEST MUL OR SWAP1 SSTORE POP POP POP PUSH1 0x0 DUP8 DUP2 MSTORE PUSH1 0x10 PUSH1 0x20 MSTORE PUSH1 0x40 DUP2 KECCAK256 DUP4 SWAP1 SSTORE PUSH1 0xA DUP1 SLOAD SWAP2 PUSH2 0xD61 DUP4 PUSH2 0x301C JUMP JUMPDEST SWAP2 SWAP1 POP SSTORE POP PUSH32 0xD22CEF3B05C6BE6172630D0F863A3726DBCDDA9C9BB3226E95144027E981C94E DUP8 DUP8 DUP8 DUP6 PUSH1 0x40 MLOAD PUSH2 0xD9B SWAP5 SWAP4 SWAP3 SWAP2 SWAP1 PUSH2 0x3035 JUMP JUMPDEST PUSH1 0x40 MLOAD DUP1 SWAP2 SUB SWAP1 LOG1 POP SWAP6 SWAP5 POP POP POP POP POP JUMP JUMPDEST PUSH1 0x0 DUP3 DUP2 MSTORE PUSH1 0x6 PUSH1 0x20 MSTORE PUSH1 0x40 SWAP1 KECCAK256 PUSH1 0x1 ADD SLOAD PUSH2 0xDC8 DUP2 PUSH2 0x1A30 JUMP JUMPDEST PUSH2 0x865 DUP4 DUP4 PUSH2 0x1C1D JUMP JUMPDEST PUSH1 0x1 PUSH1 0x1 PUSH1 0xA0 SHL SUB DUP2 AND CALLER EQ PUSH2 0xE42 JUMPI PUSH1 0x40 MLOAD PUSH3 0x461BCD PUSH1 0xE5 SHL DUP2 MSTORE PUSH1 0x20 PUSH1 0x4 DUP3 ADD MSTORE PUSH1 0x2F PUSH1 0x24 DUP3 ADD MSTORE PUSH32 0x416363657373436F6E74726F6C3A2063616E206F6E6C792072656E6F756E6365 PUSH1 0x44 DUP3 ADD MSTORE PUSH15 0x103937B632B9903337B91039B2B633 PUSH1 0x89 SHL PUSH1 0x64 DUP3 ADD MSTORE PUSH1 0x84 ADD PUSH2 0x7C4 JUMP JUMPDEST PUSH2 0xE4C DUP3 DUP3 PUSH2 0x1CA3 JUMP JUMPDEST POP POP JUMP JUMPDEST PUSH32 0x14CF45180C3FCF249A5A305E9657EA05C14FD4F4E1800EE0216A8213091711D2 PUSH2 0xE7A DUP2 PUSH2 0x1A30 JUMP JUMPDEST PUSH1 0x6 PUSH1 0x0 DUP5 DUP2 MSTORE PUSH1 0xF PUSH1 0x20 MSTORE PUSH1 0x40 SWAP1 KECCAK256 PUSH1 0x8 SWAP1 DUP2 ADD SLOAD PUSH1 0xFF AND SWAP1 DUP2 GT ISZERO PUSH2 0xEA3 JUMPI PUSH2 0xEA3 PUSH2 0x2BFD JUMP JUMPDEST EQ PUSH2 0xEC0 JUMPI PUSH1 0x40 MLOAD PUSH3 0x461BCD PUSH1 0xE5 SHL DUP2 MSTORE PUSH1 0x4 ADD PUSH2 0x7C4 SWAP1 PUSH2 0x2D4F JUMP JUMPDEST DUP2 ISZERO PUSH2 0x100C JUMPI PUSH1 0x0 DUP4 DUP2 MSTORE PUSH1 0xF PUSH1 0x20 SWAP1 DUP2 MSTORE PUSH1 0x40 DUP1 DUP4 KECCAK256 PUSH1 0x8 DUP1 DUP3 ADD DUP1 SLOAD PUSH1 0xFF NOT AND SWAP1 SWAP2 OR SWAP1 SSTORE DUP1 SLOAD DUP1 DUP6 MSTORE PUSH1 0x10 DUP5 MSTORE DUP3 DUP6 KECCAK256 DUP6 SWAP1 SSTORE SWAP1 SLOAD DUP5 MSTORE PUSH1 0xB SWAP1 SWAP3 MSTORE SWAP1 SWAP2 KECCAK256 PUSH1 0x4 ADD SLOAD PUSH1 0x1 PUSH1 0x1 PUSH1 0xA0 SHL SUB AND PUSH2 0xF19 DUP2 DUP7 PUSH2 0x1D0A JUMP JUMPDEST PUSH1 0x0 DUP6 DUP2 MSTORE PUSH1 0xF PUSH1 0x20 MSTORE PUSH1 0x40 DUP1 DUP3 KECCAK256 PUSH1 0x7 DUP2 ADD SLOAD SWAP2 MLOAD SWAP2 SWAP3 SWAP2 PUSH2 0xF3F SWAP2 PUSH1 0x2 ADD SWAP1 PUSH2 0x30D3 JUMP JUMPDEST PUSH1 0x40 DUP1 MLOAD SWAP2 DUP3 SWAP1 SUB DUP3 KECCAK256 DUP3 DUP3 ADD SWAP1 SWAP2 MSTORE PUSH1 0x5 DUP3 MSTORE PUSH5 0x4F202B7665 PUSH1 0xD8 SHL PUSH1 0x20 SWAP1 SWAP3 ADD SWAP2 SWAP1 SWAP2 MSTORE SWAP1 POP PUSH32 0x6B1B58026416D0D28EDC93AA8DCD111DB963D14C36A97B420998316A0B9364AF DUP2 ADD PUSH2 0x1003 JUMPI PUSH1 0x40 MLOAD PUSH4 0x40C10F19 PUSH1 0xE0 SHL DUP2 MSTORE PUSH1 0x1 PUSH1 0x1 PUSH1 0xA0 SHL SUB DUP5 AND PUSH1 0x4 DUP3 ADD MSTORE PUSH1 0x24 DUP2 ADD DUP4 SWAP1 MSTORE PUSH20 0x8A791620DD6260079BF849DC5567ADC3F2FDC318 SWAP1 PUSH4 0x40C10F19 SWAP1 PUSH1 0x44 ADD PUSH1 0x0 PUSH1 0x40 MLOAD DUP1 DUP4 SUB DUP2 PUSH1 0x0 DUP8 DUP1 EXTCODESIZE ISZERO DUP1 ISZERO PUSH2 0xFEA JUMPI PUSH1 0x0 DUP1 REVERT JUMPDEST POP GAS CALL ISZERO DUP1 ISZERO PUSH2 0xFFE JUMPI RETURNDATASIZE PUSH1 0x0 DUP1 RETURNDATACOPY RETURNDATASIZE PUSH1 0x0 REVERT JUMPDEST POP POP POP POP JUMPDEST POP POP POP POP PUSH2 0x1029 JUMP JUMPDEST PUSH1 0x0 DUP4 DUP2 MSTORE PUSH1 0xF PUSH1 0x20 MSTORE PUSH1 0x40 SWAP1 KECCAK256 PUSH1 0x8 ADD DUP1 SLOAD PUSH1 0xFF NOT AND PUSH1 0x7 OR SWAP1 SSTORE JUMPDEST POP POP PUSH1 0x0 SWAP1 DUP2 MSTORE PUSH1 0xF PUSH1 0x20 MSTORE PUSH1 0x40 SWAP1 KECCAK256 TIMESTAMP PUSH1 0x6 SWAP1 SWAP2 ADD SSTORE JUMP JUMPDEST PUSH2 0x865 DUP4 DUP4 DUP4 PUSH1 0x40 MLOAD DUP1 PUSH1 0x20 ADD PUSH1 0x40 MSTORE DUP1 PUSH1 0x0 DUP2 MSTORE POP PUSH2 0x14EC JUMP JUMPDEST PUSH1 0x0 DUP2 DUP2 MSTORE PUSH1 0x2 PUSH1 0x20 MSTORE PUSH1 0x40 DUP2 KECCAK256 SLOAD PUSH1 0x1 PUSH1 0x1 PUSH1 0xA0 SHL SUB AND DUP1 PUSH2 0x691 JUMPI PUSH1 0x40 MLOAD PUSH3 0x461BCD PUSH1 0xE5 SHL DUP2 MSTORE PUSH1 0x20 PUSH1 0x4 DUP3 ADD MSTORE PUSH1 0x18 PUSH1 0x24 DUP3 ADD MSTORE PUSH24 0x115490CDCC8C4E881A5B9D985B1A59081D1BDAD95B881251 PUSH1 0x42 SHL PUSH1 0x44 DUP3 ADD MSTORE PUSH1 0x64 ADD PUSH2 0x7C4 JUMP JUMPDEST PUSH1 0x60 PUSH2 0x10C8 DUP3 PUSH2 0x1E95 JUMP JUMPDEST PUSH1 0x0 DUP4 DUP2 MSTORE PUSH1 0xF PUSH1 0x20 MSTORE PUSH1 0x40 SWAP1 KECCAK256 PUSH1 0x7 DUP2 ADD SLOAD PUSH1 0x5 DUP3 ADD SWAP2 PUSH1 0x2 ADD SWAP1 PUSH2 0x10ED SWAP1 PUSH2 0x1EC9 JUMP JUMPDEST PUSH1 0x40 MLOAD PUSH1 0x20 ADD PUSH2 0x1100 SWAP5 SWAP4 SWAP3 SWAP2 SWAP1 PUSH2 0x30FB JUMP JUMPDEST PUSH1 0x40 MLOAD PUSH1 0x20 DUP2 DUP4 SUB SUB DUP2 MSTORE SWAP1 PUSH1 0x40 MSTORE SWAP1 POP SWAP2 SWAP1 POP JUMP JUMPDEST PUSH1 0x0 PUSH1 0x1 PUSH1 0x1 PUSH1 0xA0 SHL SUB DUP3 AND PUSH2 0x1180 JUMPI PUSH1 0x40 MLOAD PUSH3 0x461BCD PUSH1 0xE5 SHL DUP2 MSTORE PUSH1 0x20 PUSH1 0x4 DUP3 ADD MSTORE PUSH1 0x29 PUSH1 0x24 DUP3 ADD MSTORE PUSH32 0x4552433732313A2061646472657373207A65726F206973206E6F742061207661 PUSH1 0x44 DUP3 ADD MSTORE PUSH9 0x3634B21037BBB732B9 PUSH1 0xB9 SHL PUSH1 0x64 DUP3 ADD MSTORE PUSH1 0x84 ADD PUSH2 0x7C4 JUMP JUMPDEST POP PUSH1 0x1 PUSH1 0x1 PUSH1 0xA0 SHL SUB AND PUSH1 0x0 SWAP1 DUP2 MSTORE PUSH1 0x3 PUSH1 0x20 MSTORE PUSH1 0x40 SWAP1 KECCAK256 SLOAD SWAP1 JUMP JUMPDEST PUSH32 0x408A36151F841709116A4E8ACA4E0202874F7F54687DCB863B1EA4672DC9D8CF PUSH2 0x11C6 DUP2 PUSH2 0x1A30 JUMP JUMPDEST PUSH1 0x0 DUP4 DUP2 MSTORE PUSH1 0xF PUSH1 0x20 MSTORE PUSH1 0x40 DUP2 KECCAK256 PUSH1 0x8 SWAP1 DUP2 ADD SLOAD PUSH1 0xFF AND SWAP1 DUP2 GT ISZERO PUSH2 0x11ED JUMPI PUSH2 0x11ED PUSH2 0x2BFD JUMP JUMPDEST EQ PUSH2 0x120A JUMPI PUSH1 0x40 MLOAD PUSH3 0x461BCD PUSH1 0xE5 SHL DUP2 MSTORE PUSH1 0x4 ADD PUSH2 0x7C4 SWAP1 PUSH2 0x2D4F JUMP JUMPDEST DUP2 ISZERO PUSH2 0x1231 JUMPI PUSH1 0x0 DUP4 DUP2 MSTORE PUSH1 0xF PUSH1 0x20 MSTORE PUSH1 0x40 SWAP1 KECCAK256 PUSH1 0x8 ADD DUP1 SLOAD PUSH1 0xFF NOT AND PUSH1 0x2 OR SWAP1 SSTORE PUSH2 0x124E JUMP JUMPDEST PUSH1 0x0 DUP4 DUP2 MSTORE PUSH1 0xF PUSH1 0x20 MSTORE PUSH1 0x40 SWAP1 KECCAK256 PUSH1 0x8 ADD DUP1 SLOAD PUSH1 0xFF NOT AND PUSH1 0x3 OR SWAP1 SSTORE JUMPDEST PUSH1 0x40 DUP1 MLOAD DUP5 DUP2 MSTORE DUP4 ISZERO ISZERO PUSH1 0x20 DUP3 ADD MSTORE PUSH32 0x1160581DA179F3B34A5B8DF1FC13CA1F4F5AF8B9FDA4E911914A3CB47317DB9D SWAP2 ADD PUSH1 0x40 MLOAD DUP1 SWAP2 SUB SWAP1 LOG1 POP POP POP JUMP JUMPDEST PUSH1 0x0 SWAP2 DUP3 MSTORE PUSH1 0x6 PUSH1 0x20 SWAP1 DUP2 MSTORE PUSH1 0x40 DUP1 DUP5 KECCAK256 PUSH1 0x1 PUSH1 0x1 PUSH1 0xA0 SHL SUB SWAP4 SWAP1 SWAP4 AND DUP5 MSTORE SWAP2 SWAP1 MSTORE SWAP1 KECCAK256 SLOAD PUSH1 0xFF AND SWAP1 JUMP JUMPDEST PUSH1 0x60 PUSH1 0x1 DUP1 SLOAD PUSH2 0x6A6 SWAP1 PUSH2 0x2D15 JUMP JUMPDEST PUSH1 0x0 DUP4 DUP2 MSTORE PUSH1 0xC PUSH1 0x20 MSTORE PUSH1 0x40 DUP2 KECCAK256 SLOAD ISZERO PUSH2 0x1323 JUMPI PUSH1 0x40 MLOAD PUSH3 0x461BCD PUSH1 0xE5 SHL DUP2 MSTORE PUSH1 0x20 PUSH1 0x4 DUP3 ADD DUP2 SWAP1 MSTORE PUSH1 0x24 DUP3 ADD MSTORE PUSH32 0x536F7272792C20796F75206861766520616C726561647920656E726F6C6C6564 PUSH1 0x44 DUP3 ADD MSTORE PUSH1 0x64 ADD PUSH2 0x7C4 JUMP JUMPDEST PUSH1 0x9 SLOAD PUSH1 0x40 DUP1 MLOAD PUSH1 0xC0 DUP2 ADD DUP3 MSTORE DUP7 DUP2 MSTORE TIMESTAMP PUSH1 0x20 DUP1 DUP4 ADD SWAP2 DUP3 MSTORE DUP3 DUP5 ADD DUP9 DUP2 MSTORE PUSH1 0x0 PUSH1 0x60 DUP6 ADD DUP2 SWAP1 MSTORE PUSH1 0x1 PUSH1 0x1 PUSH1 0xA0 SHL SUB DUP10 AND PUSH1 0x80 DUP7 ADD MSTORE PUSH1 0xA0 DUP6 ADD DUP2 SWAP1 MSTORE DUP7 DUP2 MSTORE PUSH1 0xB SWAP1 SWAP3 MSTORE SWAP4 SWAP1 KECCAK256 DUP3 MLOAD DUP2 SSTORE SWAP1 MLOAD PUSH1 0x1 DUP3 ADD SSTORE SWAP2 MLOAD SWAP1 SWAP2 DUP3 SWAP2 PUSH1 0x2 DUP3 ADD SWAP1 PUSH2 0x138C SWAP1 DUP3 PUSH2 0x2F5C JUMP JUMPDEST POP PUSH1 0x60 DUP3 ADD MLOAD PUSH1 0x3 DUP3 ADD SSTORE PUSH1 0x80 DUP3 ADD MLOAD PUSH1 0x4 SWAP1 SWAP2 ADD DUP1 SLOAD PUSH1 0xA0 SWAP1 SWAP4 ADD MLOAD ISZERO ISZERO PUSH1 0x1 PUSH1 0xA0 SHL MUL PUSH1 0x1 PUSH1 0x1 PUSH1 0xA8 SHL SUB NOT SWAP1 SWAP4 AND PUSH1 0x1 PUSH1 0x1 PUSH1 0xA0 SHL SUB SWAP3 DUP4 AND OR SWAP3 SWAP1 SWAP3 OR SWAP1 SWAP2 SSTORE PUSH1 0x0 DUP8 DUP2 MSTORE PUSH1 0xD PUSH1 0x20 SWAP1 DUP2 MSTORE PUSH1 0x40 DUP1 DUP4 KECCAK256 DUP7 SWAP1 SSTORE SWAP3 DUP8 AND DUP3 MSTORE PUSH1 0xE SWAP1 MSTORE SWAP1 DUP2 KECCAK256 DUP4 SWAP1 SSTORE PUSH1 0x9 DUP1 SLOAD SWAP2 PUSH2 0x1401 DUP4 PUSH2 0x301C JUMP JUMPDEST SWAP2 SWAP1 POP SSTORE POP PUSH32 0x251694B0A48411B0CBD9D11CE44FF3BACDDBAF8F65D990532B5CFFF270A5E718 DUP7 DUP7 DUP7 PUSH1 0x40 MLOAD PUSH2 0x1439 SWAP4 SWAP3 SWAP2 SWAP1 PUSH2 0x35EF JUMP JUMPDEST PUSH1 0x40 MLOAD DUP1 SWAP2 SUB SWAP1 LOG1 POP SWAP5 SWAP4 POP POP POP POP JUMP JUMPDEST PUSH2 0xE4C CALLER DUP4 DUP4 PUSH2 0x1F5C JUMP JUMPDEST PUSH1 0x0 PUSH32 0x9B2911D13DB5BDDE8D587A1771FCDC537B782DA47486C2D29B84A6733B5B2FAF PUSH2 0x1481 DUP2 PUSH2 0x1A30 JUMP JUMPDEST PUSH1 0x0 DUP5 DUP2 MSTORE PUSH1 0xF PUSH1 0x20 MSTORE PUSH1 0x40 DUP2 KECCAK256 SLOAD SWAP1 SUB PUSH2 0x14AE JUMPI PUSH1 0x40 MLOAD PUSH3 0x461BCD PUSH1 0xE5 SHL DUP2 MSTORE PUSH1 0x4 ADD PUSH2 0x7C4 SWAP1 PUSH2 0x2D4F JUMP JUMPDEST PUSH1 0x0 DUP5 DUP2 MSTORE PUSH1 0xF PUSH1 0x20 SWAP1 DUP2 MSTORE PUSH1 0x40 DUP1 DUP4 KECCAK256 SLOAD DUP1 DUP5 MSTORE PUSH1 0xB SWAP1 SWAP3 MSTORE SWAP1 SWAP2 KECCAK256 SLOAD DUP5 DUP2 SUB PUSH2 0x14DE JUMPI PUSH1 0x1 SWAP4 POP POP POP PUSH2 0x14E5 JUMP JUMPDEST PUSH1 0x0 SWAP4 POP POP POP JUMPDEST POP SWAP3 SWAP2 POP POP JUMP JUMPDEST PUSH2 0x14F6 CALLER DUP4 PUSH2 0x1A3A JUMP JUMPDEST PUSH2 0x1512 JUMPI PUSH1 0x40 MLOAD PUSH3 0x461BCD PUSH1 0xE5 SHL DUP2 MSTORE PUSH1 0x4 ADD PUSH2 0x7C4 SWAP1 PUSH2 0x2F0F JUMP JUMPDEST PUSH2 0x151E DUP5 DUP5 DUP5 DUP5 PUSH2 0x202A JUMP JUMPDEST POP POP POP POP JUMP JUMPDEST PUSH1 0xF PUSH1 0x20 MSTORE PUSH1 0x0 SWAP1 DUP2 MSTORE PUSH1 0x40 SWAP1 KECCAK256 DUP1 SLOAD PUSH1 0x1 DUP3 ADD DUP1 SLOAD SWAP2 SWAP3 SWAP2 PUSH2 0x1546 SWAP1 PUSH2 0x2D15 JUMP JUMPDEST DUP1 PUSH1 0x1F ADD PUSH1 0x20 DUP1 SWAP2 DIV MUL PUSH1 0x20 ADD PUSH1 0x40 MLOAD SWAP1 DUP2 ADD PUSH1 0x40 MSTORE DUP1 SWAP3 SWAP2 SWAP1 DUP2 DUP2 MSTORE PUSH1 0x20 ADD DUP3 DUP1 SLOAD PUSH2 0x1572 SWAP1 PUSH2 0x2D15 JUMP JUMPDEST DUP1 ISZERO PUSH2 0x15BF JUMPI DUP1 PUSH1 0x1F LT PUSH2 0x1594 JUMPI PUSH2 0x100 DUP1 DUP4 SLOAD DIV MUL DUP4 MSTORE SWAP2 PUSH1 0x20 ADD SWAP2 PUSH2 0x15BF JUMP JUMPDEST DUP3 ADD SWAP2 SWAP1 PUSH1 0x0 MSTORE PUSH1 0x20 PUSH1 0x0 KECCAK256 SWAP1 JUMPDEST DUP2 SLOAD DUP2 MSTORE SWAP1 PUSH1 0x1 ADD SWAP1 PUSH1 0x20 ADD DUP1 DUP4 GT PUSH2 0x15A2 JUMPI DUP3 SWAP1 SUB PUSH1 0x1F AND DUP3 ADD SWAP2 JUMPDEST POP POP POP POP POP SWAP1 DUP1 PUSH1 0x2 ADD DUP1 SLOAD PUSH2 0x15D4 SWAP1 PUSH2 0x2D15 JUMP JUMPDEST DUP1 PUSH1 0x1F ADD PUSH1 0x20 DUP1 SWAP2 DIV MUL PUSH1 0x20 ADD PUSH1 0x40 MLOAD SWAP1 DUP2 ADD PUSH1 0x40 MSTORE DUP1 SWAP3 SWAP2 SWAP1 DUP2 DUP2 MSTORE PUSH1 0x20 ADD DUP3 DUP1 SLOAD PUSH2 0x1600 SWAP1 PUSH2 0x2D15 JUMP JUMPDEST DUP1 ISZERO PUSH2 0x164D JUMPI DUP1 PUSH1 0x1F LT PUSH2 0x1622 JUMPI PUSH2 0x100 DUP1 DUP4 SLOAD DIV MUL DUP4 MSTORE SWAP2 PUSH1 0x20 ADD SWAP2 PUSH2 0x164D JUMP JUMPDEST DUP3 ADD SWAP2 SWAP1 PUSH1 0x0 MSTORE PUSH1 0x20 PUSH1 0x0 KECCAK256 SWAP1 JUMPDEST DUP2 SLOAD DUP2 MSTORE SWAP1 PUSH1 0x1 ADD SWAP1 PUSH1 0x20 ADD DUP1 DUP4 GT PUSH2 0x1630 JUMPI DUP3 SWAP1 SUB PUSH1 0x1F AND DUP3 ADD SWAP2 JUMPDEST POP POP POP POP POP SWAP1 DUP1 PUSH1 0x3 ADD SLOAD SWAP1 DUP1 PUSH1 0x4 ADD SLOAD SWAP1 DUP1 PUSH1 0x5 ADD DUP1 SLOAD PUSH2 0x166E SWAP1 PUSH2 0x2D15 JUMP JUMPDEST DUP1 PUSH1 0x1F ADD PUSH1 0x20 DUP1 SWAP2 DIV MUL PUSH1 0x20 ADD PUSH1 0x40 MLOAD SWAP1 DUP2 ADD PUSH1 0x40 MSTORE DUP1 SWAP3 SWAP2 SWAP1 DUP2 DUP2 MSTORE PUSH1 0x20 ADD DUP3 DUP1 SLOAD PUSH2 0x169A SWAP1 PUSH2 0x2D15 JUMP JUMPDEST DUP1 ISZERO PUSH2 0x16E7 JUMPI DUP1 PUSH1 0x1F LT PUSH2 0x16BC JUMPI PUSH2 0x100 DUP1 DUP4 SLOAD DIV MUL DUP4 MSTORE SWAP2 PUSH1 0x20 ADD SWAP2 PUSH2 0x16E7 JUMP JUMPDEST DUP3 ADD SWAP2 SWAP1 PUSH1 0x0 MSTORE PUSH1 0x20 PUSH1 0x0 KECCAK256 SWAP1 JUMPDEST DUP2 SLOAD DUP2 MSTORE SWAP1 PUSH1 0x1 ADD SWAP1 PUSH1 0x20 ADD DUP1 DUP4 GT PUSH2 0x16CA JUMPI DUP3 SWAP1 SUB PUSH1 0x1F AND DUP3 ADD SWAP2 JUMPDEST POP POP POP POP PUSH1 0x6 DUP4 ADD SLOAD PUSH1 0x7 DUP5 ADD SLOAD PUSH1 0x8 SWAP1 SWAP5 ADD SLOAD SWAP3 SWAP4 SWAP1 SWAP3 SWAP1 SWAP2 POP PUSH1 0xFF AND DUP10 JUMP JUMPDEST PUSH32 0x9B2911D13DB5BDDE8D587A1771FCDC537B782DA47486C2D29B84A6733B5B2FAF PUSH2 0x1732 DUP2 PUSH2 0x1A30 JUMP JUMPDEST PUSH1 0x2 PUSH1 0x0 DUP5 DUP2 MSTORE PUSH1 0xF PUSH1 0x20 MSTORE PUSH1 0x40 SWAP1 KECCAK256 PUSH1 0x8 SWAP1 DUP2 ADD SLOAD PUSH1 0xFF AND SWAP1 DUP2 GT ISZERO PUSH2 0x175B JUMPI PUSH2 0x175B PUSH2 0x2BFD JUMP JUMPDEST EQ PUSH2 0x1778 JUMPI PUSH1 0x40 MLOAD PUSH3 0x461BCD PUSH1 0xE5 SHL DUP2 MSTORE PUSH1 0x4 ADD PUSH2 0x7C4 SWAP1 PUSH2 0x2D4F JUMP JUMPDEST DUP2 ISZERO PUSH2 0x179F JUMPI PUSH1 0x0 DUP4 DUP2 MSTORE PUSH1 0xF PUSH1 0x20 MSTORE PUSH1 0x40 SWAP1 KECCAK256 PUSH1 0x8 ADD DUP1 SLOAD PUSH1 0xFF NOT AND PUSH1 0x4 OR SWAP1 SSTORE PUSH2 0x17BC JUMP JUMPDEST PUSH1 0x0 DUP4 DUP2 MSTORE PUSH1 0xF PUSH1 0x20 MSTORE PUSH1 0x40 SWAP1 KECCAK256 PUSH1 0x8 ADD DUP1 SLOAD PUSH1 0xFF NOT AND PUSH1 0x5 OR SWAP1 SSTORE JUMPDEST PUSH1 0x0 DUP4 DUP2 MSTORE PUSH1 0xF PUSH1 0x20 SWAP1 DUP2 MSTORE PUSH1 0x40 DUP1 DUP4 KECCAK256 SLOAD DUP1 DUP5 MSTORE PUSH1 0xB DUP4 MSTORE DUP2 DUP5 KECCAK256 SLOAD DUP1 DUP6 MSTORE PUSH1 0xC SWAP1 SWAP4 MSTORE SWAP1 DUP4 KECCAK256 SLOAD SWAP1 SWAP3 SUB PUSH2 0x1808 JUMPI PUSH1 0x0 DUP2 DUP2 MSTORE PUSH1 0xD PUSH1 0x20 SWAP1 DUP2 MSTORE PUSH1 0x40 DUP1 DUP4 KECCAK256 SLOAD PUSH1 0xC SWAP1 SWAP3 MSTORE SWAP1 SWAP2 KECCAK256 SSTORE JUMPDEST PUSH1 0x40 DUP1 MLOAD DUP7 DUP2 MSTORE DUP6 ISZERO ISZERO PUSH1 0x20 DUP3 ADD MSTORE PUSH32 0x5DDF4532B7B6AC0FE369C95E912DE93D508A2BECE5C0A05AB141C00BAEBA6E93 SWAP2 ADD PUSH2 0x9EA JUMP JUMPDEST PUSH1 0x60 PUSH2 0x691 DUP3 PUSH2 0x205D JUMP JUMPDEST PUSH1 0x0 DUP3 DUP2 MSTORE PUSH1 0x6 PUSH1 0x20 MSTORE PUSH1 0x40 SWAP1 KECCAK256 PUSH1 0x1 ADD SLOAD PUSH2 0x1865 DUP2 PUSH2 0x1A30 JUMP JUMPDEST PUSH2 0x865 DUP4 DUP4 PUSH2 0x1CA3 JUMP JUMPDEST PUSH1 0xB PUSH1 0x20 MSTORE PUSH1 0x0 SWAP1 DUP2 MSTORE PUSH1 0x40 SWAP1 KECCAK256 DUP1 SLOAD PUSH1 0x1 DUP3 ADD SLOAD PUSH1 0x2 DUP4 ADD DUP1 SLOAD SWAP3 SWAP4 SWAP2 SWAP3 PUSH2 0x1897 SWAP1 PUSH2 0x2D15 JUMP JUMPDEST DUP1 PUSH1 0x1F ADD PUSH1 0x20 DUP1 SWAP2 DIV MUL PUSH1 0x20 ADD PUSH1 0x40 MLOAD SWAP1 DUP2 ADD PUSH1 0x40 MSTORE DUP1 SWAP3 SWAP2 SWAP1 DUP2 DUP2 MSTORE PUSH1 0x20 ADD DUP3 DUP1 SLOAD PUSH2 0x18C3 SWAP1 PUSH2 0x2D15 JUMP JUMPDEST DUP1 ISZERO PUSH2 0x1910 JUMPI DUP1 PUSH1 0x1F LT PUSH2 0x18E5 JUMPI PUSH2 0x100 DUP1 DUP4 SLOAD DIV MUL DUP4 MSTORE SWAP2 PUSH1 0x20 ADD SWAP2 PUSH2 0x1910 JUMP JUMPDEST DUP3 ADD SWAP2 SWAP1 PUSH1 0x0 MSTORE PUSH1 0x20 PUSH1 0x0 KECCAK256 SWAP1 JUMPDEST DUP2 SLOAD DUP2 MSTORE SWAP1 PUSH1 0x1 ADD SWAP1 PUSH1 0x20 ADD DUP1 DUP4 GT PUSH2 0x18F3 JUMPI DUP3 SWAP1 SUB PUSH1 0x1F AND DUP3 ADD SWAP2 JUMPDEST POP POP POP POP PUSH1 0x3 DUP4 ADD SLOAD PUSH1 0x4 SWAP1 SWAP4 ADD SLOAD SWAP2 SWAP3 SWAP2 PUSH1 0x1 PUSH1 0x1 PUSH1 0xA0 SHL SUB DUP2 AND SWAP2 POP PUSH1 0x1 PUSH1 0xA0 SHL SWAP1 DIV PUSH1 0xFF AND DUP7 JUMP JUMPDEST PUSH1 0x0 PUSH1 0x1 PUSH1 0x1 PUSH1 0xE0 SHL SUB NOT DUP3 AND PUSH4 0x7965DB0B PUSH1 0xE0 SHL EQ DUP1 PUSH2 0x691 JUMPI POP PUSH2 0x691 DUP3 PUSH2 0x210B JUMP JUMPDEST PUSH1 0x0 DUP2 DUP2 MSTORE PUSH1 0x2 PUSH1 0x20 MSTORE PUSH1 0x40 SWAP1 KECCAK256 SLOAD PUSH1 0x1 PUSH1 0x1 PUSH1 0xA0 SHL SUB AND PUSH2 0x19BF JUMPI PUSH1 0x40 MLOAD PUSH3 0x461BCD PUSH1 0xE5 SHL DUP2 MSTORE PUSH1 0x20 PUSH1 0x4 DUP3 ADD MSTORE PUSH1 0x18 PUSH1 0x24 DUP3 ADD MSTORE PUSH24 0x115490CDCC8C4E881A5B9D985B1A59081D1BDAD95B881251 PUSH1 0x42 SHL PUSH1 0x44 DUP3 ADD MSTORE PUSH1 0x64 ADD PUSH2 0x7C4 JUMP JUMPDEST POP JUMP JUMPDEST PUSH1 0x0 DUP2 DUP2 MSTORE PUSH1 0x4 PUSH1 0x20 MSTORE PUSH1 0x40 SWAP1 KECCAK256 DUP1 SLOAD PUSH1 0x1 PUSH1 0x1 PUSH1 0xA0 SHL SUB NOT AND PUSH1 0x1 PUSH1 0x1 PUSH1 0xA0 SHL SUB DUP5 AND SWAP1 DUP2 OR SWAP1 SWAP2 SSTORE DUP2 SWAP1 PUSH2 0x19F7 DUP3 PUSH2 0x105D JUMP JUMPDEST PUSH1 0x1 PUSH1 0x1 PUSH1 0xA0 SHL SUB AND PUSH32 0x8C5BE1E5EBEC7D5BD14F71427D1E84F3DD0314C0F7B2291E5B200AC8C7C3B925 PUSH1 0x40 MLOAD PUSH1 0x40 MLOAD DUP1 SWAP2 SUB SWAP1 LOG4 POP POP JUMP JUMPDEST PUSH2 0x19BF DUP2 CALLER PUSH2 0x215B JUMP JUMPDEST PUSH1 0x0 DUP1 PUSH2 0x1A46 DUP4 PUSH2 0x105D JUMP JUMPDEST SWAP1 POP DUP1 PUSH1 0x1 PUSH1 0x1 PUSH1 0xA0 SHL SUB AND DUP5 PUSH1 0x1 PUSH1 0x1 PUSH1 0xA0 SHL SUB AND EQ DUP1 PUSH2 0x1A8D JUMPI POP PUSH1 0x1 PUSH1 0x1 PUSH1 0xA0 SHL SUB DUP1 DUP3 AND PUSH1 0x0 SWAP1 DUP2 MSTORE PUSH1 0x5 PUSH1 0x20 SWAP1 DUP2 MSTORE PUSH1 0x40 DUP1 DUP4 KECCAK256 SWAP4 DUP9 AND DUP4 MSTORE SWAP3 SWAP1 MSTORE KECCAK256 SLOAD PUSH1 0xFF AND JUMPDEST DUP1 PUSH2 0x1AB1 JUMPI POP DUP4 PUSH1 0x1 PUSH1 0x1 PUSH1 0xA0 SHL SUB AND PUSH2 0x1AA6 DUP5 PUSH2 0x729 JUMP JUMPDEST PUSH1 0x1 PUSH1 0x1 PUSH1 0xA0 SHL SUB AND EQ JUMPDEST SWAP5 SWAP4 POP POP POP POP JUMP JUMPDEST DUP3 PUSH1 0x1 PUSH1 0x1 PUSH1 0xA0 SHL SUB AND PUSH2 0x1ACC DUP3 PUSH2 0x105D JUMP JUMPDEST PUSH1 0x1 PUSH1 0x1 PUSH1 0xA0 SHL SUB AND EQ PUSH2 0x1AF2 JUMPI PUSH1 0x40 MLOAD PUSH3 0x461BCD PUSH1 0xE5 SHL DUP2 MSTORE PUSH1 0x4 ADD PUSH2 0x7C4 SWAP1 PUSH2 0x3620 JUMP JUMPDEST PUSH1 0x1 PUSH1 0x1 PUSH1 0xA0 SHL SUB DUP3 AND PUSH2 0x1B54 JUMPI PUSH1 0x40 MLOAD PUSH3 0x461BCD PUSH1 0xE5 SHL DUP2 MSTORE PUSH1 0x20 PUSH1 0x4 DUP3 ADD MSTORE PUSH1 0x24 DUP1 DUP3 ADD MSTORE PUSH32 0x4552433732313A207472616E7366657220746F20746865207A65726F20616464 PUSH1 0x44 DUP3 ADD MSTORE PUSH4 0x72657373 PUSH1 0xE0 SHL PUSH1 0x64 DUP3 ADD MSTORE PUSH1 0x84 ADD PUSH2 0x7C4 JUMP JUMPDEST DUP3 PUSH1 0x1 PUSH1 0x1 PUSH1 0xA0 SHL SUB AND PUSH2 0x1B67 DUP3 PUSH2 0x105D JUMP JUMPDEST PUSH1 0x1 PUSH1 0x1 PUSH1 0xA0 SHL SUB AND EQ PUSH2 0x1B8D JUMPI PUSH1 0x40 MLOAD PUSH3 0x461BCD PUSH1 0xE5 SHL DUP2 MSTORE PUSH1 0x4 ADD PUSH2 0x7C4 SWAP1 PUSH2 0x3620 JUMP JUMPDEST PUSH1 0x0 DUP2 DUP2 MSTORE PUSH1 0x4 PUSH1 0x20 SWAP1 DUP2 MSTORE PUSH1 0x40 DUP1 DUP4 KECCAK256 DUP1 SLOAD PUSH1 0x1 PUSH1 0x1 PUSH1 0xA0 SHL SUB NOT SWAP1 DUP2 AND SWAP1 SWAP2 SSTORE PUSH1 0x1 PUSH1 0x1 PUSH1 0xA0 SHL SUB DUP8 DUP2 AND DUP1 DUP7 MSTORE PUSH1 0x3 DUP6 MSTORE DUP4 DUP7 KECCAK256 DUP1 SLOAD PUSH1 0x0 NOT ADD SWAP1 SSTORE SWAP1 DUP8 AND DUP1 DUP7 MSTORE DUP4 DUP7 KECCAK256 DUP1 SLOAD PUSH1 0x1 ADD SWAP1 SSTORE DUP7 DUP7 MSTORE PUSH1 0x2 SWAP1 SWAP5 MSTORE DUP3 DUP6 KECCAK256 DUP1 SLOAD SWAP1 SWAP3 AND DUP5 OR SWAP1 SWAP2 SSTORE SWAP1 MLOAD DUP5 SWAP4 PUSH32 0xDDF252AD1BE2C89B69C2B068FC378DAA952BA7F163C4A11628F55A4DF523B3EF SWAP2 LOG4 POP POP POP JUMP JUMPDEST PUSH2 0x1C27 DUP3 DUP3 PUSH2 0x128D JUMP JUMPDEST PUSH2 0xE4C JUMPI PUSH1 0x0 DUP3 DUP2 MSTORE PUSH1 0x6 PUSH1 0x20 SWAP1 DUP2 MSTORE PUSH1 0x40 DUP1 DUP4 KECCAK256 PUSH1 0x1 PUSH1 0x1 PUSH1 0xA0 SHL SUB DUP6 AND DUP5 MSTORE SWAP1 SWAP2 MSTORE SWAP1 KECCAK256 DUP1 SLOAD PUSH1 0xFF NOT AND PUSH1 0x1 OR SWAP1 SSTORE PUSH2 0x1C5F CALLER SWAP1 JUMP JUMPDEST PUSH1 0x1 PUSH1 0x1 PUSH1 0xA0 SHL SUB AND DUP2 PUSH1 0x1 PUSH1 0x1 PUSH1 0xA0 SHL SUB AND DUP4 PUSH32 0x2F8788117E7EFF1D82E926EC794901D17C78024A50270940304540A733656F0D PUSH1 0x40 MLOAD PUSH1 0x40 MLOAD DUP1 SWAP2 SUB SWAP1 LOG4 POP POP JUMP JUMPDEST PUSH2 0x1CAD DUP3 DUP3 PUSH2 0x128D JUMP JUMPDEST ISZERO PUSH2 0xE4C JUMPI PUSH1 0x0 DUP3 DUP2 MSTORE PUSH1 0x6 PUSH1 0x20 SWAP1 DUP2 MSTORE PUSH1 0x40 DUP1 DUP4 KECCAK256 PUSH1 0x1 PUSH1 0x1 PUSH1 0xA0 SHL SUB DUP6 AND DUP1 DUP6 MSTORE SWAP3 MSTORE DUP1 DUP4 KECCAK256 DUP1 SLOAD PUSH1 0xFF NOT AND SWAP1 SSTORE MLOAD CALLER SWAP3 DUP6 SWAP2 PUSH32 0xF6391F5C32D9C69D2A47EA670B442974B53935D1EDC7FD64EB21E047A839171B SWAP2 SWAP1 LOG4 POP POP JUMP JUMPDEST PUSH1 0x1 PUSH1 0x1 PUSH1 0xA0 SHL SUB DUP3 AND PUSH2 0x1D60 JUMPI PUSH1 0x40 MLOAD PUSH3 0x461BCD PUSH1 0xE5 SHL DUP2 MSTORE PUSH1 0x20 PUSH1 0x4 DUP3 ADD DUP2 SWAP1 MSTORE PUSH1 0x24 DUP3 ADD MSTORE PUSH32 0x4552433732313A206D696E7420746F20746865207A65726F2061646472657373 PUSH1 0x44 DUP3 ADD MSTORE PUSH1 0x64 ADD PUSH2 0x7C4 JUMP JUMPDEST PUSH1 0x0 DUP2 DUP2 MSTORE PUSH1 0x2 PUSH1 0x20 MSTORE PUSH1 0x40 SWAP1 KECCAK256 SLOAD PUSH1 0x1 PUSH1 0x1 PUSH1 0xA0 SHL SUB AND ISZERO PUSH2 0x1DC5 JUMPI PUSH1 0x40 MLOAD PUSH3 0x461BCD PUSH1 0xE5 SHL DUP2 MSTORE PUSH1 0x20 PUSH1 0x4 DUP3 ADD MSTORE PUSH1 0x1C PUSH1 0x24 DUP3 ADD MSTORE PUSH32 0x4552433732313A20746F6B656E20616C7265616479206D696E74656400000000 PUSH1 0x44 DUP3 ADD MSTORE PUSH1 0x64 ADD PUSH2 0x7C4 JUMP JUMPDEST PUSH1 0x0 DUP2 DUP2 MSTORE PUSH1 0x2 PUSH1 0x20 MSTORE PUSH1 0x40 SWAP1 KECCAK256 SLOAD PUSH1 0x1 PUSH1 0x1 PUSH1 0xA0 SHL SUB AND ISZERO PUSH2 0x1E2A JUMPI PUSH1 0x40 MLOAD PUSH3 0x461BCD PUSH1 0xE5 SHL DUP2 MSTORE PUSH1 0x20 PUSH1 0x4 DUP3 ADD MSTORE PUSH1 0x1C PUSH1 0x24 DUP3 ADD MSTORE PUSH32 0x4552433732313A20746F6B656E20616C7265616479206D696E74656400000000 PUSH1 0x44 DUP3 ADD MSTORE PUSH1 0x64 ADD PUSH2 0x7C4 JUMP JUMPDEST PUSH1 0x1 PUSH1 0x1 PUSH1 0xA0 SHL SUB DUP3 AND PUSH1 0x0 DUP2 DUP2 MSTORE PUSH1 0x3 PUSH1 0x20 SWAP1 DUP2 MSTORE PUSH1 0x40 DUP1 DUP4 KECCAK256 DUP1 SLOAD PUSH1 0x1 ADD SWAP1 SSTORE DUP5 DUP4 MSTORE PUSH1 0x2 SWAP1 SWAP2 MSTORE DUP1 DUP3 KECCAK256 DUP1 SLOAD PUSH1 0x1 PUSH1 0x1 PUSH1 0xA0 SHL SUB NOT AND DUP5 OR SWAP1 SSTORE MLOAD DUP4 SWAP3 SWAP2 SWAP1 PUSH32 0xDDF252AD1BE2C89B69C2B068FC378DAA952BA7F163C4A11628F55A4DF523B3EF SWAP1 DUP3 SWAP1 LOG4 POP POP JUMP JUMPDEST PUSH1 0x60 PUSH2 0x1EA0 DUP3 PUSH2 0x1EC9 JUMP JUMPDEST PUSH1 0x0 DUP4 DUP2 MSTORE PUSH1 0xF PUSH1 0x20 MSTORE PUSH1 0x40 SWAP1 KECCAK256 SLOAD PUSH2 0x1EB8 SWAP1 PUSH2 0x1EC9 JUMP JUMPDEST PUSH1 0x40 MLOAD PUSH1 0x20 ADD PUSH2 0x1100 SWAP3 SWAP2 SWAP1 PUSH2 0x3665 JUMP JUMPDEST PUSH1 0x60 PUSH1 0x0 PUSH2 0x1ED6 DUP4 PUSH2 0x21B4 JUMP JUMPDEST PUSH1 0x1 ADD SWAP1 POP PUSH1 0x0 DUP2 PUSH8 0xFFFFFFFFFFFFFFFF DUP2 GT ISZERO PUSH2 0x1EF6 JUMPI PUSH2 0x1EF6 PUSH2 0x2A3E JUMP JUMPDEST PUSH1 0x40 MLOAD SWAP1 DUP1 DUP3 MSTORE DUP1 PUSH1 0x1F ADD PUSH1 0x1F NOT AND PUSH1 0x20 ADD DUP3 ADD PUSH1 0x40 MSTORE DUP1 ISZERO PUSH2 0x1F20 JUMPI PUSH1 0x20 DUP3 ADD DUP2 DUP1 CALLDATASIZE DUP4 CALLDATACOPY ADD SWAP1 POP JUMPDEST POP SWAP1 POP DUP2 DUP2 ADD PUSH1 0x20 ADD JUMPDEST PUSH1 0x0 NOT ADD PUSH16 0x181899199A1A9B1B9C1CB0B131B232B3 PUSH1 0x81 SHL PUSH1 0xA DUP7 MOD BYTE DUP2 MSTORE8 PUSH1 0xA DUP6 DIV SWAP5 POP DUP5 PUSH2 0x1F2A JUMPI POP SWAP4 SWAP3 POP POP POP JUMP JUMPDEST DUP2 PUSH1 0x1 PUSH1 0x1 PUSH1 0xA0 SHL SUB AND DUP4 PUSH1 0x1 PUSH1 0x1 PUSH1 0xA0 SHL SUB AND SUB PUSH2 0x1FBD JUMPI PUSH1 0x40 MLOAD PUSH3 0x461BCD PUSH1 0xE5 SHL DUP2 MSTORE PUSH1 0x20 PUSH1 0x4 DUP3 ADD MSTORE PUSH1 0x19 PUSH1 0x24 DUP3 ADD MSTORE PUSH32 0x4552433732313A20617070726F766520746F2063616C6C657200000000000000 PUSH1 0x44 DUP3 ADD MSTORE PUSH1 0x64 ADD PUSH2 0x7C4 JUMP JUMPDEST PUSH1 0x1 PUSH1 0x1 PUSH1 0xA0 SHL SUB DUP4 DUP2 AND PUSH1 0x0 DUP2 DUP2 MSTORE PUSH1 0x5 PUSH1 0x20 SWAP1 DUP2 MSTORE PUSH1 0x40 DUP1 DUP4 KECCAK256 SWAP5 DUP8 AND DUP1 DUP5 MSTORE SWAP5 DUP3 MSTORE SWAP2 DUP3 SWAP1 KECCAK256 DUP1 SLOAD PUSH1 0xFF NOT AND DUP7 ISZERO ISZERO SWAP1 DUP2 OR SWAP1 SWAP2 SSTORE SWAP2 MLOAD SWAP2 DUP3 MSTORE PUSH32 0x17307EAB39AB6107E8899845AD3D59BD9653F200F220920489CA2B5937696C31 SWAP2 ADD PUSH1 0x40 MLOAD DUP1 SWAP2 SUB SWAP1 LOG3 POP POP POP JUMP JUMPDEST PUSH2 0x2035 DUP5 DUP5 DUP5 PUSH2 0x1AB9 JUMP JUMPDEST PUSH2 0x2041 DUP5 DUP5 DUP5 DUP5 PUSH2 0x228C JUMP JUMPDEST PUSH2 0x151E JUMPI PUSH1 0x40 MLOAD PUSH3 0x461BCD PUSH1 0xE5 SHL DUP2 MSTORE PUSH1 0x4 ADD PUSH2 0x7C4 SWAP1 PUSH2 0x3C5B JUMP JUMPDEST PUSH1 0x60 PUSH1 0x0 PUSH2 0x206A DUP4 PUSH2 0x1EC9 JUMP JUMPDEST PUSH1 0x40 MLOAD PUSH1 0x20 ADD PUSH2 0x207A SWAP2 SWAP1 PUSH2 0x3CAD JUMP JUMPDEST PUSH1 0x40 MLOAD PUSH1 0x20 DUP2 DUP4 SUB SUB DUP2 MSTORE SWAP1 PUSH1 0x40 MSTORE SWAP1 POP PUSH1 0x0 PUSH2 0x2096 DUP5 PUSH2 0x10BD JUMP JUMPDEST SWAP1 POP PUSH1 0x0 PUSH2 0x20A3 DUP6 PUSH2 0x238D JUMP JUMPDEST SWAP1 POP PUSH1 0x0 PUSH2 0x20DB DUP5 DUP4 PUSH2 0x20B5 DUP7 PUSH2 0x249B JUMP JUMPDEST PUSH1 0x40 MLOAD PUSH1 0x20 ADD PUSH2 0x20C7 SWAP4 SWAP3 SWAP2 SWAP1 PUSH2 0x3CE2 JUMP JUMPDEST PUSH1 0x40 MLOAD PUSH1 0x20 DUP2 DUP4 SUB SUB DUP2 MSTORE SWAP1 PUSH1 0x40 MSTORE PUSH2 0x249B JUMP JUMPDEST SWAP1 POP PUSH1 0x0 DUP2 PUSH1 0x40 MLOAD PUSH1 0x20 ADD PUSH2 0x20F0 SWAP2 SWAP1 PUSH2 0x3DEA JUMP JUMPDEST PUSH1 0x40 DUP1 MLOAD PUSH1 0x1F NOT DUP2 DUP5 SUB ADD DUP2 MSTORE SWAP2 SWAP1 MSTORE SWAP8 SWAP7 POP POP POP POP POP POP POP JUMP JUMPDEST PUSH1 0x0 PUSH1 0x1 PUSH1 0x1 PUSH1 0xE0 SHL SUB NOT DUP3 AND PUSH4 0x80AC58CD PUSH1 0xE0 SHL EQ DUP1 PUSH2 0x213C JUMPI POP PUSH1 0x1 PUSH1 0x1 PUSH1 0xE0 SHL SUB NOT DUP3 AND PUSH4 0x5B5E139F PUSH1 0xE0 SHL EQ JUMPDEST DUP1 PUSH2 0x691 JUMPI POP PUSH4 0x1FFC9A7 PUSH1 0xE0 SHL PUSH1 0x1 PUSH1 0x1 PUSH1 0xE0 SHL SUB NOT DUP4 AND EQ PUSH2 0x691 JUMP JUMPDEST PUSH2 0x2165 DUP3 DUP3 PUSH2 0x128D JUMP JUMPDEST PUSH2 0xE4C JUMPI PUSH2 0x2172 DUP2 PUSH2 0x25EE JUMP JUMPDEST PUSH2 0x217D DUP4 PUSH1 0x20 PUSH2 0x2600 JUMP JUMPDEST PUSH1 0x40 MLOAD PUSH1 0x20 ADD PUSH2 0x218E SWAP3 SWAP2 SWAP1 PUSH2 0x3E2F JUMP JUMPDEST PUSH1 0x40 DUP1 MLOAD PUSH1 0x1F NOT DUP2 DUP5 SUB ADD DUP2 MSTORE SWAP1 DUP3 SWAP1 MSTORE PUSH3 0x461BCD PUSH1 0xE5 SHL DUP3 MSTORE PUSH2 0x7C4 SWAP2 PUSH1 0x4 ADD PUSH2 0x282E JUMP JUMPDEST PUSH1 0x0 DUP1 PUSH19 0x184F03E93FF9F4DAA797ED6E38ED64BF6A1F01 PUSH1 0x40 SHL DUP4 LT PUSH2 0x21F3 JUMPI PUSH19 0x184F03E93FF9F4DAA797ED6E38ED64BF6A1F01 PUSH1 0x40 SHL DUP4 DIV SWAP3 POP PUSH1 0x40 ADD JUMPDEST PUSH14 0x4EE2D6D415B85ACEF8100000000 DUP4 LT PUSH2 0x221F JUMPI PUSH14 0x4EE2D6D415B85ACEF8100000000 DUP4 DIV SWAP3 POP PUSH1 0x20 ADD JUMPDEST PUSH7 0x2386F26FC10000 DUP4 LT PUSH2 0x223D JUMPI PUSH7 0x2386F26FC10000 DUP4 DIV SWAP3 POP PUSH1 0x10 ADD JUMPDEST PUSH4 0x5F5E100 DUP4 LT PUSH2 0x2255 JUMPI PUSH4 0x5F5E100 DUP4 DIV SWAP3 POP PUSH1 0x8 ADD JUMPDEST PUSH2 0x2710 DUP4 LT PUSH2 0x2269 JUMPI PUSH2 0x2710 DUP4 DIV SWAP3 POP PUSH1 0x4 ADD JUMPDEST PUSH1 0x64 DUP4 LT PUSH2 0x227B JUMPI PUSH1 0x64 DUP4 DIV SWAP3 POP PUSH1 0x2 ADD JUMPDEST PUSH1 0xA DUP4 LT PUSH2 0x691 JUMPI PUSH1 0x1 ADD SWAP3 SWAP2 POP POP JUMP JUMPDEST PUSH1 0x0 PUSH1 0x1 PUSH1 0x1 PUSH1 0xA0 SHL SUB DUP5 AND EXTCODESIZE ISZERO PUSH2 0x2382 JUMPI PUSH1 0x40 MLOAD PUSH4 0xA85BD01 PUSH1 0xE1 SHL DUP2 MSTORE PUSH1 0x1 PUSH1 0x1 PUSH1 0xA0 SHL SUB DUP6 AND SWAP1 PUSH4 0x150B7A02 SWAP1 PUSH2 0x22D0 SWAP1 CALLER SWAP1 DUP10 SWAP1 DUP9 SWAP1 DUP9 SWAP1 PUSH1 0x4 ADD PUSH2 0x3EA4 JUMP JUMPDEST PUSH1 0x20 PUSH1 0x40 MLOAD DUP1 DUP4 SUB DUP2 PUSH1 0x0 DUP8 GAS CALL SWAP3 POP POP POP DUP1 ISZERO PUSH2 0x230B JUMPI POP PUSH1 0x40 DUP1 MLOAD PUSH1 0x1F RETURNDATASIZE SWAP1 DUP2 ADD PUSH1 0x1F NOT AND DUP3 ADD SWAP1 SWAP3 MSTORE PUSH2 0x2308 SWAP2 DUP2 ADD SWAP1 PUSH2 0x3ED7 JUMP JUMPDEST PUSH1 0x1 JUMPDEST PUSH2 0x2368 JUMPI RETURNDATASIZE DUP1 DUP1 ISZERO PUSH2 0x2339 JUMPI PUSH1 0x40 MLOAD SWAP2 POP PUSH1 0x1F NOT PUSH1 0x3F RETURNDATASIZE ADD AND DUP3 ADD PUSH1 0x40 MSTORE RETURNDATASIZE DUP3 MSTORE RETURNDATASIZE PUSH1 0x0 PUSH1 0x20 DUP5 ADD RETURNDATACOPY PUSH2 0x233E JUMP JUMPDEST PUSH1 0x60 SWAP2 POP JUMPDEST POP DUP1 MLOAD PUSH1 0x0 SUB PUSH2 0x2360 JUMPI PUSH1 0x40 MLOAD PUSH3 0x461BCD PUSH1 0xE5 SHL DUP2 MSTORE PUSH1 0x4 ADD PUSH2 0x7C4 SWAP1 PUSH2 0x3C5B JUMP JUMPDEST DUP1 MLOAD DUP2 PUSH1 0x20 ADD REVERT JUMPDEST PUSH1 0x1 PUSH1 0x1 PUSH1 0xE0 SHL SUB NOT AND PUSH4 0xA85BD01 PUSH1 0xE1 SHL EQ SWAP1 POP PUSH2 0x1AB1 JUMP JUMPDEST POP PUSH1 0x1 SWAP5 SWAP4 POP POP POP POP JUMP JUMPDEST PUSH1 0x0 DUP2 DUP2 MSTORE PUSH1 0xF PUSH1 0x20 MSTORE PUSH1 0x40 DUP2 KECCAK256 PUSH1 0x2 ADD DUP1 SLOAD PUSH1 0x60 SWAP3 SWAP2 SWAP1 PUSH2 0x23AE SWAP1 PUSH2 0x2D15 JUMP JUMPDEST DUP1 PUSH1 0x1F ADD PUSH1 0x20 DUP1 SWAP2 DIV MUL PUSH1 0x20 ADD PUSH1 0x40 MLOAD SWAP1 DUP2 ADD PUSH1 0x40 MSTORE DUP1 SWAP3 SWAP2 SWAP1 DUP2 DUP2 MSTORE PUSH1 0x20 ADD DUP3 DUP1 SLOAD PUSH2 0x23DA SWAP1 PUSH2 0x2D15 JUMP JUMPDEST DUP1 ISZERO PUSH2 0x2427 JUMPI DUP1 PUSH1 0x1F LT PUSH2 0x23FC JUMPI PUSH2 0x100 DUP1 DUP4 SLOAD DIV MUL DUP4 MSTORE SWAP2 PUSH1 0x20 ADD SWAP2 PUSH2 0x2427 JUMP JUMPDEST DUP3 ADD SWAP2 SWAP1 PUSH1 0x0 MSTORE PUSH1 0x20 PUSH1 0x0 KECCAK256 SWAP1 JUMPDEST DUP2 SLOAD DUP2 MSTORE SWAP1 PUSH1 0x1 ADD SWAP1 PUSH1 0x20 ADD DUP1 DUP4 GT PUSH2 0x240A JUMPI DUP3 SWAP1 SUB PUSH1 0x1F AND DUP3 ADD SWAP2 JUMPDEST POP POP POP PUSH1 0x0 DUP7 DUP2 MSTORE PUSH1 0xF PUSH1 0x20 MSTORE PUSH1 0x40 DUP2 KECCAK256 PUSH1 0x7 ADD SLOAD SWAP4 SWAP5 POP SWAP3 PUSH2 0x244C SWAP3 POP SWAP1 POP PUSH2 0x1EC9 JUMP JUMPDEST PUSH1 0x0 DUP6 DUP2 MSTORE PUSH1 0xF PUSH1 0x20 MSTORE PUSH1 0x40 DUP2 KECCAK256 PUSH1 0x4 ADD SLOAD SWAP2 SWAP3 POP SWAP1 PUSH2 0x246B SWAP1 PUSH2 0x1EC9 JUMP JUMPDEST SWAP1 POP DUP3 DUP3 DUP3 PUSH1 0x40 MLOAD PUSH1 0x20 ADD PUSH2 0x2482 SWAP4 SWAP3 SWAP2 SWAP1 PUSH2 0x3EF4 JUMP JUMPDEST PUSH1 0x40 MLOAD PUSH1 0x20 DUP2 DUP4 SUB SUB DUP2 MSTORE SWAP1 PUSH1 0x40 MSTORE SWAP4 POP POP POP POP SWAP2 SWAP1 POP JUMP JUMPDEST PUSH1 0x60 DUP2 MLOAD PUSH1 0x0 SUB PUSH2 0x24BA JUMPI POP POP PUSH1 0x40 DUP1 MLOAD PUSH1 0x20 DUP2 ADD SWAP1 SWAP2 MSTORE PUSH1 0x0 DUP2 MSTORE SWAP1 JUMP JUMPDEST PUSH1 0x0 PUSH1 0x40 MLOAD DUP1 PUSH1 0x60 ADD PUSH1 0x40 MSTORE DUP1 PUSH1 0x40 DUP2 MSTORE PUSH1 0x20 ADD PUSH2 0x4086 PUSH1 0x40 SWAP2 CODECOPY SWAP1 POP PUSH1 0x0 PUSH1 0x3 DUP5 MLOAD PUSH1 0x2 PUSH2 0x24E9 SWAP2 SWAP1 PUSH2 0x2D95 JUMP JUMPDEST PUSH2 0x24F3 SWAP2 SWAP1 PUSH2 0x4017 JUMP JUMPDEST PUSH2 0x24FE SWAP1 PUSH1 0x4 PUSH2 0x4039 JUMP JUMPDEST PUSH8 0xFFFFFFFFFFFFFFFF DUP2 GT ISZERO PUSH2 0x2516 JUMPI PUSH2 0x2516 PUSH2 0x2A3E JUMP JUMPDEST PUSH1 0x40 MLOAD SWAP1 DUP1 DUP3 MSTORE DUP1 PUSH1 0x1F ADD PUSH1 0x1F NOT AND PUSH1 0x20 ADD DUP3 ADD PUSH1 0x40 MSTORE DUP1 ISZERO PUSH2 0x2540 JUMPI PUSH1 0x20 DUP3 ADD DUP2 DUP1 CALLDATASIZE DUP4 CALLDATACOPY ADD SWAP1 POP JUMPDEST POP SWAP1 POP PUSH1 0x1 DUP3 ADD PUSH1 0x20 DUP3 ADD DUP6 DUP7 MLOAD DUP8 ADD JUMPDEST DUP1 DUP3 LT ISZERO PUSH2 0x25AC JUMPI PUSH1 0x3 DUP3 ADD SWAP2 POP DUP2 MLOAD PUSH1 0x3F DUP2 PUSH1 0x12 SHR AND DUP6 ADD MLOAD DUP5 MSTORE8 PUSH1 0x1 DUP5 ADD SWAP4 POP PUSH1 0x3F DUP2 PUSH1 0xC SHR AND DUP6 ADD MLOAD DUP5 MSTORE8 PUSH1 0x1 DUP5 ADD SWAP4 POP PUSH1 0x3F DUP2 PUSH1 0x6 SHR AND DUP6 ADD MLOAD DUP5 MSTORE8 PUSH1 0x1 DUP5 ADD SWAP4 POP PUSH1 0x3F DUP2 AND DUP6 ADD MLOAD DUP5 MSTORE8 POP PUSH1 0x1 DUP4 ADD SWAP3 POP PUSH2 0x2551 JUMP JUMPDEST POP POP PUSH1 0x3 DUP7 MLOAD MOD PUSH1 0x1 DUP2 EQ PUSH2 0x25C8 JUMPI PUSH1 0x2 DUP2 EQ PUSH2 0x25DB JUMPI PUSH2 0x25E3 JUMP JUMPDEST PUSH1 0x3D PUSH1 0x1 DUP4 SUB MSTORE8 PUSH1 0x3D PUSH1 0x2 DUP4 SUB MSTORE8 PUSH2 0x25E3 JUMP JUMPDEST PUSH1 0x3D PUSH1 0x1 DUP4 SUB MSTORE8 JUMPDEST POP SWAP2 SWAP6 SWAP5 POP POP POP POP POP JUMP JUMPDEST PUSH1 0x60 PUSH2 0x691 PUSH1 0x1 PUSH1 0x1 PUSH1 0xA0 SHL SUB DUP4 AND PUSH1 0x14 JUMPDEST PUSH1 0x60 PUSH1 0x0 PUSH2 0x260F DUP4 PUSH1 0x2 PUSH2 0x4039 JUMP JUMPDEST PUSH2 0x261A SWAP1 PUSH1 0x2 PUSH2 0x2D95 JUMP JUMPDEST PUSH8 0xFFFFFFFFFFFFFFFF DUP2 GT ISZERO PUSH2 0x2632 JUMPI PUSH2 0x2632 PUSH2 0x2A3E JUMP JUMPDEST PUSH1 0x40 MLOAD SWAP1 DUP1 DUP3 MSTORE DUP1 PUSH1 0x1F ADD PUSH1 0x1F NOT AND PUSH1 0x20 ADD DUP3 ADD PUSH1 0x40 MSTORE DUP1 ISZERO PUSH2 0x265C JUMPI PUSH1 0x20 DUP3 ADD DUP2 DUP1 CALLDATASIZE DUP4 CALLDATACOPY ADD SWAP1 POP JUMPDEST POP SWAP1 POP PUSH1 0x3 PUSH1 0xFC SHL DUP2 PUSH1 0x0 DUP2 MLOAD DUP2 LT PUSH2 0x2677 JUMPI PUSH2 0x2677 PUSH2 0x4058 JUMP JUMPDEST PUSH1 0x20 ADD ADD SWAP1 PUSH1 0x1 PUSH1 0x1 PUSH1 0xF8 SHL SUB NOT AND SWAP1 DUP2 PUSH1 0x0 BYTE SWAP1 MSTORE8 POP PUSH1 0xF PUSH1 0xFB SHL DUP2 PUSH1 0x1 DUP2 MLOAD DUP2 LT PUSH2 0x26A6 JUMPI PUSH2 0x26A6 PUSH2 0x4058 JUMP JUMPDEST PUSH1 0x20 ADD ADD SWAP1 PUSH1 0x1 PUSH1 0x1 PUSH1 0xF8 SHL SUB NOT AND SWAP1 DUP2 PUSH1 0x0 BYTE SWAP1 MSTORE8 POP PUSH1 0x0 PUSH2 0x26CA DUP5 PUSH1 0x2 PUSH2 0x4039 JUMP JUMPDEST PUSH2 0x26D5 SWAP1 PUSH1 0x1 PUSH2 0x2D95 JUMP JUMPDEST SWAP1 POP JUMPDEST PUSH1 0x1 DUP2 GT ISZERO PUSH2 0x274D JUMPI PUSH16 0x181899199A1A9B1B9C1CB0B131B232B3 PUSH1 0x81 SHL DUP6 PUSH1 0xF AND PUSH1 0x10 DUP2 LT PUSH2 0x2709 JUMPI PUSH2 0x2709 PUSH2 0x4058 JUMP JUMPDEST BYTE PUSH1 0xF8 SHL DUP3 DUP3 DUP2 MLOAD DUP2 LT PUSH2 0x271F JUMPI PUSH2 0x271F PUSH2 0x4058 JUMP JUMPDEST PUSH1 0x20 ADD ADD SWAP1 PUSH1 0x1 PUSH1 0x1 PUSH1 0xF8 SHL SUB NOT AND SWAP1 DUP2 PUSH1 0x0 BYTE SWAP1 MSTORE8 POP PUSH1 0x4 SWAP5 SWAP1 SWAP5 SHR SWAP4 PUSH2 0x2746 DUP2 PUSH2 0x406E JUMP JUMPDEST SWAP1 POP PUSH2 0x26D8 JUMP JUMPDEST POP DUP4 ISZERO PUSH2 0x279C JUMPI PUSH1 0x40 MLOAD PUSH3 0x461BCD PUSH1 0xE5 SHL DUP2 MSTORE PUSH1 0x20 PUSH1 0x4 DUP3 ADD DUP2 SWAP1 MSTORE PUSH1 0x24 DUP3 ADD MSTORE PUSH32 0x537472696E67733A20686578206C656E67746820696E73756666696369656E74 PUSH1 0x44 DUP3 ADD MSTORE PUSH1 0x64 ADD PUSH2 0x7C4 JUMP JUMPDEST SWAP4 SWAP3 POP POP POP JUMP JUMPDEST PUSH1 0x1 PUSH1 0x1 PUSH1 0xE0 SHL SUB NOT DUP2 AND DUP2 EQ PUSH2 0x19BF JUMPI PUSH1 0x0 DUP1 REVERT JUMPDEST PUSH1 0x0 PUSH1 0x20 DUP3 DUP5 SUB SLT ISZERO PUSH2 0x27CB JUMPI PUSH1 0x0 DUP1 REVERT JUMPDEST DUP2 CALLDATALOAD PUSH2 0x279C DUP2 PUSH2 0x27A3 JUMP JUMPDEST PUSH1 0x0 JUMPDEST DUP4 DUP2 LT ISZERO PUSH2 0x27F1 JUMPI DUP2 DUP2 ADD MLOAD DUP4 DUP3 ADD MSTORE PUSH1 0x20 ADD PUSH2 0x27D9 JUMP JUMPDEST DUP4 DUP2 GT ISZERO PUSH2 0x151E JUMPI POP POP PUSH1 0x0 SWAP2 ADD MSTORE JUMP JUMPDEST PUSH1 0x0 DUP2 MLOAD DUP1 DUP5 MSTORE PUSH2 0x281A DUP2 PUSH1 0x20 DUP7 ADD PUSH1 0x20 DUP7 ADD PUSH2 0x27D6 JUMP JUMPDEST PUSH1 0x1F ADD PUSH1 0x1F NOT AND SWAP3 SWAP1 SWAP3 ADD PUSH1 0x20 ADD SWAP3 SWAP2 POP POP JUMP JUMPDEST PUSH1 0x20 DUP2 MSTORE PUSH1 0x0 PUSH2 0x279C PUSH1 0x20 DUP4 ADD DUP5 PUSH2 0x2802 JUMP JUMPDEST PUSH1 0x0 PUSH1 0x20 DUP3 DUP5 SUB SLT ISZERO PUSH2 0x2853 JUMPI PUSH1 0x0 DUP1 REVERT JUMPDEST POP CALLDATALOAD SWAP2 SWAP1 POP JUMP JUMPDEST DUP1 CALLDATALOAD PUSH1 0x1 PUSH1 0x1 PUSH1 0xA0 SHL SUB DUP2 AND DUP2 EQ PUSH2 0x2871 JUMPI PUSH1 0x0 DUP1 REVERT JUMPDEST SWAP2 SWAP1 POP JUMP JUMPDEST PUSH1 0x0 DUP1 PUSH1 0x40 DUP4 DUP6 SUB SLT ISZERO PUSH2 0x2889 JUMPI PUSH1 0x0 DUP1 REVERT JUMPDEST PUSH2 0x2892 DUP4 PUSH2 0x285A JUMP JUMPDEST SWAP5 PUSH1 0x20 SWAP4 SWAP1 SWAP4 ADD CALLDATALOAD SWAP4 POP POP POP JUMP JUMPDEST PUSH1 0x0 DUP1 DUP4 PUSH1 0x1F DUP5 ADD SLT PUSH2 0x28B2 JUMPI PUSH1 0x0 DUP1 REVERT JUMPDEST POP DUP2 CALLDATALOAD PUSH8 0xFFFFFFFFFFFFFFFF DUP2 GT ISZERO PUSH2 0x28CA JUMPI PUSH1 0x0 DUP1 REVERT JUMPDEST PUSH1 0x20 DUP4 ADD SWAP2 POP DUP4 PUSH1 0x20 DUP3 DUP6 ADD ADD GT ISZERO PUSH2 0x28E2 JUMPI PUSH1 0x0 DUP1 REVERT JUMPDEST SWAP3 POP SWAP3 SWAP1 POP JUMP JUMPDEST PUSH1 0x0 DUP1 PUSH1 0x0 DUP1 PUSH1 0x60 DUP6 DUP8 SUB SLT ISZERO PUSH2 0x28FF JUMPI PUSH1 0x0 DUP1 REVERT JUMPDEST DUP5 CALLDATALOAD SWAP4 POP PUSH1 0x20 DUP6 ADD CALLDATALOAD SWAP3 POP PUSH1 0x40 DUP6 ADD CALLDATALOAD PUSH8 0xFFFFFFFFFFFFFFFF DUP2 GT ISZERO PUSH2 0x2924 JUMPI PUSH1 0x0 DUP1 REVERT JUMPDEST PUSH2 0x2930 DUP8 DUP3 DUP9 ADD PUSH2 0x28A0 JUMP JUMPDEST SWAP6 SWAP9 SWAP5 SWAP8 POP SWAP6 POP POP POP POP JUMP JUMPDEST PUSH1 0x0 PUSH1 0x20 DUP3 DUP5 SUB SLT ISZERO PUSH2 0x294E JUMPI PUSH1 0x0 DUP1 REVERT JUMPDEST PUSH2 0x279C DUP3 PUSH2 0x285A JUMP JUMPDEST PUSH1 0x0 DUP1 PUSH1 0x0 PUSH1 0x60 DUP5 DUP7 SUB SLT ISZERO PUSH2 0x296C JUMPI PUSH1 0x0 DUP1 REVERT JUMPDEST PUSH2 0x2975 DUP5 PUSH2 0x285A JUMP JUMPDEST SWAP3 POP PUSH2 0x2983 PUSH1 0x20 DUP6 ADD PUSH2 0x285A JUMP JUMPDEST SWAP2 POP PUSH1 0x40 DUP5 ADD CALLDATALOAD SWAP1 POP SWAP3 POP SWAP3 POP SWAP3 JUMP JUMPDEST PUSH1 0x0 DUP1 PUSH1 0x0 PUSH1 0x40 DUP5 DUP7 SUB SLT ISZERO PUSH2 0x29A8 JUMPI PUSH1 0x0 DUP1 REVERT JUMPDEST DUP4 CALLDATALOAD SWAP3 POP PUSH1 0x20 DUP5 ADD CALLDATALOAD PUSH8 0xFFFFFFFFFFFFFFFF DUP2 GT ISZERO PUSH2 0x29C6 JUMPI PUSH1 0x0 DUP1 REVERT JUMPDEST PUSH2 0x29D2 DUP7 DUP3 DUP8 ADD PUSH2 0x28A0 JUMP JUMPDEST SWAP5 SWAP8 SWAP1 SWAP7 POP SWAP4 SWAP5 POP POP POP POP JUMP JUMPDEST PUSH1 0x0 DUP1 PUSH1 0x40 DUP4 DUP6 SUB SLT ISZERO PUSH2 0x29F2 JUMPI PUSH1 0x0 DUP1 REVERT JUMPDEST DUP3 CALLDATALOAD SWAP2 POP PUSH2 0x2A02 PUSH1 0x20 DUP5 ADD PUSH2 0x285A JUMP JUMPDEST SWAP1 POP SWAP3 POP SWAP3 SWAP1 POP JUMP JUMPDEST DUP1 CALLDATALOAD DUP1 ISZERO ISZERO DUP2 EQ PUSH2 0x2871 JUMPI PUSH1 0x0 DUP1 REVERT JUMPDEST PUSH1 0x0 DUP1 PUSH1 0x40 DUP4 DUP6 SUB SLT ISZERO PUSH2 0x2A2E JUMPI PUSH1 0x0 DUP1 REVERT JUMPDEST DUP3 CALLDATALOAD SWAP2 POP PUSH2 0x2A02 PUSH1 0x20 DUP5 ADD PUSH2 0x2A0B JUMP JUMPDEST PUSH4 0x4E487B71 PUSH1 0xE0 SHL PUSH1 0x0 MSTORE PUSH1 0x41 PUSH1 0x4 MSTORE PUSH1 0x24 PUSH1 0x0 REVERT JUMPDEST PUSH1 0x0 PUSH8 0xFFFFFFFFFFFFFFFF DUP1 DUP5 GT ISZERO PUSH2 0x2A6F JUMPI PUSH2 0x2A6F PUSH2 0x2A3E JUMP JUMPDEST PUSH1 0x40 MLOAD PUSH1 0x1F DUP6 ADD PUSH1 0x1F NOT SWAP1 DUP2 AND PUSH1 0x3F ADD AND DUP2 ADD SWAP1 DUP3 DUP3 GT DUP2 DUP4 LT OR ISZERO PUSH2 0x2A97 JUMPI PUSH2 0x2A97 PUSH2 0x2A3E JUMP JUMPDEST DUP2 PUSH1 0x40 MSTORE DUP1 SWAP4 POP DUP6 DUP2 MSTORE DUP7 DUP7 DUP7 ADD GT ISZERO PUSH2 0x2AB0 JUMPI PUSH1 0x0 DUP1 REVERT JUMPDEST DUP6 DUP6 PUSH1 0x20 DUP4 ADD CALLDATACOPY PUSH1 0x0 PUSH1 0x20 DUP8 DUP4 ADD ADD MSTORE POP POP POP SWAP4 SWAP3 POP POP POP JUMP JUMPDEST PUSH1 0x0 DUP1 PUSH1 0x0 PUSH1 0x60 DUP5 DUP7 SUB SLT ISZERO PUSH2 0x2ADF JUMPI PUSH1 0x0 DUP1 REVERT JUMPDEST DUP4 CALLDATALOAD SWAP3 POP PUSH1 0x20 DUP5 ADD CALLDATALOAD PUSH8 0xFFFFFFFFFFFFFFFF DUP2 GT ISZERO PUSH2 0x2AFD JUMPI PUSH1 0x0 DUP1 REVERT JUMPDEST DUP5 ADD PUSH1 0x1F DUP2 ADD DUP7 SGT PUSH2 0x2B0E JUMPI PUSH1 0x0 DUP1 REVERT JUMPDEST PUSH2 0x2B1D DUP7 DUP3 CALLDATALOAD PUSH1 0x20 DUP5 ADD PUSH2 0x2A54 JUMP JUMPDEST SWAP3 POP POP PUSH2 0x2B2C PUSH1 0x40 DUP6 ADD PUSH2 0x285A JUMP JUMPDEST SWAP1 POP SWAP3 POP SWAP3 POP SWAP3 JUMP JUMPDEST PUSH1 0x0 DUP1 PUSH1 0x40 DUP4 DUP6 SUB SLT ISZERO PUSH2 0x2B48 JUMPI PUSH1 0x0 DUP1 REVERT JUMPDEST PUSH2 0x2B51 DUP4 PUSH2 0x285A JUMP JUMPDEST SWAP2 POP PUSH2 0x2A02 PUSH1 0x20 DUP5 ADD PUSH2 0x2A0B JUMP JUMPDEST PUSH1 0x0 DUP1 PUSH1 0x40 DUP4 DUP6 SUB SLT ISZERO PUSH2 0x2B72 JUMPI PUSH1 0x0 DUP1 REVERT JUMPDEST POP POP DUP1 CALLDATALOAD SWAP3 PUSH1 0x20 SWAP1 SWAP2 ADD CALLDATALOAD SWAP2 POP JUMP JUMPDEST PUSH1 0x0 DUP1 PUSH1 0x0 DUP1 PUSH1 0x80 DUP6 DUP8 SUB SLT ISZERO PUSH2 0x2B97 JUMPI PUSH1 0x0 DUP1 REVERT JUMPDEST PUSH2 0x2BA0 DUP6 PUSH2 0x285A JUMP JUMPDEST SWAP4 POP PUSH2 0x2BAE PUSH1 0x20 DUP7 ADD PUSH2 0x285A JUMP JUMPDEST SWAP3 POP PUSH1 0x40 DUP6 ADD CALLDATALOAD SWAP2 POP PUSH1 0x60 DUP6 ADD CALLDATALOAD PUSH8 0xFFFFFFFFFFFFFFFF DUP2 GT ISZERO PUSH2 0x2BD1 JUMPI PUSH1 0x0 DUP1 REVERT JUMPDEST DUP6 ADD PUSH1 0x1F DUP2 ADD DUP8 SGT PUSH2 0x2BE2 JUMPI PUSH1 0x0 DUP1 REVERT JUMPDEST PUSH2 0x2BF1 DUP8 DUP3 CALLDATALOAD PUSH1 0x20 DUP5 ADD PUSH2 0x2A54 JUMP JUMPDEST SWAP2 POP POP SWAP3 SWAP6 SWAP2 SWAP5 POP SWAP3 POP JUMP JUMPDEST PUSH4 0x4E487B71 PUSH1 0xE0 SHL PUSH1 0x0 MSTORE PUSH1 0x21 PUSH1 0x4 MSTORE PUSH1 0x24 PUSH1 0x0 REVERT JUMPDEST PUSH1 0x0 PUSH2 0x120 DUP12 DUP4 MSTORE DUP1 PUSH1 0x20 DUP5 ADD MSTORE PUSH2 0x2C2D DUP2 DUP5 ADD DUP13 PUSH2 0x2802 JUMP JUMPDEST SWAP1 POP DUP3 DUP2 SUB PUSH1 0x40 DUP5 ADD MSTORE PUSH2 0x2C41 DUP2 DUP12 PUSH2 0x2802 JUMP JUMPDEST SWAP1 POP DUP9 PUSH1 0x60 DUP5 ADD MSTORE DUP8 PUSH1 0x80 DUP5 ADD MSTORE DUP3 DUP2 SUB PUSH1 0xA0 DUP5 ADD MSTORE PUSH2 0x2C61 DUP2 DUP9 PUSH2 0x2802 JUMP JUMPDEST SWAP2 POP POP DUP5 PUSH1 0xC0 DUP4 ADD MSTORE DUP4 PUSH1 0xE0 DUP4 ADD MSTORE PUSH1 0x9 DUP4 LT PUSH2 0x2C8E JUMPI PUSH4 0x4E487B71 PUSH1 0xE0 SHL PUSH1 0x0 MSTORE PUSH1 0x21 PUSH1 0x4 MSTORE PUSH1 0x24 PUSH1 0x0 REVERT JUMPDEST DUP3 PUSH2 0x100 DUP4 ADD MSTORE SWAP11 SWAP10 POP POP POP POP POP POP POP POP POP POP JUMP JUMPDEST PUSH1 0x0 DUP1 PUSH1 0x40 DUP4 DUP6 SUB SLT ISZERO PUSH2 0x2CB6 JUMPI PUSH1 0x0 DUP1 REVERT JUMPDEST PUSH2 0x2CBF DUP4 PUSH2 0x285A JUMP JUMPDEST SWAP2 POP PUSH2 0x2A02 PUSH1 0x20 DUP5 ADD PUSH2 0x285A JUMP JUMPDEST DUP7 DUP2 MSTORE DUP6 PUSH1 0x20 DUP3 ADD MSTORE PUSH1 0xC0 PUSH1 0x40 DUP3 ADD MSTORE PUSH1 0x0 PUSH2 0x2CEC PUSH1 0xC0 DUP4 ADD DUP8 PUSH2 0x2802 JUMP JUMPDEST PUSH1 0x60 DUP4 ADD SWAP6 SWAP1 SWAP6 MSTORE POP PUSH1 0x1 PUSH1 0x1 PUSH1 0xA0 SHL SUB SWAP3 SWAP1 SWAP3 AND PUSH1 0x80 DUP4 ADD MSTORE ISZERO ISZERO PUSH1 0xA0 SWAP1 SWAP2 ADD MSTORE SWAP4 SWAP3 POP POP POP JUMP JUMPDEST PUSH1 0x1 DUP2 DUP2 SHR SWAP1 DUP3 AND DUP1 PUSH2 0x2D29 JUMPI PUSH1 0x7F DUP3 AND SWAP2 POP JUMPDEST PUSH1 0x20 DUP3 LT DUP2 SUB PUSH2 0x2D49 JUMPI PUSH4 0x4E487B71 PUSH1 0xE0 SHL PUSH1 0x0 MSTORE PUSH1 0x22 PUSH1 0x4 MSTORE PUSH1 0x24 PUSH1 0x0 REVERT JUMPDEST POP SWAP2 SWAP1 POP JUMP JUMPDEST PUSH1 0x20 DUP1 DUP3 MSTORE PUSH1 0x16 SWAP1 DUP3 ADD MSTORE PUSH22 0x125B9D985B1A5908105C1C1B1A58D85D1A5BDB881259 PUSH1 0x52 SHL PUSH1 0x40 DUP3 ADD MSTORE PUSH1 0x60 ADD SWAP1 JUMP JUMPDEST PUSH4 0x4E487B71 PUSH1 0xE0 SHL PUSH1 0x0 MSTORE PUSH1 0x11 PUSH1 0x4 MSTORE PUSH1 0x24 PUSH1 0x0 REVERT JUMPDEST PUSH1 0x0 DUP3 NOT DUP3 GT ISZERO PUSH2 0x2DA8 JUMPI PUSH2 0x2DA8 PUSH2 0x2D7F JUMP JUMPDEST POP ADD SWAP1 JUMP JUMPDEST PUSH1 0x1F DUP3 GT ISZERO PUSH2 0x865 JUMPI PUSH1 0x0 DUP2 DUP2 MSTORE PUSH1 0x20 DUP2 KECCAK256 PUSH1 0x1F DUP6 ADD PUSH1 0x5 SHR DUP2 ADD PUSH1 0x20 DUP7 LT ISZERO PUSH2 0x2DD4 JUMPI POP DUP1 JUMPDEST PUSH1 0x1F DUP6 ADD PUSH1 0x5 SHR DUP3 ADD SWAP2 POP JUMPDEST DUP2 DUP2 LT ISZERO PUSH2 0x2DF3 JUMPI DUP3 DUP2 SSTORE PUSH1 0x1 ADD PUSH2 0x2DE0 JUMP JUMPDEST POP POP POP POP POP POP JUMP JUMPDEST PUSH8 0xFFFFFFFFFFFFFFFF DUP4 GT ISZERO PUSH2 0x2E13 JUMPI PUSH2 0x2E13 PUSH2 0x2A3E JUMP JUMPDEST PUSH2 0x2E27 DUP4 PUSH2 0x2E21 DUP4 SLOAD PUSH2 0x2D15 JUMP JUMPDEST DUP4 PUSH2 0x2DAD JUMP JUMPDEST PUSH1 0x0 PUSH1 0x1F DUP5 GT PUSH1 0x1 DUP2 EQ PUSH2 0x2E5B JUMPI PUSH1 0x0 DUP6 ISZERO PUSH2 0x2E43 JUMPI POP DUP4 DUP3 ADD CALLDATALOAD JUMPDEST PUSH1 0x0 NOT PUSH1 0x3 DUP8 SWAP1 SHL SHR NOT AND PUSH1 0x1 DUP7 SWAP1 SHL OR DUP4 SSTORE PUSH2 0x2EB5 JUMP JUMPDEST PUSH1 0x0 DUP4 DUP2 MSTORE PUSH1 0x20 SWAP1 KECCAK256 PUSH1 0x1F NOT DUP7 AND SWAP1 DUP4 JUMPDEST DUP3 DUP2 LT ISZERO PUSH2 0x2E8C JUMPI DUP7 DUP6 ADD CALLDATALOAD DUP3 SSTORE PUSH1 0x20 SWAP5 DUP6 ADD SWAP5 PUSH1 0x1 SWAP1 SWAP3 ADD SWAP2 ADD PUSH2 0x2E6C JUMP JUMPDEST POP DUP7 DUP3 LT ISZERO PUSH2 0x2EA9 JUMPI PUSH1 0x0 NOT PUSH1 0xF8 DUP9 PUSH1 0x3 SHL AND SHR NOT DUP5 DUP8 ADD CALLDATALOAD AND DUP2 SSTORE JUMPDEST POP POP PUSH1 0x1 DUP6 PUSH1 0x1 SHL ADD DUP4 SSTORE JUMPDEST POP POP POP POP POP JUMP JUMPDEST DUP2 DUP4 MSTORE DUP2 DUP2 PUSH1 0x20 DUP6 ADD CALLDATACOPY POP PUSH1 0x0 DUP3 DUP3 ADD PUSH1 0x20 SWAP1 DUP2 ADD SWAP2 SWAP1 SWAP2 MSTORE PUSH1 0x1F SWAP1 SWAP2 ADD PUSH1 0x1F NOT AND SWAP1 SWAP2 ADD ADD SWAP1 JUMP JUMPDEST DUP5 DUP2 MSTORE DUP4 PUSH1 0x20 DUP3 ADD MSTORE PUSH1 0x60 PUSH1 0x40 DUP3 ADD MSTORE PUSH1 0x0 PUSH2 0x2F05 PUSH1 0x60 DUP4 ADD DUP5 DUP7 PUSH2 0x2EBC JUMP JUMPDEST SWAP7 SWAP6 POP POP POP POP POP POP JUMP JUMPDEST PUSH1 0x20 DUP1 DUP3 MSTORE PUSH1 0x2D SWAP1 DUP3 ADD MSTORE PUSH32 0x4552433732313A2063616C6C6572206973206E6F7420746F6B656E206F776E65 PUSH1 0x40 DUP3 ADD MSTORE PUSH13 0x1C881BDC88185C1C1C9BDD9959 PUSH1 0x9A SHL PUSH1 0x60 DUP3 ADD MSTORE PUSH1 0x80 ADD SWAP1 JUMP JUMPDEST DUP2 MLOAD PUSH8 0xFFFFFFFFFFFFFFFF DUP2 GT ISZERO PUSH2 0x2F76 JUMPI PUSH2 0x2F76 PUSH2 0x2A3E JUMP JUMPDEST PUSH2 0x2F8A DUP2 PUSH2 0x2F84 DUP5 SLOAD PUSH2 0x2D15 JUMP JUMPDEST DUP5 PUSH2 0x2DAD JUMP JUMPDEST PUSH1 0x20 DUP1 PUSH1 0x1F DUP4 GT PUSH1 0x1 DUP2 EQ PUSH2 0x2FBF JUMPI PUSH1 0x0 DUP5 ISZERO PUSH2 0x2FA7 JUMPI POP DUP6 DUP4 ADD MLOAD JUMPDEST PUSH1 0x0 NOT PUSH1 0x3 DUP7 SWAP1 SHL SHR NOT AND PUSH1 0x1 DUP6 SWAP1 SHL OR DUP6 SSTORE PUSH2 0x2DF3 JUMP JUMPDEST PUSH1 0x0 DUP6 DUP2 MSTORE PUSH1 0x20 DUP2 KECCAK256 PUSH1 0x1F NOT DUP7 AND SWAP2 JUMPDEST DUP3 DUP2 LT ISZERO PUSH2 0x2FEE JUMPI DUP9 DUP7 ADD MLOAD DUP3 SSTORE SWAP5 DUP5 ADD SWAP5 PUSH1 0x1 SWAP1 SWAP2 ADD SWAP1 DUP5 ADD PUSH2 0x2FCF JUMP JUMPDEST POP DUP6 DUP3 LT ISZERO PUSH2 0x300C JUMPI DUP8 DUP6 ADD MLOAD PUSH1 0x0 NOT PUSH1 0x3 DUP9 SWAP1 SHL PUSH1 0xF8 AND SHR NOT AND DUP2 SSTORE JUMPDEST POP POP POP POP POP PUSH1 0x1 SWAP1 DUP2 SHL ADD SWAP1 SSTORE POP JUMP JUMPDEST PUSH1 0x0 PUSH1 0x1 DUP3 ADD PUSH2 0x302E JUMPI PUSH2 0x302E PUSH2 0x2D7F JUMP JUMPDEST POP PUSH1 0x1 ADD SWAP1 JUMP JUMPDEST DUP5 DUP2 MSTORE PUSH1 0x60 PUSH1 0x20 DUP3 ADD MSTORE PUSH1 0x0 PUSH2 0x304F PUSH1 0x60 DUP4 ADD DUP6 DUP8 PUSH2 0x2EBC JUMP JUMPDEST SWAP1 POP DUP3 PUSH1 0x40 DUP4 ADD MSTORE SWAP6 SWAP5 POP POP POP POP POP JUMP JUMPDEST PUSH1 0x0 DUP2 SLOAD PUSH2 0x306D DUP2 PUSH2 0x2D15 JUMP JUMPDEST PUSH1 0x1 DUP3 DUP2 AND DUP1 ISZERO PUSH2 0x3085 JUMPI PUSH1 0x1 DUP2 EQ PUSH2 0x309A JUMPI PUSH2 0x30C9 JUMP JUMPDEST PUSH1 0xFF NOT DUP5 AND DUP8 MSTORE DUP3 ISZERO ISZERO DUP4 MUL DUP8 ADD SWAP5 POP PUSH2 0x30C9 JUMP JUMPDEST DUP6 PUSH1 0x0 MSTORE PUSH1 0x20 DUP1 PUSH1 0x0 KECCAK256 PUSH1 0x0 JUMPDEST DUP6 DUP2 LT ISZERO PUSH2 0x30C0 JUMPI DUP2 SLOAD DUP11 DUP3 ADD MSTORE SWAP1 DUP5 ADD SWAP1 DUP3 ADD PUSH2 0x30A7 JUMP JUMPDEST POP POP POP DUP3 DUP8 ADD SWAP5 POP JUMPDEST POP POP POP POP SWAP3 SWAP2 POP POP JUMP JUMPDEST PUSH1 0x0 PUSH2 0x279C DUP3 DUP5 PUSH2 0x3060 JUMP JUMPDEST PUSH1 0x0 DUP2 MLOAD PUSH2 0x30F1 DUP2 DUP6 PUSH1 0x20 DUP7 ADD PUSH2 0x27D6 JUMP JUMPDEST SWAP3 SWAP1 SWAP3 ADD SWAP3 SWAP2 POP POP JUMP JUMPDEST PUSH1 0x0 DUP6 MLOAD PUSH2 0x310D DUP2 DUP5 PUSH1 0x20 DUP11 ADD PUSH2 0x27D6 JUMP JUMPDEST PUSH32 0x3C706174682069643D224461746520426F726465722220207374726F6B653D22 SWAP1 DUP4 ADD SWAP1 DUP2 MSTORE PUSH32 0x2330303030303022207374726F6B652D77696474683D223322206F7061636974 PUSH1 0x20 DUP3 ADD MSTORE PUSH32 0x793D223930252220643D224D2031323720313430207620333020683136302076 PUSH1 0x40 DUP3 ADD MSTORE PUSH32 0x202D3330207A222066696C6C3D2223666666666666222F3E2000000000000000 PUSH1 0x60 DUP3 ADD MSTORE PUSH32 0x3C746578742069643D2244617465312220783D2237332220793D223136302220 PUSH1 0x79 DUP3 ADD MSTORE PUSH32 0x7374796C653D22666F6E742D66616D696C793A4D6F6E6F73706163653B666F6E PUSH1 0x99 DUP3 ADD MSTORE PUSH32 0x742D73697A653A3135223E446174653A203C2F746578743E3C74657874206964 PUSH1 0xB9 DUP3 ADD MSTORE PUSH32 0x3D2244617465322220783D223133352220793D2231363022207374796C653D22 PUSH1 0xD9 DUP3 ADD MSTORE PUSH32 0x666F6E742D66616D696C793A4D6F6E6F73706163653B666F6E742D73697A653A PUSH1 0xF9 DUP3 ADD MSTORE PUSH4 0x189A911F PUSH1 0xE1 SHL PUSH2 0x119 DUP3 ADD MSTORE PUSH2 0x35E4 PUSH2 0x35CB PUSH2 0x35C5 PUSH2 0x3404 PUSH2 0x33FE PUSH2 0x332D PUSH2 0x3292 PUSH2 0x11D DUP9 ADD DUP14 PUSH2 0x3060 JUMP JUMPDEST PUSH32 0x3C2F746578743E3C706174682069643D22436C6173732220207374726F6B653D DUP2 MSTORE PUSH32 0x222330303030303022207374726F6B652D77696474683D223322206F70616369 PUSH1 0x20 DUP3 ADD MSTORE PUSH32 0x74793D223930252220643D224D20313237203139302076203330206831363020 PUSH1 0x40 DUP3 ADD MSTORE PUSH32 0x76202D3330207A222066696C6C3D2223666666666666222F3E00000000000000 PUSH1 0x60 DUP3 ADD MSTORE PUSH1 0x79 ADD SWAP1 JUMP JUMPDEST PUSH32 0x3C746578742069643D22436C617373312220783D2236342220793D2232313022 DUP2 MSTORE PUSH32 0x207374796C653D22666F6E742D66616D696C793A4D6F6E6F73706163653B666F PUSH1 0x20 DUP3 ADD MSTORE PUSH32 0x6E742D73697A653A3135223E47726F75703A203C2F746578743E3C7465787420 PUSH1 0x40 DUP3 ADD MSTORE PUSH32 0x69643D22436C617373322220783D223133352220793D2232313022207374796C PUSH1 0x60 DUP3 ADD MSTORE PUSH32 0x653D22666F6E742D66616D696C793A4D6F6E6F73706163653B666F6E742D7369 PUSH1 0x80 DUP3 ADD MSTORE PUSH7 0x3D329D189A911F PUSH1 0xC9 SHL PUSH1 0xA0 DUP3 ADD MSTORE PUSH1 0xA7 ADD SWAP1 JUMP JUMPDEST DUP10 PUSH2 0x3060 JUMP JUMPDEST PUSH32 0x3C2F746578743E3C706174682069643D22556E69747320426F72646572222020 DUP2 MSTORE PUSH32 0x7374726F6B653D222330303030303022207374726F6B652D77696474683D2233 PUSH1 0x20 DUP3 ADD MSTORE PUSH32 0x22206F7061636974793D223930252220643D224D203132372032343020762033 PUSH1 0x40 DUP3 ADD MSTORE PUSH32 0x3020683136302076202D3330207A222066696C6C3D2223666666666666222F3E PUSH1 0x60 DUP3 ADD MSTORE PUSH32 0x3C746578742069643D22556E697473312220783D2236352220793D2232363022 PUSH1 0x80 DUP3 ADD MSTORE PUSH32 0x207374796C653D22666F6E742D66616D696C793A4D6F6E6F73706163653B666F PUSH1 0xA0 DUP3 ADD MSTORE PUSH32 0x6E742D73697A653A3135223E556E6974733A203C2F746578743E3C7465787420 PUSH1 0xC0 DUP3 ADD MSTORE PUSH32 0x69643D22556E697473322220783D2232372220793D2232373522207374796C65 PUSH1 0xE0 DUP3 ADD MSTORE PUSH32 0x3D22666F6E742D66616D696C793A4D6F6E6F73706163653B666F6E742D73697A PUSH2 0x100 DUP3 ADD DUP2 SWAP1 MSTORE PUSH32 0x653A3132223E283335306D6C2F556E6974293C2F746578743E3C746578742069 PUSH2 0x120 DUP4 ADD MSTORE PUSH32 0x643D22556E697473332220783D223133352220793D2232363022207374796C65 PUSH2 0x140 DUP4 ADD MSTORE PUSH2 0x160 DUP3 ADD MSTORE PUSH6 0x329D189A911F PUSH1 0xD1 SHL PUSH2 0x180 DUP3 ADD MSTORE PUSH2 0x186 ADD SWAP1 JUMP JUMPDEST DUP7 PUSH2 0x30DF JUMP JUMPDEST PUSH13 0x1E17BA32BC3A1F1E17B9BB339F PUSH1 0x99 SHL DUP2 MSTORE PUSH1 0xD ADD SWAP1 JUMP JUMPDEST SWAP8 SWAP7 POP POP POP POP POP POP POP JUMP JUMPDEST DUP4 DUP2 MSTORE PUSH1 0x60 PUSH1 0x20 DUP3 ADD MSTORE PUSH1 0x0 PUSH2 0x3608 PUSH1 0x60 DUP4 ADD DUP6 PUSH2 0x2802 JUMP JUMPDEST SWAP1 POP PUSH1 0x1 DUP1 PUSH1 0xA0 SHL SUB DUP4 AND PUSH1 0x40 DUP4 ADD MSTORE SWAP5 SWAP4 POP POP POP POP JUMP JUMPDEST PUSH1 0x20 DUP1 DUP3 MSTORE PUSH1 0x25 SWAP1 DUP3 ADD MSTORE PUSH32 0x4552433732313A207472616E736665722066726F6D20696E636F727265637420 PUSH1 0x40 DUP3 ADD MSTORE PUSH5 0x37BBB732B9 PUSH1 0xD9 SHL PUSH1 0x60 DUP3 ADD MSTORE PUSH1 0x80 ADD SWAP1 JUMP JUMPDEST PUSH32 0x3C73766720786D6C6E733D22687474703A2F2F7777772E77332E6F72672F3230 DUP2 MSTORE PUSH32 0x30302F73766722207374796C653D226261636B67726F756E643A236666666622 PUSH1 0x20 DUP3 ADD MSTORE PUSH32 0x2077696474683D2233303022206865696768743D22333030223E000000000000 PUSH1 0x40 DUP3 ADD MSTORE PUSH32 0x3C726563742069643D226865616465722220783D22302220793D223022207769 PUSH1 0x5A DUP3 ADD MSTORE PUSH32 0x6474683D2233353022206865696768743D22363922206F7061636974793D2239 PUSH1 0x7A DUP3 ADD MSTORE PUSH32 0x3025222066696C6C3D22726762612836332C302C31362C302E39333829222F3E PUSH1 0x9A DUP3 ADD MSTORE PUSH32 0x3C746578742069643D22426C6F6F6444204865616465722220783D2236382220 PUSH1 0xBA DUP3 ADD MSTORE PUSH32 0x793D22333022202066696C6C3D222366666436643622207374796C653D22666F PUSH1 0xDA DUP3 ADD MSTORE PUSH32 0x6E743A2032307078205A617066696E6F3B666F6E742D73697A653A3133223E42 PUSH1 0xFA DUP3 ADD MSTORE PUSH21 0x3637B7B21016902210169027232A1E17BA32BC3A1F PUSH1 0x59 SHL PUSH2 0x11A DUP3 ADD MSTORE PUSH32 0x3C746578742069643D224F7065726174696F6E49642220783D2233352220793D PUSH2 0x12F DUP3 ADD MSTORE PUSH32 0x223633222066696C6C3D222366656366636622207374796C653D22666F6E743A PUSH2 0x14F DUP3 ADD MSTORE PUSH32 0x203230707820436F70706572706C617465203B666F6E742D73697A653A323022 PUSH2 0x16F DUP3 ADD MSTORE PUSH21 0x3E20446F6E6F72204170706C69636174696F6E2023 PUSH1 0x58 SHL PUSH2 0x18F DUP3 ADD MSTORE PUSH1 0x0 PUSH2 0x1AB1 PUSH2 0x388E PUSH2 0x3C55 PUSH2 0x3BF4 PUSH2 0x3AE7 PUSH2 0x3952 PUSH2 0x38A1 DUP6 PUSH2 0x1A4 DUP11 ADD DUP13 PUSH2 0x30DF JUMP JUMPDEST PUSH7 0x1E17BA32BC3A1F PUSH1 0xC9 SHL DUP2 MSTORE PUSH1 0x7 ADD SWAP1 JUMP JUMPDEST PUSH32 0x3C706174682069643D22706C7573222066696C6C3D2223656539313931222073 DUP2 MSTORE PUSH32 0x74726F6B653D222366666666666622207374726F6B652D77696474683D223322 PUSH1 0x20 DUP3 ADD MSTORE PUSH32 0x2020643D224D20322031363820682032352076202D3235206820333020762032 PUSH1 0x40 DUP3 ADD MSTORE PUSH32 0x35206820323520762032352068202D323520762032352068202D33302076202D PUSH1 0x60 DUP3 ADD MSTORE PUSH13 0x191A903416991A903D1110179F PUSH1 0x99 SHL PUSH1 0x80 DUP3 ADD MSTORE PUSH1 0x8D ADD SWAP1 JUMP JUMPDEST PUSH32 0x3C673E3C726563742069643D2263616E7661732220783D22302220793D223731 DUP2 MSTORE PUSH32 0x222077696474683D223134302E3822206865696768743D223130302522206F70 PUSH1 0x20 DUP3 ADD MSTORE PUSH32 0x61636974793D22383525222066696C6C3D2223656334373464223E3C2F726563 PUSH1 0x40 DUP3 ADD MSTORE PUSH32 0x743E203C726563742069643D2263616E7661732220783D223134312220793D22 PUSH1 0x60 DUP3 ADD MSTORE PUSH32 0x3731222077696474683D223130302522206865696768743D223130302522206F PUSH1 0x80 DUP3 ADD MSTORE PUSH32 0x7061636974793D22383525222066696C6C3D2223663361646164223E3C2F7265 PUSH1 0xA0 DUP3 ADD MSTORE PUSH32 0x63743E203C616E696D617465206174747269627574654E616D653D226F706163 PUSH1 0xC0 DUP3 ADD MSTORE PUSH32 0x69747922206475723D22357322202076616C7565733D22302E34353B20302E35 PUSH1 0xE0 DUP3 ADD MSTORE PUSH32 0x353B20302E37303B20302E38353B20313B20302E38353B20302E37303B20302E PUSH2 0x100 DUP3 ADD MSTORE PUSH32 0x35353B20302E34352220726570656174436F756E743D22696E646566696E6974 PUSH2 0x120 DUP3 ADD MSTORE PUSH9 0x329110179F1E17B39F PUSH1 0xB9 SHL PUSH2 0x140 DUP3 ADD MSTORE PUSH2 0x149 ADD SWAP1 JUMP JUMPDEST PUSH32 0x3C706174682069643D22446F6E6F7220496420426F726465722220207374726F DUP2 MSTORE PUSH32 0x6B653D222330303030303022207374726F6B652D77696474683D223322206F70 PUSH1 0x20 DUP3 ADD MSTORE PUSH32 0x61636974793D223930252220643D224D20313237203930207620333020683136 PUSH1 0x40 DUP3 ADD MSTORE PUSH32 0x302076202D3330207A222066696C6C3D2223666666666666222F3E203C746578 PUSH1 0x60 DUP3 ADD MSTORE PUSH32 0x742069643D22446F6E6F722049642220783D2233382220793D22313130222073 PUSH1 0x80 DUP3 ADD MSTORE PUSH32 0x74796C653D22666F6E742D66616D696C793A4D6F6E6F73706163653B666F6E74 PUSH1 0xA0 DUP3 ADD MSTORE PUSH32 0x2D73697A653A3135223E446F6E6F722049643A203C2F746578743E0000000000 PUSH1 0xC0 DUP3 ADD MSTORE PUSH1 0xDB ADD SWAP1 JUMP JUMPDEST PUSH32 0x3C746578742069643D2249642220783D223133352220793D2231313022207374 DUP2 MSTORE PUSH32 0x796C653D22666F6E742D66616D696C793A4D6F6E6F73706163653B666F6E742D PUSH1 0x20 DUP3 ADD MSTORE PUSH9 0x39B4BD329D189A911F PUSH1 0xB9 SHL PUSH1 0x40 DUP3 ADD MSTORE PUSH1 0x49 ADD SWAP1 JUMP JUMPDEST DUP6 PUSH2 0x30DF JUMP JUMPDEST PUSH1 0x20 DUP1 DUP3 MSTORE PUSH1 0x32 SWAP1 DUP3 ADD MSTORE PUSH32 0x4552433732313A207472616E7366657220746F206E6F6E204552433732315265 PUSH1 0x40 DUP3 ADD MSTORE PUSH18 0x31B2B4BB32B91034B6B83632B6B2B73A32B9 PUSH1 0x71 SHL PUSH1 0x60 DUP3 ADD MSTORE PUSH1 0x80 ADD SWAP1 JUMP JUMPDEST PUSH13 0x426C6F6F642D442D4E46542023 PUSH1 0x98 SHL DUP2 MSTORE PUSH1 0x0 DUP3 MLOAD PUSH2 0x3CD5 DUP2 PUSH1 0xD DUP6 ADD PUSH1 0x20 DUP8 ADD PUSH2 0x27D6 JUMP JUMPDEST SWAP2 SWAP1 SWAP2 ADD PUSH1 0xD ADD SWAP3 SWAP2 POP POP JUMP JUMPDEST PUSH10 0x3D913730B6B2911D1011 PUSH1 0xB1 SHL DUP2 MSTORE DUP4 MLOAD PUSH1 0x0 SWAP1 PUSH2 0x3D08 DUP2 PUSH1 0xA DUP6 ADD PUSH1 0x20 DUP10 ADD PUSH2 0x27D6 JUMP JUMPDEST PUSH2 0x88B PUSH1 0xF2 SHL PUSH1 0xA SWAP2 DUP5 ADD SWAP2 DUP3 ADD MSTORE PUSH32 0x20226465736372697074696F6E223A20224F6E2D436861696E20426C6F6F642D PUSH1 0xC DUP3 ADD MSTORE PUSH10 0x110B5391951CC808488B PUSH1 0xB2 SHL PUSH1 0x2C DUP3 ADD MSTORE PUSH16 0x202261747472696275746573223A205B PUSH1 0x80 SHL PUSH1 0x36 DUP3 ADD MSTORE DUP5 MLOAD PUSH2 0x3D7C DUP2 PUSH1 0x46 DUP5 ADD PUSH1 0x20 DUP10 ADD PUSH2 0x27D6 JUMP JUMPDEST PUSH2 0x174B PUSH1 0xF2 SHL PUSH1 0x46 SWAP3 SWAP1 SWAP2 ADD SWAP2 DUP3 ADD MSTORE PUSH32 0x2022696D616765223A2022646174613A696D6167652F7376672B786D6C3B6261 PUSH1 0x48 DUP3 ADD MSTORE PUSH5 0x1CD94D8D0B PUSH1 0xDA SHL PUSH1 0x68 DUP3 ADD MSTORE DUP4 MLOAD PUSH2 0x3DD3 DUP2 PUSH1 0x6D DUP5 ADD PUSH1 0x20 DUP9 ADD PUSH2 0x27D6 JUMP JUMPDEST PUSH2 0x35E4 PUSH1 0x6D DUP3 DUP5 ADD ADD PUSH2 0x227D PUSH1 0xF0 SHL DUP2 MSTORE PUSH1 0x2 ADD SWAP1 JUMP JUMPDEST PUSH32 0x646174613A6170706C69636174696F6E2F6A736F6E3B6261736536342C000000 DUP2 MSTORE PUSH1 0x0 DUP3 MLOAD PUSH2 0x3E22 DUP2 PUSH1 0x1D DUP6 ADD PUSH1 0x20 DUP8 ADD PUSH2 0x27D6 JUMP JUMPDEST SWAP2 SWAP1 SWAP2 ADD PUSH1 0x1D ADD SWAP3 SWAP2 POP POP JUMP JUMPDEST PUSH32 0x416363657373436F6E74726F6C3A206163636F756E7420000000000000000000 DUP2 MSTORE PUSH1 0x0 DUP4 MLOAD PUSH2 0x3E67 DUP2 PUSH1 0x17 DUP6 ADD PUSH1 0x20 DUP9 ADD PUSH2 0x27D6 JUMP JUMPDEST PUSH17 0x1034B99036B4B9B9B4B733903937B6329 PUSH1 0x7D SHL PUSH1 0x17 SWAP2 DUP5 ADD SWAP2 DUP3 ADD MSTORE DUP4 MLOAD PUSH2 0x3E98 DUP2 PUSH1 0x28 DUP5 ADD PUSH1 0x20 DUP9 ADD PUSH2 0x27D6 JUMP JUMPDEST ADD PUSH1 0x28 ADD SWAP5 SWAP4 POP POP POP POP JUMP JUMPDEST PUSH1 0x1 PUSH1 0x1 PUSH1 0xA0 SHL SUB DUP6 DUP2 AND DUP3 MSTORE DUP5 AND PUSH1 0x20 DUP3 ADD MSTORE PUSH1 0x40 DUP2 ADD DUP4 SWAP1 MSTORE PUSH1 0x80 PUSH1 0x60 DUP3 ADD DUP2 SWAP1 MSTORE PUSH1 0x0 SWAP1 PUSH2 0x2F05 SWAP1 DUP4 ADD DUP5 PUSH2 0x2802 JUMP JUMPDEST PUSH1 0x0 PUSH1 0x20 DUP3 DUP5 SUB SLT ISZERO PUSH2 0x3EE9 JUMPI PUSH1 0x0 DUP1 REVERT JUMPDEST DUP2 MLOAD PUSH2 0x279C DUP2 PUSH2 0x27A3 JUMP JUMPDEST PUSH32 0x7B2274726169745F74797065223A22426C6F6F642047726F7570222C20227661 DUP2 MSTORE PUSH6 0x363AB2911D11 PUSH1 0xD1 SHL PUSH1 0x20 DUP3 ADD MSTORE PUSH1 0x0 DUP5 MLOAD PUSH2 0x3F3B DUP2 PUSH1 0x26 DUP6 ADD PUSH1 0x20 DUP10 ADD PUSH2 0x27D6 JUMP JUMPDEST PUSH3 0x89F4B PUSH1 0xEA SHL PUSH1 0x26 SWAP2 DUP5 ADD SWAP2 DUP3 ADD MSTORE PUSH32 0x7B2274726169745F74797065223A22556E697473222C202276616C7565223A22 PUSH1 0x29 DUP3 ADD MSTORE DUP5 MLOAD PUSH2 0x3F84 DUP2 PUSH1 0x49 DUP5 ADD PUSH1 0x20 DUP10 ADD PUSH2 0x27D6 JUMP JUMPDEST PUSH32 0x227D2C7B22646973706C61795F74797065223A202264617465222C2022747261 PUSH1 0x49 SWAP3 SWAP1 SWAP2 ADD SWAP2 DUP3 ADD MSTORE PUSH32 0x69745F74797065223A2022446F6E617465644F6E222C20000000000000000000 PUSH1 0x69 DUP3 ADD MSTORE PUSH10 0x113B30B63AB2911D1011 PUSH1 0xB1 SHL PUSH1 0x80 DUP3 ADD MSTORE DUP4 MLOAD PUSH2 0x3FFB DUP2 PUSH1 0x8A DUP5 ADD PUSH1 0x20 DUP9 ADD PUSH2 0x27D6 JUMP JUMPDEST PUSH2 0x227D PUSH1 0xF0 SHL PUSH1 0x8A SWAP3 SWAP1 SWAP2 ADD SWAP2 DUP3 ADD MSTORE PUSH1 0x8C ADD SWAP6 SWAP5 POP POP POP POP POP JUMP JUMPDEST PUSH1 0x0 DUP3 PUSH2 0x4034 JUMPI PUSH4 0x4E487B71 PUSH1 0xE0 SHL PUSH1 0x0 MSTORE PUSH1 0x12 PUSH1 0x4 MSTORE PUSH1 0x24 PUSH1 0x0 REVERT JUMPDEST POP DIV SWAP1 JUMP JUMPDEST PUSH1 0x0 DUP2 PUSH1 0x0 NOT DIV DUP4 GT DUP3 ISZERO ISZERO AND ISZERO PUSH2 0x4053 JUMPI PUSH2 0x4053 PUSH2 0x2D7F JUMP JUMPDEST POP MUL SWAP1 JUMP JUMPDEST PUSH4 0x4E487B71 PUSH1 0xE0 SHL PUSH1 0x0 MSTORE PUSH1 0x32 PUSH1 0x4 MSTORE PUSH1 0x24 PUSH1 0x0 REVERT JUMPDEST PUSH1 0x0 DUP2 PUSH2 0x407D JUMPI PUSH2 0x407D PUSH2 0x2D7F JUMP JUMPDEST POP PUSH1 0x0 NOT ADD SWAP1 JUMP INVALID COINBASE TIMESTAMP NUMBER DIFFICULTY GASLIMIT CHAINID SELFBALANCE BASEFEE 0x49 0x4A 0x4B 0x4C 0x4D 0x4E 0x4F POP MLOAD MSTORE MSTORE8 SLOAD SSTORE JUMP JUMPI PC MSIZE GAS PUSH2 0x6263 PUSH5 0x6566676869 PUSH11 0x6B6C6D6E6F707172737475 PUSH23 0x7778797A303132333435363738392B2FA2646970667358 0x22 SLT KECCAK256 DUP1 0x1E CHAINID 0x2F LOG3 EXP PUSH23 0xE2A0C2FE3F190EF9C181C8201055F20018BEBEF36E725D 0xBD PUSH10 0x64736F6C634300080F00 CALLER "
		},
		"gasEstimates": {
			"creation": {
				"codeDepositCost": "3327000",
				"executionCost": "infinite",
				"totalCost": "infinite"
			},
			"external": {
				"APPROVER_ROLE()": "262",
				"AllDataHash2Id(bytes32)": "2505",
				"COLLECTOR_ROLE()": "328",
				"DEFAULT_ADMIN_ROLE()": "262",
				"PHYSICAL_VERIFIER_ROLE()": "328",
				"SCREENER_ROLE()": "263",
				"address2DonorID(address)": "2564",
				"appId2Data(uint256)": "infinite",
				"appIdCounter()": "2406",
				"applyforBloodDonation(uint256,string)": "infinite",
				"approve(address,uint256)": "infinite",
				"balanceOf(address)": "2657",
				"collectBloodSample(uint256,uint256,string)": "infinite",
				"donorId2Data(uint256)": "infinite",
				"donorId2activeAppId(uint256)": "2483",
				"donorIdCounter()": "2341",
				"enrollDonor(bytes32,string,address)": "infinite",
				"generateSVG(uint256)": "infinite",
				"getApproved(uint256)": "4815",
				"getDonorIdFromAddress(address)": "2605",
				"getRoleAdmin(bytes32)": "2556",
				"grantRole(bytes32,address)": "infinite",
				"hasRole(bytes32,address)": "2699",
				"isApprovedForAll(address,address)": "infinite",
				"name()": "infinite",
				"owner()": "2471",
				"ownerOf(uint256)": "2693",
				"renounceRole(bytes32,address)": "29113",
				"revokeRole(bytes32,address)": "infinite",
				"safeTransferFrom(address,address,uint256)": "infinite",
				"safeTransferFrom(address,address,uint256,bytes)": "infinite",
				"setApprovalForAll(address,bool)": "infinite",
				"supportsInterface(bytes4)": "infinite",
				"symbol()": "infinite",
				"tokenURI(uint256)": "infinite",
				"totalBloodDonatedInUnits()": "2385",
				"transferFrom(address,address,uint256)": "infinite",
				"validateApplication(uint256,bool)": "infinite",
				"validateHashOfUser(uint256,bytes32)": "infinite",
				"validatePhysicalUserData(uint256,bool)": "infinite",
				"validateScreeningTest(uint256,bool)": "infinite",
				"verifiedDataHash2Id(bytes32)": "2528"
			},
			"internal": {
				"generateFinalMetaJson(uint256)": "infinite",
				"getAttributes(uint256)": "infinite",
				"getDonorBaseSVG(uint256)": "infinite"
			}
		},
		"methodIdentifiers": {
			"APPROVER_ROLE()": "4245962b",
			"AllDataHash2Id(bytes32)": "9338e33e",
			"COLLECTOR_ROLE()": "9ca39ae9",
			"DEFAULT_ADMIN_ROLE()": "a217fddf",
			"PHYSICAL_VERIFIER_ROLE()": "61f38a30",
			"SCREENER_ROLE()": "30ef266c",
			"address2DonorID(address)": "3a7a5b7d",
			"appId2Data(uint256)": "be55dc5f",
			"appIdCounter()": "58b34066",
			"applyforBloodDonation(uint256,string)": "25ba8bfc",
			"approve(address,uint256)": "095ea7b3",
			"balanceOf(address)": "70a08231",
			"collectBloodSample(uint256,uint256,string)": "0ea0a763",
			"donorId2Data(uint256)": "eec5f16a",
			"donorId2activeAppId(uint256)": "a1a1409b",
			"donorIdCounter()": "13ff2752",
			"enrollDonor(bytes32,string,address)": "99831c7c",
			"generateSVG(uint256)": "6dcee4ca",
			"getApproved(uint256)": "081812fc",
			"getDonorIdFromAddress(address)": "21e62a07",
			"getRoleAdmin(bytes32)": "248a9ca3",
			"grantRole(bytes32,address)": "2f2ff15d",
			"hasRole(bytes32,address)": "91d14854",
			"isApprovedForAll(address,address)": "e985e9c5",
			"name()": "06fdde03",
			"owner()": "8da5cb5b",
			"ownerOf(uint256)": "6352211e",
			"renounceRole(bytes32,address)": "36568abe",
			"revokeRole(bytes32,address)": "d547741f",
			"safeTransferFrom(address,address,uint256)": "42842e0e",
			"safeTransferFrom(address,address,uint256,bytes)": "b88d4fde",
			"setApprovalForAll(address,bool)": "a22cb465",
			"supportsInterface(bytes4)": "01ffc9a7",
			"symbol()": "95d89b41",
			"tokenURI(uint256)": "c87b56dd",
			"totalBloodDonatedInUnits()": "71134e5f",
			"transferFrom(address,address,uint256)": "23b872dd",
			"validateApplication(uint256,bool)": "75d9d3d6",
			"validateHashOfUser(uint256,bytes32)": "a3fbf07a",
			"validatePhysicalUserData(uint256,bool)": "c57b47fc",
			"validateScreeningTest(uint256,bool)": "38369655",
			"verifiedDataHash2Id(bytes32)": "312c4c27"
		}
	},
	"abi": [
		{
			"inputs": [],
			"stateMutability": "nonpayable",
			"type": "constructor"
		},
		{
			"anonymous": false,
			"inputs": [
				{
					"indexed": false,
					"internalType": "uint256",
					"name": "_appId",
					"type": "uint256"
				},
				{
					"indexed": false,
					"internalType": "bool",
					"name": "_status",
					"type": "bool"
				}
			],
			"name": "ApplicationValidated",
			"type": "event"
		},
		{
			"anonymous": false,
			"inputs": [
				{
					"indexed": false,
					"internalType": "uint256",
					"name": "_donorId",
					"type": "uint256"
				},
				{
					"indexed": false,
					"internalType": "string",
					"name": "_formURL",
					"type": "string"
				},
				{
					"indexed": false,
					"internalType": "uint256",
					"name": "appId",
					"type": "uint256"
				}
			],
			"name": "AppliedForDonation",
			"type": "event"
		},
		{
			"anonymous": false,
			"inputs": [
				{
					"indexed": true,
					"internalType": "address",
					"name": "owner",
					"type": "address"
				},
				{
					"indexed": true,
					"internalType": "address",
					"name": "approved",
					"type": "address"
				},
				{
					"indexed": true,
					"internalType": "uint256",
					"name": "tokenId",
					"type": "uint256"
				}
			],
			"name": "Approval",
			"type": "event"
		},
		{
			"anonymous": false,
			"inputs": [
				{
					"indexed": true,
					"internalType": "address",
					"name": "owner",
					"type": "address"
				},
				{
					"indexed": true,
					"internalType": "address",
					"name": "operator",
					"type": "address"
				},
				{
					"indexed": false,
					"internalType": "bool",
					"name": "approved",
					"type": "bool"
				}
			],
			"name": "ApprovalForAll",
			"type": "event"
		},
		{
			"anonymous": false,
			"inputs": [
				{
					"indexed": false,
					"internalType": "uint256",
					"name": "_appId",
					"type": "uint256"
				},
				{
					"indexed": false,
					"internalType": "uint256",
					"name": "_bloodCollectedInUnits",
					"type": "uint256"
				},
				{
					"indexed": false,
					"internalType": "string",
					"name": "_date",
					"type": "string"
				}
			],
			"name": "BloodSampleCollected",
			"type": "event"
		},
		{
			"anonymous": false,
			"inputs": [
				{
					"indexed": false,
					"internalType": "bytes32",
					"name": "_donorDataHash",
					"type": "bytes32"
				},
				{
					"indexed": false,
					"internalType": "string",
					"name": "_bloodGroup",
					"type": "string"
				},
				{
					"indexed": false,
					"internalType": "address",
					"name": "wallet",
					"type": "address"
				}
			],
			"name": "DonorEnrolled",
			"type": "event"
		},
		{
			"anonymous": false,
			"inputs": [
				{
					"indexed": true,
					"internalType": "bytes32",
					"name": "role",
					"type": "bytes32"
				},
				{
					"indexed": true,
					"internalType": "bytes32",
					"name": "previousAdminRole",
					"type": "bytes32"
				},
				{
					"indexed": true,
					"internalType": "bytes32",
					"name": "newAdminRole",
					"type": "bytes32"
				}
			],
			"name": "RoleAdminChanged",
			"type": "event"
		},
		{
			"anonymous": false,
			"inputs": [
				{
					"indexed": true,
					"internalType": "bytes32",
					"name": "role",
					"type": "bytes32"
				},
				{
					"indexed": true,
					"internalType": "address",
					"name": "account",
					"type": "address"
				},
				{
					"indexed": true,
					"internalType": "address",
					"name": "sender",
					"type": "address"
				}
			],
			"name": "RoleGranted",
			"type": "event"
		},
		{
			"anonymous": false,
			"inputs": [
				{
					"indexed": true,
					"internalType": "bytes32",
					"name": "role",
					"type": "bytes32"
				},
				{
					"indexed": true,
					"internalType": "address",
					"name": "account",
					"type": "address"
				},
				{
					"indexed": true,
					"internalType": "address",
					"name": "sender",
					"type": "address"
				}
			],
			"name": "RoleRevoked",
			"type": "event"
		},
		{
			"anonymous": false,
			"inputs": [
				{
					"indexed": true,
					"internalType": "address",
					"name": "from",
					"type": "address"
				},
				{
					"indexed": true,
					"internalType": "address",
					"name": "to",
					"type": "address"
				},
				{
					"indexed": true,
					"internalType": "uint256",
					"name": "tokenId",
					"type": "uint256"
				}
			],
			"name": "Transfer",
			"type": "event"
		},
		{
			"anonymous": false,
			"inputs": [
				{
					"indexed": false,
					"internalType": "uint256",
					"name": "_appId",
					"type": "uint256"
				},
				{
					"indexed": false,
					"internalType": "bool",
					"name": "_status",
					"type": "bool"
				}
			],
			"name": "validatedPhysicalUserData",
			"type": "event"
		},
		{
			"inputs": [],
			"name": "APPROVER_ROLE",
			"outputs": [
				{
					"internalType": "bytes32",
					"name": "",
					"type": "bytes32"
				}
			],
			"stateMutability": "view",
			"type": "function"
		},
		{
			"inputs": [
				{
					"internalType": "bytes32",
					"name": "",
					"type": "bytes32"
				}
			],
			"name": "AllDataHash2Id",
			"outputs": [
				{
					"internalType": "uint256",
					"name": "",
					"type": "uint256"
				}
			],
			"stateMutability": "view",
			"type": "function"
		},
		{
			"inputs": [],
			"name": "COLLECTOR_ROLE",
			"outputs": [
				{
					"internalType": "bytes32",
					"name": "",
					"type": "bytes32"
				}
			],
			"stateMutability": "view",
			"type": "function"
		},
		{
			"inputs": [],
			"name": "DEFAULT_ADMIN_ROLE",
			"outputs": [
				{
					"internalType": "bytes32",
					"name": "",
					"type": "bytes32"
				}
			],
			"stateMutability": "view",
			"type": "function"
		},
		{
			"inputs": [],
			"name": "PHYSICAL_VERIFIER_ROLE",
			"outputs": [
				{
					"internalType": "bytes32",
					"name": "",
					"type": "bytes32"
				}
			],
			"stateMutability": "view",
			"type": "function"
		},
		{
			"inputs": [],
			"name": "SCREENER_ROLE",
			"outputs": [
				{
					"internalType": "bytes32",
					"name": "",
					"type": "bytes32"
				}
			],
			"stateMutability": "view",
			"type": "function"
		},
		{
			"inputs": [
				{
					"internalType": "address",
					"name": "",
					"type": "address"
				}
			],
			"name": "address2DonorID",
			"outputs": [
				{
					"internalType": "uint256",
					"name": "",
					"type": "uint256"
				}
			],
			"stateMutability": "view",
			"type": "function"
		},
		{
			"inputs": [
				{
					"internalType": "uint256",
					"name": "",
					"type": "uint256"
				}
			],
			"name": "appId2Data",
			"outputs": [
				{
					"internalType": "uint256",
					"name": "_donorId",
					"type": "uint256"
				},
				{
					"internalType": "string",
					"name": "_formURL",
					"type": "string"
				},
				{
					"internalType": "string",
					"name": "_bloodGroup",
					"type": "string"
				},
				{
					"internalType": "uint256",
					"name": "_appliedTime",
					"type": "uint256"
				},
				{
					"internalType": "uint256",
					"name": "_collectionTime",
					"type": "uint256"
				},
				{
					"internalType": "string",
					"name": "_collectionDate",
					"type": "string"
				},
				{
					"internalType": "uint256",
					"name": "_closedTime",
					"type": "uint256"
				},
				{
					"internalType": "uint256",
					"name": "_bloodDonated",
					"type": "uint256"
				},
				{
					"internalType": "enum BloodD.Status",
					"name": "_status",
					"type": "uint8"
				}
			],
			"stateMutability": "view",
			"type": "function"
		},
		{
			"inputs": [],
			"name": "appIdCounter",
			"outputs": [
				{
					"internalType": "uint256",
					"name": "",
					"type": "uint256"
				}
			],
			"stateMutability": "view",
			"type": "function"
		},
		{
			"inputs": [
				{
					"internalType": "uint256",
					"name": "_donorId",
					"type": "uint256"
				},
				{
					"internalType": "string",
					"name": "_formURL",
					"type": "string"
				}
			],
			"name": "applyforBloodDonation",
			"outputs": [
				{
					"internalType": "uint256",
					"name": "",
					"type": "uint256"
				}
			],
			"stateMutability": "nonpayable",
			"type": "function"
		},
		{
			"inputs": [
				{
					"internalType": "address",
					"name": "to",
					"type": "address"
				},
				{
					"internalType": "uint256",
					"name": "tokenId",
					"type": "uint256"
				}
			],
			"name": "approve",
			"outputs": [],
			"stateMutability": "nonpayable",
			"type": "function"
		},
		{
			"inputs": [
				{
					"internalType": "address",
					"name": "owner",
					"type": "address"
				}
			],
			"name": "balanceOf",
			"outputs": [
				{
					"internalType": "uint256",
					"name": "",
					"type": "uint256"
				}
			],
			"stateMutability": "view",
			"type": "function"
		},
		{
			"inputs": [
				{
					"internalType": "uint256",
					"name": "_appId",
					"type": "uint256"
				},
				{
					"internalType": "uint256",
					"name": "_bloodDonatedInUnits",
					"type": "uint256"
				},
				{
					"internalType": "string",
					"name": "_date",
					"type": "string"
				}
			],
			"name": "collectBloodSample",
			"outputs": [],
			"stateMutability": "nonpayable",
			"type": "function"
		},
		{
			"inputs": [
				{
					"internalType": "uint256",
					"name": "",
					"type": "uint256"
				}
			],
			"name": "donorId2Data",
			"outputs": [
				{
					"internalType": "bytes32",
					"name": "_donorDataHash",
					"type": "bytes32"
				},
				{
					"internalType": "uint256",
					"name": "_enrolledTimestamp",
					"type": "uint256"
				},
				{
					"internalType": "string",
					"name": "_bloodGroup",
					"type": "string"
				},
				{
					"internalType": "uint256",
					"name": "_totalBloodDonatedUnits",
					"type": "uint256"
				},
				{
					"internalType": "address",
					"name": "_walletAddress",
					"type": "address"
				},
				{
					"internalType": "bool",
					"name": "_isVerified",
					"type": "bool"
				}
			],
			"stateMutability": "view",
			"type": "function"
		},
		{
			"inputs": [
				{
					"internalType": "uint256",
					"name": "",
					"type": "uint256"
				}
			],
			"name": "donorId2activeAppId",
			"outputs": [
				{
					"internalType": "uint256",
					"name": "",
					"type": "uint256"
				}
			],
			"stateMutability": "view",
			"type": "function"
		},
		{
			"inputs": [],
			"name": "donorIdCounter",
			"outputs": [
				{
					"internalType": "uint256",
					"name": "",
					"type": "uint256"
				}
			],
			"stateMutability": "view",
			"type": "function"
		},
		{
			"inputs": [
				{
					"internalType": "bytes32",
					"name": "_donorDataHash",
					"type": "bytes32"
				},
				{
					"internalType": "string",
					"name": "_bloodGroup",
					"type": "string"
				},
				{
					"internalType": "address",
					"name": "wallet",
					"type": "address"
				}
			],
			"name": "enrollDonor",
			"outputs": [
				{
					"internalType": "uint256",
					"name": "",
					"type": "uint256"
				}
			],
			"stateMutability": "nonpayable",
			"type": "function"
		},
		{
			"inputs": [
				{
					"internalType": "uint256",
					"name": "appId",
					"type": "uint256"
				}
			],
			"name": "generateSVG",
			"outputs": [
				{
					"internalType": "string",
					"name": "svg",
					"type": "string"
				}
			],
			"stateMutability": "view",
			"type": "function"
		},
		{
			"inputs": [
				{
					"internalType": "uint256",
					"name": "tokenId",
					"type": "uint256"
				}
			],
			"name": "getApproved",
			"outputs": [
				{
					"internalType": "address",
					"name": "",
					"type": "address"
				}
			],
			"stateMutability": "view",
			"type": "function"
		},
		{
			"inputs": [
				{
					"internalType": "address",
					"name": "_address",
					"type": "address"
				}
			],
			"name": "getDonorIdFromAddress",
			"outputs": [
				{
					"internalType": "uint256",
					"name": "",
					"type": "uint256"
				}
			],
			"stateMutability": "view",
			"type": "function"
		},
		{
			"inputs": [
				{
					"internalType": "bytes32",
					"name": "role",
					"type": "bytes32"
				}
			],
			"name": "getRoleAdmin",
			"outputs": [
				{
					"internalType": "bytes32",
					"name": "",
					"type": "bytes32"
				}
			],
			"stateMutability": "view",
			"type": "function"
		},
		{
			"inputs": [
				{
					"internalType": "bytes32",
					"name": "role",
					"type": "bytes32"
				},
				{
					"internalType": "address",
					"name": "account",
					"type": "address"
				}
			],
			"name": "grantRole",
			"outputs": [],
			"stateMutability": "nonpayable",
			"type": "function"
		},
		{
			"inputs": [
				{
					"internalType": "bytes32",
					"name": "role",
					"type": "bytes32"
				},
				{
					"internalType": "address",
					"name": "account",
					"type": "address"
				}
			],
			"name": "hasRole",
			"outputs": [
				{
					"internalType": "bool",
					"name": "",
					"type": "bool"
				}
			],
			"stateMutability": "view",
			"type": "function"
		},
		{
			"inputs": [
				{
					"internalType": "address",
					"name": "owner",
					"type": "address"
				},
				{
					"internalType": "address",
					"name": "operator",
					"type": "address"
				}
			],
			"name": "isApprovedForAll",
			"outputs": [
				{
					"internalType": "bool",
					"name": "",
					"type": "bool"
				}
			],
			"stateMutability": "view",
			"type": "function"
		},
		{
			"inputs": [],
			"name": "name",
			"outputs": [
				{
					"internalType": "string",
					"name": "",
					"type": "string"
				}
			],
			"stateMutability": "view",
			"type": "function"
		},
		{
			"inputs": [],
			"name": "owner",
			"outputs": [
				{
					"internalType": "address",
					"name": "",
					"type": "address"
				}
			],
			"stateMutability": "view",
			"type": "function"
		},
		{
			"inputs": [
				{
					"internalType": "uint256",
					"name": "tokenId",
					"type": "uint256"
				}
			],
			"name": "ownerOf",
			"outputs": [
				{
					"internalType": "address",
					"name": "",
					"type": "address"
				}
			],
			"stateMutability": "view",
			"type": "function"
		},
		{
			"inputs": [
				{
					"internalType": "bytes32",
					"name": "role",
					"type": "bytes32"
				},
				{
					"internalType": "address",
					"name": "account",
					"type": "address"
				}
			],
			"name": "renounceRole",
			"outputs": [],
			"stateMutability": "nonpayable",
			"type": "function"
		},
		{
			"inputs": [
				{
					"internalType": "bytes32",
					"name": "role",
					"type": "bytes32"
				},
				{
					"internalType": "address",
					"name": "account",
					"type": "address"
				}
			],
			"name": "revokeRole",
			"outputs": [],
			"stateMutability": "nonpayable",
			"type": "function"
		},
		{
			"inputs": [
				{
					"internalType": "address",
					"name": "from",
					"type": "address"
				},
				{
					"internalType": "address",
					"name": "to",
					"type": "address"
				},
				{
					"internalType": "uint256",
					"name": "tokenId",
					"type": "uint256"
				}
			],
			"name": "safeTransferFrom",
			"outputs": [],
			"stateMutability": "nonpayable",
			"type": "function"
		},
		{
			"inputs": [
				{
					"internalType": "address",
					"name": "from",
					"type": "address"
				},
				{
					"internalType": "address",
					"name": "to",
					"type": "address"
				},
				{
					"internalType": "uint256",
					"name": "tokenId",
					"type": "uint256"
				},
				{
					"internalType": "bytes",
					"name": "data",
					"type": "bytes"
				}
			],
			"name": "safeTransferFrom",
			"outputs": [],
			"stateMutability": "nonpayable",
			"type": "function"
		},
		{
			"inputs": [
				{
					"internalType": "address",
					"name": "operator",
					"type": "address"
				},
				{
					"internalType": "bool",
					"name": "approved",
					"type": "bool"
				}
			],
			"name": "setApprovalForAll",
			"outputs": [],
			"stateMutability": "nonpayable",
			"type": "function"
		},
		{
			"inputs": [
				{
					"internalType": "bytes4",
					"name": "interfaceId",
					"type": "bytes4"
				}
			],
			"name": "supportsInterface",
			"outputs": [
				{
					"internalType": "bool",
					"name": "",
					"type": "bool"
				}
			],
			"stateMutability": "view",
			"type": "function"
		},
		{
			"inputs": [],
			"name": "symbol",
			"outputs": [
				{
					"internalType": "string",
					"name": "",
					"type": "string"
				}
			],
			"stateMutability": "view",
			"type": "function"
		},
		{
			"inputs": [
				{
					"internalType": "uint256",
					"name": "tokenId",
					"type": "uint256"
				}
			],
			"name": "tokenURI",
			"outputs": [
				{
					"internalType": "string",
					"name": "",
					"type": "string"
				}
			],
			"stateMutability": "view",
			"type": "function"
		},
		{
			"inputs": [],
			"name": "totalBloodDonatedInUnits",
			"outputs": [
				{
					"internalType": "uint256",
					"name": "",
					"type": "uint256"
				}
			],
			"stateMutability": "view",
			"type": "function"
		},
		{
			"inputs": [
				{
					"internalType": "address",
					"name": "from",
					"type": "address"
				},
				{
					"internalType": "address",
					"name": "to",
					"type": "address"
				},
				{
					"internalType": "uint256",
					"name": "tokenId",
					"type": "uint256"
				}
			],
			"name": "transferFrom",
			"outputs": [],
			"stateMutability": "nonpayable",
			"type": "function"
		},
		{
			"inputs": [
				{
					"internalType": "uint256",
					"name": "_appId",
					"type": "uint256"
				},
				{
					"internalType": "bool",
					"name": "_status",
					"type": "bool"
				}
			],
			"name": "validateApplication",
			"outputs": [],
			"stateMutability": "nonpayable",
			"type": "function"
		},
		{
			"inputs": [
				{
					"internalType": "uint256",
					"name": "_appId",
					"type": "uint256"
				},
				{
					"internalType": "bytes32",
					"name": "_physicalHash",
					"type": "bytes32"
				}
			],
			"name": "validateHashOfUser",
			"outputs": [
				{
					"internalType": "bool",
					"name": "",
					"type": "bool"
				}
			],
			"stateMutability": "view",
			"type": "function"
		},
		{
			"inputs": [
				{
					"internalType": "uint256",
					"name": "_appId",
					"type": "uint256"
				},
				{
					"internalType": "bool",
					"name": "_status",
					"type": "bool"
				}
			],
			"name": "validatePhysicalUserData",
			"outputs": [],
			"stateMutability": "nonpayable",
			"type": "function"
		},
		{
			"inputs": [
				{
					"internalType": "uint256",
					"name": "_appId",
					"type": "uint256"
				},
				{
					"internalType": "bool",
					"name": "_status",
					"type": "bool"
				}
			],
			"name": "validateScreeningTest",
			"outputs": [],
			"stateMutability": "nonpayable",
			"type": "function"
		},
		{
			"inputs": [
				{
					"internalType": "bytes32",
					"name": "",
					"type": "bytes32"
				}
			],
			"name": "verifiedDataHash2Id",
			"outputs": [
				{
					"internalType": "uint256",
					"name": "",
					"type": "uint256"
				}
			],
			"stateMutability": "view",
			"type": "function"
		}
	]
}